{
  "contractName": "AddressImpl",
  "abi": [
    {
      "anonymous": false,
      "inputs": [
        {
          "indexed": false,
          "internalType": "string",
          "name": "data",
          "type": "string"
        }
      ],
      "name": "CallReturnValue",
      "type": "event"
    },
    {
      "inputs": [],
      "name": "sharedAnswer",
      "outputs": [
        {
          "internalType": "string",
          "name": "",
          "type": "string"
        }
      ],
      "stateMutability": "view",
      "type": "function"
    },
    {
      "stateMutability": "payable",
      "type": "receive"
    },
    {
      "inputs": [
        {
          "internalType": "address",
          "name": "account",
          "type": "address"
        }
      ],
      "name": "isContract",
      "outputs": [
        {
          "internalType": "bool",
          "name": "",
          "type": "bool"
        }
      ],
      "stateMutability": "view",
      "type": "function"
    },
    {
      "inputs": [
        {
          "internalType": "address payable",
          "name": "receiver",
          "type": "address"
        },
        {
          "internalType": "uint256",
          "name": "amount",
          "type": "uint256"
        }
      ],
      "name": "sendValue",
      "outputs": [],
      "stateMutability": "nonpayable",
      "type": "function"
    },
    {
      "inputs": [
        {
          "internalType": "address",
          "name": "target",
          "type": "address"
        },
        {
          "internalType": "bytes",
          "name": "data",
          "type": "bytes"
        }
      ],
      "name": "functionCall",
      "outputs": [],
      "stateMutability": "nonpayable",
      "type": "function"
    },
    {
      "inputs": [
        {
          "internalType": "address",
          "name": "target",
          "type": "address"
        },
        {
          "internalType": "bytes",
          "name": "data",
          "type": "bytes"
        },
        {
          "internalType": "uint256",
          "name": "value",
          "type": "uint256"
        }
      ],
      "name": "functionCallWithValue",
      "outputs": [],
      "stateMutability": "payable",
      "type": "function"
    },
    {
      "inputs": [
        {
          "internalType": "address",
          "name": "target",
          "type": "address"
        },
        {
          "internalType": "bytes",
          "name": "data",
          "type": "bytes"
        }
      ],
      "name": "functionStaticCall",
      "outputs": [],
      "stateMutability": "nonpayable",
      "type": "function"
    }
  ],
  "bytecode": "0x608060405234801561001057600080fd5b50611066806100206000396000f3fe6080604052600436106100595760003560e01c8063162790551461006557806324a084df146100cc5780632a01159414610127578063a0b5ffb0146101ca578063c21d36f314610270578063fc40cf731461031657610060565b3661006057005b600080fd5b34801561007157600080fd5b506100b46004803603602081101561008857600080fd5b81019080803573ffffffffffffffffffffffffffffffffffffffff1690602001909291905050506103a6565b60405180821515815260200191505060405180910390f35b3480156100d857600080fd5b50610125600480360360408110156100ef57600080fd5b81019080803573ffffffffffffffffffffffffffffffffffffffff169060200190929190803590602001909291905050506103b8565b005b6101c86004803603606081101561013d57600080fd5b81019080803573ffffffffffffffffffffffffffffffffffffffff1690602001909291908035906020019064010000000081111561017a57600080fd5b82018360208201111561018c57600080fd5b803590602001918460018302840111640100000000831117156101ae57600080fd5b9091929391929390803590602001909291905050506103c6565b005b3480156101d657600080fd5b5061026e600480360360408110156101ed57600080fd5b81019080803573ffffffffffffffffffffffffffffffffffffffff1690602001909291908035906020019064010000000081111561022a57600080fd5b82018360208201111561023c57600080fd5b8035906020019184600183028401116401000000008311171561025e57600080fd5b909192939192939050505061058b565b005b34801561027c57600080fd5b506103146004803603604081101561029357600080fd5b81019080803573ffffffffffffffffffffffffffffffffffffffff169060200190929190803590602001906401000000008111156102d057600080fd5b8201836020820111156102e257600080fd5b8035906020019184600183028401116401000000008311171561030457600080fd5b909192939192939050505061074e565b005b34801561032257600080fd5b5061032b610911565b6040518080602001828103825283818151815260200191508051906020019080838360005b8381101561036b578082015181840152602081019050610350565b50505050905090810190601f1680156103985780820380516001836020036101000a031916815260200191505b509250505060405180910390f35b60006103b1826109af565b9050919050565b6103c282826109c2565b5050565b60606104178585858080601f016020809104026020016040519081016040528093929190818152602001838380828437600081840152601f19601f8201169050808301925050505050505084610afc565b90507fe518073da644d0626295bee74d5d5c51447a33857c62913bb30f35e2fba3db7c81806020019051602081101561044f57600080fd5b810190808051604051939291908464010000000082111561046f57600080fd5b8382019150602082018581111561048557600080fd5b82518660018202830111640100000000821117156104a257600080fd5b8083526020830192505050908051906020019080838360005b838110156104d65780820151818401526020810190506104bb565b50505050905090810190601f1680156105035780820380516001836020036101000a031916815260200191505b506040525050506040518080602001828103825283818151815260200191508051906020019080838360005b8381101561054a57808201518184015260208101905061052f565b50505050905090810190601f1680156105775780820380516001836020036101000a031916815260200191505b509250505060405180910390a15050505050565b60606105db8484848080601f016020809104026020016040519081016040528093929190818152602001838380828437600081840152601f19601f82011690508083019250505050505050610b2b565b90507fe518073da644d0626295bee74d5d5c51447a33857c62913bb30f35e2fba3db7c81806020019051602081101561061357600080fd5b810190808051604051939291908464010000000082111561063357600080fd5b8382019150602082018581111561064957600080fd5b825186600182028301116401000000008211171561066657600080fd5b8083526020830192505050908051906020019080838360005b8381101561069a57808201518184015260208101905061067f565b50505050905090810190601f1680156106c75780820380516001836020036101000a031916815260200191505b506040525050506040518080602001828103825283818151815260200191508051906020019080838360005b8381101561070e5780820151818401526020810190506106f3565b50505050905090810190601f16801561073b5780820380516001836020036101000a031916815260200191505b509250505060405180910390a150505050565b606061079e8484848080601f016020809104026020016040519081016040528093929190818152602001838380828437600081840152601f19601f82011690508083019250505050505050610b75565b90507fe518073da644d0626295bee74d5d5c51447a33857c62913bb30f35e2fba3db7c8180602001905160208110156107d657600080fd5b81019080805160405193929190846401000000008211156107f657600080fd5b8382019150602082018581111561080c57600080fd5b825186600182028301116401000000008211171561082957600080fd5b8083526020830192505050908051906020019080838360005b8381101561085d578082015181840152602081019050610842565b50505050905090810190601f16801561088a5780820380516001836020036101000a031916815260200191505b506040525050506040518080602001828103825283818151815260200191508051906020019080838360005b838110156108d15780820151818401526020810190506108b6565b50505050905090810190601f1680156108fe5780820380516001836020036101000a031916815260200191505b509250505060405180910390a150505050565b60008054600181600116156101000203166002900480601f0160208091040260200160405190810160405280929190818152602001828054600181600116156101000203166002900480156109a75780601f1061097c576101008083540402835291602001916109a7565b820191906000526020600020905b81548152906001019060200180831161098a57829003601f168201915b505050505081565b600080823b905060008111915050919050565b80471015610a38576040517f08c379a000000000000000000000000000000000000000000000000000000000815260040180806020018281038252601d8152602001807f416464726573733a20696e73756666696369656e742062616c616e636500000081525060200191505060405180910390fd5b60008273ffffffffffffffffffffffffffffffffffffffff168260405180600001905060006040518083038185875af1925050503d8060008114610a98576040519150601f19603f3d011682016040523d82523d6000602084013e610a9d565b606091505b5050905080610af7576040517f08c379a000000000000000000000000000000000000000000000000000000000815260040180806020018281038252603a815260200180610f5f603a913960400191505060405180910390fd5b505050565b6060610b22848484604051806060016040528060298152602001610fbf60299139610ba2565b90509392505050565b6060610b6d83836040518060400160405280601e81526020017f416464726573733a206c6f772d6c6576656c2063616c6c206661696c65640000815250610d4b565b905092915050565b6060610b9a8383604051806060016040528060258152602001610fe860259139610d63565b905092915050565b606082471015610bfd576040517f08c379a0000000000000000000000000000000000000000000000000000000008152600401808060200182810382526026815260200180610f996026913960400191505060405180910390fd5b610c06856109af565b610c78576040517f08c379a000000000000000000000000000000000000000000000000000000000815260040180806020018281038252601d8152602001807f416464726573733a2063616c6c20746f206e6f6e2d636f6e747261637400000081525060200191505060405180910390fd5b600060608673ffffffffffffffffffffffffffffffffffffffff1685876040518082805190602001908083835b60208310610cc85780518252602082019150602081019050602083039250610ca5565b6001836020036101000a03801982511681845116808217855250505050505090500191505060006040518083038185875af1925050503d8060008114610d2a576040519150601f19603f3d011682016040523d82523d6000602084013e610d2f565b606091505b5091509150610d3f828286610e92565b92505050949350505050565b6060610d5a8484600085610ba2565b90509392505050565b6060610d6e846109af565b610dc3576040517f08c379a000000000000000000000000000000000000000000000000000000000815260040180806020018281038252602481526020018061100d6024913960400191505060405180910390fd5b600060608573ffffffffffffffffffffffffffffffffffffffff16856040518082805190602001908083835b60208310610e125780518252602082019150602081019050602083039250610def565b6001836020036101000a038019825116818451168082178552505050505050905001915050600060405180830381855afa9150503d8060008114610e72576040519150601f19603f3d011682016040523d82523d6000602084013e610e77565b606091505b5091509150610e87828286610e92565b925050509392505050565b60608315610ea257829050610f57565b600083511115610eb55782518084602001fd5b816040517f08c379a00000000000000000000000000000000000000000000000000000000081526004018080602001828103825283818151815260200191508051906020019080838360005b83811015610f1c578082015181840152602081019050610f01565b50505050905090810190601f168015610f495780820380516001836020036101000a031916815260200191505b509250505060405180910390fd5b939250505056fe416464726573733a20756e61626c6520746f2073656e642076616c75652c20726563697069656e74206d61792068617665207265766572746564416464726573733a20696e73756666696369656e742062616c616e636520666f722063616c6c416464726573733a206c6f772d6c6576656c2063616c6c20776974682076616c7565206661696c6564416464726573733a206c6f772d6c6576656c207374617469632063616c6c206661696c6564416464726573733a207374617469632063616c6c20746f206e6f6e2d636f6e7472616374a26469706673582212203099d83e26a2402349ed2df1a18a347aa03d2e8e43e2db7d0dfb1e58367c4f8864736f6c634300060c0033",
  "immutableReferences": {},
  "source": "// SPDX-License-Identifier: MIT\n\npragma solidity >=0.6.0 <0.8.0;\n\nimport \"../utils/Address.sol\";\n\ncontract AddressImpl {\n    string public sharedAnswer;\n\n    event CallReturnValue(string data);\n\n    function isContract(address account) external view returns (bool) {\n        return Address.isContract(account);\n    }\n\n    function sendValue(address payable receiver, uint256 amount) external {\n        Address.sendValue(receiver, amount);\n    }\n\n    function functionCall(address target, bytes calldata data) external {\n        bytes memory returnData = Address.functionCall(target, data);\n        emit CallReturnValue(abi.decode(returnData, (string)));\n    }\n\n    function functionCallWithValue(address target, bytes calldata data, uint256 value) external payable {\n        bytes memory returnData = Address.functionCallWithValue(target, data, value);\n        emit CallReturnValue(abi.decode(returnData, (string)));\n    }\n\n    function functionStaticCall(address target, bytes calldata data) external {\n        bytes memory returnData = Address.functionStaticCall(target, data);\n        emit CallReturnValue(abi.decode(returnData, (string)));\n    }\n\n    // sendValue's tests require the contract to hold Ether\n    receive () external payable { }\n}\n",
  "sourcePath": "/Users/LordeYeti/Downloads/NIFTY/nftfy-v1-core/contracts/contracts/mocks/AddressImpl.sol",
  "compiler": {
    "name": "solc",
    "version": "0.6.12+commit.27d51765.Emscripten.clang"
  },
  "schemaVersion": "3.4.3",
  "updatedAt": "2021-12-09T09:51:18.626Z",
  "devdoc": {
    "kind": "dev",
    "methods": {},
    "version": 1
  },
  "userdoc": {
    "kind": "user",
    "methods": {},
    "version": 1
  }
}