{
  "contractName": "AuctionFractionalizer",
  "abi": [
    {
      "inputs": [
        {
          "internalType": "address",
          "name": "_vault",
          "type": "address"
        }
      ],
      "stateMutability": "nonpayable",
      "type": "constructor"
    },
    {
      "anonymous": false,
      "inputs": [
        {
          "indexed": true,
          "internalType": "address",
          "name": "_from",
          "type": "address"
        },
        {
          "indexed": true,
          "internalType": "address",
          "name": "_target",
          "type": "address"
        },
        {
          "indexed": true,
          "internalType": "uint256",
          "name": "_tokenId",
          "type": "uint256"
        },
        {
          "indexed": false,
          "internalType": "address",
          "name": "_fractions",
          "type": "address"
        }
      ],
      "name": "Fractionalize",
      "type": "event"
    },
    {
      "inputs": [],
      "name": "vault",
      "outputs": [
        {
          "internalType": "address",
          "name": "",
          "type": "address"
        }
      ],
      "stateMutability": "view",
      "type": "function"
    },
    {
      "inputs": [
        {
          "internalType": "address",
          "name": "_target",
          "type": "address"
        },
        {
          "internalType": "uint256",
          "name": "_tokenId",
          "type": "uint256"
        },
        {
          "internalType": "string",
          "name": "_name",
          "type": "string"
        },
        {
          "internalType": "string",
          "name": "_symbol",
          "type": "string"
        },
        {
          "internalType": "uint8",
          "name": "_decimals",
          "type": "uint8"
        },
        {
          "internalType": "uint256",
          "name": "_fractionsCount",
          "type": "uint256"
        },
        {
          "internalType": "uint256",
          "name": "_fractionPrice",
          "type": "uint256"
        },
        {
          "internalType": "address",
          "name": "_paymentToken",
          "type": "address"
        },
        {
          "internalType": "uint256",
          "name": "_kickoff",
          "type": "uint256"
        },
        {
          "internalType": "uint256",
          "name": "_duration",
          "type": "uint256"
        },
        {
          "internalType": "uint256",
          "name": "_fee",
          "type": "uint256"
        }
      ],
      "name": "fractionalize",
      "outputs": [
        {
          "internalType": "address",
          "name": "_fractions",
          "type": "address"
        }
      ],
      "stateMutability": "nonpayable",
      "type": "function"
    }
  ],
  "bytecode": "0x60a060405234801561001057600080fd5b506040516108103803806108108339818101604052602081101561003357600080fd5b810190808051906020019092919050505060016000819055508073ffffffffffffffffffffffffffffffffffffffff1660808173ffffffffffffffffffffffffffffffffffffffff1660601b815250505060805160601c61076a6100a6600039806103f95280610675525061076a6000f3fe608060405234801561001057600080fd5b50600436106100365760003560e01c80630f11cc0a1461003b578063fbfa77cf14610241575b600080fd5b610215600480360361016081101561005257600080fd5b81019080803573ffffffffffffffffffffffffffffffffffffffff169060200190929190803590602001909291908035906020019064010000000081111561009957600080fd5b8201836020820111156100ab57600080fd5b803590602001918460018302840111640100000000831117156100cd57600080fd5b91908080601f016020809104026020016040519081016040528093929190818152602001838380828437600081840152601f19601f8201169050808301925050505050505091929192908035906020019064010000000081111561013057600080fd5b82018360208201111561014257600080fd5b8035906020019184600183028401116401000000008311171561016457600080fd5b91908080601f016020809104026020016040519081016040528093929190818152602001838380828437600081840152601f19601f820116905080830192505050505050509192919290803560ff1690602001909291908035906020019092919080359060200190929190803573ffffffffffffffffffffffffffffffffffffffff169060200190929190803590602001909291908035906020019092919080359060200190929190505050610275565b604051808273ffffffffffffffffffffffffffffffffffffffff16815260200191505060405180910390f35b610249610673565b604051808273ffffffffffffffffffffffffffffffffffffffff16815260200191505060405180910390f35b6000600260005414156102f0576040517f08c379a000000000000000000000000000000000000000000000000000000000815260040180806020018281038252601f8152602001807f5265656e7472616e637947756172643a207265656e7472616e742063616c6c0081525060200191505060405180910390fd5b6002600081905550600033905060405161030990610697565b604051809103906000f080158015610325573d6000803e3d6000fd5b5091508c73ffffffffffffffffffffffffffffffffffffffff166323b872dd82848f6040518463ffffffff1660e01b8152600401808473ffffffffffffffffffffffffffffffffffffffff1681526020018373ffffffffffffffffffffffffffffffffffffffff1681526020018281526020019350505050600060405180830381600087803b1580156103b757600080fd5b505af11580156103cb573d6000803e3d6000fd5b505050508173ffffffffffffffffffffffffffffffffffffffff1663bfd0e5b4828f8f8f8f8f8f8f8f8f8f8f7f00000000000000000000000000000000000000000000000000000000000000006040518e63ffffffff1660e01b8152600401808e73ffffffffffffffffffffffffffffffffffffffff1681526020018d73ffffffffffffffffffffffffffffffffffffffff1681526020018c815260200180602001806020018b60ff1681526020018a81526020018981526020018873ffffffffffffffffffffffffffffffffffffffff1681526020018781526020018681526020018581526020018473ffffffffffffffffffffffffffffffffffffffff16815260200183810383528d818151815260200191508051906020019080838360005b838110156105085780820151818401526020810190506104ed565b50505050905090810190601f1680156105355780820380516001836020036101000a031916815260200191505b5083810382528c818151815260200191508051906020019080838360005b8381101561056e578082015181840152602081019050610553565b50505050905090810190601f16801561059b5780820380516001836020036101000a031916815260200191505b509f50505050505050505050505050505050600060405180830381600087803b1580156105c757600080fd5b505af11580156105db573d6000803e3d6000fd5b505050508b8d73ffffffffffffffffffffffffffffffffffffffff168273ffffffffffffffffffffffffffffffffffffffff167fd029fddb4b49d10f81313f01d8f764f0aa3906c322cbe3efed5f70723f6cb02e85604051808273ffffffffffffffffffffffffffffffffffffffff16815260200191505060405180910390a45060016000819055509b9a5050505050505050505050565b7f000000000000000000000000000000000000000000000000000000000000000081565b6091806106a48339019056fe6080604052348015600f57600080fd5b5060738061001e6000396000f3fe6080604052366000803760008036600073144b2d397d2ec002baae7e31abd6501b0dade4f75af43d6000803e80600081146038573d6000f35b3d6000fdfea26469706673582212204a9bb50d012d8b3baa8263b0bd55a67f79307cbc46a880e9f13f8735587fe98264736f6c634300060c0033a2646970667358221220b5849c837280887ce4e750e1cd1c926747a38d957efdd68521857a85c51ef94264736f6c634300060c0033",
  "immutableReferences": {
    "1597": [
      {
        "length": 32,
        "start": 1017
      },
      {
        "length": 32,
        "start": 1653
      }
    ]
  },
  "source": "// SPDX-License-Identifier: GPL-3.0-only\npragma solidity ^0.6.0;\n\nimport { IERC721 } from \"@openzeppelin/contracts/token/ERC721/IERC721.sol\";\nimport { ReentrancyGuard } from \"@openzeppelin/contracts/utils/ReentrancyGuard.sol\";\n\nimport { AuctionFractions } from \"./AuctionFractions.sol\";\nimport { AuctionFractionsImpl } from \"./AuctionFractionsImpl.sol\";\n\ncontract AuctionFractionalizer is ReentrancyGuard\n{\n\taddress public immutable vault;\n\n\tconstructor (address _vault) public\n\t{\n\t\tvault = _vault;\n\t}\n\n\tfunction fractionalize(address _target, uint256 _tokenId, string memory _name, string memory _symbol, uint8 _decimals, uint256 _fractionsCount, uint256 _fractionPrice, address _paymentToken, uint256 _kickoff, uint256 _duration, uint256 _fee) external nonReentrant returns (address _fractions)\n\t{\n\t\taddress _from = msg.sender;\n\t\t_fractions = address(new AuctionFractions());\n\t\tIERC721(_target).transferFrom(_from, _fractions, _tokenId);\n\t\tAuctionFractionsImpl(_fractions).initialize(_from, _target, _tokenId, _name, _symbol, _decimals, _fractionsCount, _fractionPrice, _paymentToken, _kickoff, _duration, _fee, vault);\n\t\temit Fractionalize(_from, _target, _tokenId, _fractions);\n\t\treturn _fractions;\n\t}\n\n\tevent Fractionalize(address indexed _from, address indexed _target, uint256 indexed _tokenId, address _fractions);\n}\n",
  "sourcePath": "/Users/LordeYeti/Downloads/NIFTY/nftfy-v1-core/contracts/v1.5/AuctionFractionalizer.sol",
  "compiler": {
    "name": "solc",
    "version": "0.6.12+commit.27d51765.Emscripten.clang"
  },
  "schemaVersion": "3.4.3",
  "updatedAt": "2021-12-09T10:05:44.539Z",
  "devdoc": {
    "kind": "dev",
    "methods": {},
    "version": 1
  },
  "userdoc": {
    "kind": "user",
    "methods": {},
    "version": 1
  }
}