{
  "contractName": "AuctionFractionsImpl",
  "abi": [
    {
      "inputs": [],
      "stateMutability": "nonpayable",
      "type": "constructor"
    },
    {
      "anonymous": false,
      "inputs": [
        {
          "indexed": true,
          "internalType": "address",
          "name": "owner",
          "type": "address"
        },
        {
          "indexed": true,
          "internalType": "address",
          "name": "spender",
          "type": "address"
        },
        {
          "indexed": false,
          "internalType": "uint256",
          "name": "value",
          "type": "uint256"
        }
      ],
      "name": "Approval",
      "type": "event"
    },
    {
      "anonymous": false,
      "inputs": [
        {
          "indexed": true,
          "internalType": "address",
          "name": "_from",
          "type": "address"
        },
        {
          "indexed": false,
          "internalType": "uint256",
          "name": "_oldFractionPrice",
          "type": "uint256"
        },
        {
          "indexed": false,
          "internalType": "uint256",
          "name": "_newFractionPrice",
          "type": "uint256"
        },
        {
          "indexed": false,
          "internalType": "uint256",
          "name": "_fractionsCount",
          "type": "uint256"
        },
        {
          "indexed": false,
          "internalType": "uint256",
          "name": "_bidAmount",
          "type": "uint256"
        }
      ],
      "name": "Bid",
      "type": "event"
    },
    {
      "anonymous": false,
      "inputs": [
        {
          "indexed": true,
          "internalType": "address",
          "name": "_from",
          "type": "address"
        }
      ],
      "name": "Cancel",
      "type": "event"
    },
    {
      "anonymous": false,
      "inputs": [
        {
          "indexed": true,
          "internalType": "address",
          "name": "_from",
          "type": "address"
        },
        {
          "indexed": false,
          "internalType": "uint256",
          "name": "_fractionsCount",
          "type": "uint256"
        },
        {
          "indexed": false,
          "internalType": "uint256",
          "name": "_claimAmount",
          "type": "uint256"
        }
      ],
      "name": "Claim",
      "type": "event"
    },
    {
      "anonymous": false,
      "inputs": [
        {
          "indexed": true,
          "internalType": "address",
          "name": "_from",
          "type": "address"
        }
      ],
      "name": "Redeem",
      "type": "event"
    },
    {
      "anonymous": false,
      "inputs": [
        {
          "indexed": true,
          "internalType": "address",
          "name": "from",
          "type": "address"
        },
        {
          "indexed": true,
          "internalType": "address",
          "name": "to",
          "type": "address"
        },
        {
          "indexed": false,
          "internalType": "uint256",
          "name": "value",
          "type": "uint256"
        }
      ],
      "name": "Transfer",
      "type": "event"
    },
    {
      "anonymous": false,
      "inputs": [
        {
          "indexed": true,
          "internalType": "address",
          "name": "_from",
          "type": "address"
        },
        {
          "indexed": false,
          "internalType": "uint256",
          "name": "_oldFractionPrice",
          "type": "uint256"
        },
        {
          "indexed": false,
          "internalType": "uint256",
          "name": "_newFractionPrice",
          "type": "uint256"
        }
      ],
      "name": "UpdatePrice",
      "type": "event"
    },
    {
      "inputs": [
        {
          "internalType": "address",
          "name": "owner",
          "type": "address"
        },
        {
          "internalType": "address",
          "name": "spender",
          "type": "address"
        }
      ],
      "name": "allowance",
      "outputs": [
        {
          "internalType": "uint256",
          "name": "",
          "type": "uint256"
        }
      ],
      "stateMutability": "view",
      "type": "function"
    },
    {
      "inputs": [
        {
          "internalType": "address",
          "name": "spender",
          "type": "address"
        },
        {
          "internalType": "uint256",
          "name": "amount",
          "type": "uint256"
        }
      ],
      "name": "approve",
      "outputs": [
        {
          "internalType": "bool",
          "name": "",
          "type": "bool"
        }
      ],
      "stateMutability": "nonpayable",
      "type": "function"
    },
    {
      "inputs": [
        {
          "internalType": "address",
          "name": "account",
          "type": "address"
        }
      ],
      "name": "balanceOf",
      "outputs": [
        {
          "internalType": "uint256",
          "name": "",
          "type": "uint256"
        }
      ],
      "stateMutability": "view",
      "type": "function"
    },
    {
      "inputs": [],
      "name": "bidder",
      "outputs": [
        {
          "internalType": "address payable",
          "name": "",
          "type": "address"
        }
      ],
      "stateMutability": "view",
      "type": "function"
    },
    {
      "inputs": [],
      "name": "cutoff",
      "outputs": [
        {
          "internalType": "uint256",
          "name": "",
          "type": "uint256"
        }
      ],
      "stateMutability": "view",
      "type": "function"
    },
    {
      "inputs": [],
      "name": "decimals",
      "outputs": [
        {
          "internalType": "uint8",
          "name": "",
          "type": "uint8"
        }
      ],
      "stateMutability": "view",
      "type": "function"
    },
    {
      "inputs": [
        {
          "internalType": "address",
          "name": "spender",
          "type": "address"
        },
        {
          "internalType": "uint256",
          "name": "subtractedValue",
          "type": "uint256"
        }
      ],
      "name": "decreaseAllowance",
      "outputs": [
        {
          "internalType": "bool",
          "name": "",
          "type": "bool"
        }
      ],
      "stateMutability": "nonpayable",
      "type": "function"
    },
    {
      "inputs": [],
      "name": "duration",
      "outputs": [
        {
          "internalType": "uint256",
          "name": "",
          "type": "uint256"
        }
      ],
      "stateMutability": "view",
      "type": "function"
    },
    {
      "inputs": [],
      "name": "fee",
      "outputs": [
        {
          "internalType": "uint256",
          "name": "",
          "type": "uint256"
        }
      ],
      "stateMutability": "view",
      "type": "function"
    },
    {
      "inputs": [],
      "name": "fractionPrice",
      "outputs": [
        {
          "internalType": "uint256",
          "name": "",
          "type": "uint256"
        }
      ],
      "stateMutability": "view",
      "type": "function"
    },
    {
      "inputs": [],
      "name": "fractionsCount",
      "outputs": [
        {
          "internalType": "uint256",
          "name": "",
          "type": "uint256"
        }
      ],
      "stateMutability": "view",
      "type": "function"
    },
    {
      "inputs": [
        {
          "internalType": "address",
          "name": "spender",
          "type": "address"
        },
        {
          "internalType": "uint256",
          "name": "addedValue",
          "type": "uint256"
        }
      ],
      "name": "increaseAllowance",
      "outputs": [
        {
          "internalType": "bool",
          "name": "",
          "type": "bool"
        }
      ],
      "stateMutability": "nonpayable",
      "type": "function"
    },
    {
      "inputs": [],
      "name": "kickoff",
      "outputs": [
        {
          "internalType": "uint256",
          "name": "",
          "type": "uint256"
        }
      ],
      "stateMutability": "view",
      "type": "function"
    },
    {
      "inputs": [],
      "name": "name",
      "outputs": [
        {
          "internalType": "string",
          "name": "",
          "type": "string"
        }
      ],
      "stateMutability": "view",
      "type": "function"
    },
    {
      "inputs": [
        {
          "internalType": "address",
          "name": "",
          "type": "address"
        },
        {
          "internalType": "address",
          "name": "",
          "type": "address"
        },
        {
          "internalType": "uint256",
          "name": "",
          "type": "uint256"
        },
        {
          "internalType": "bytes",
          "name": "",
          "type": "bytes"
        }
      ],
      "name": "onERC721Received",
      "outputs": [
        {
          "internalType": "bytes4",
          "name": "",
          "type": "bytes4"
        }
      ],
      "stateMutability": "nonpayable",
      "type": "function"
    },
    {
      "inputs": [],
      "name": "paymentToken",
      "outputs": [
        {
          "internalType": "address",
          "name": "",
          "type": "address"
        }
      ],
      "stateMutability": "view",
      "type": "function"
    },
    {
      "inputs": [],
      "name": "released",
      "outputs": [
        {
          "internalType": "bool",
          "name": "",
          "type": "bool"
        }
      ],
      "stateMutability": "view",
      "type": "function"
    },
    {
      "inputs": [],
      "name": "symbol",
      "outputs": [
        {
          "internalType": "string",
          "name": "",
          "type": "string"
        }
      ],
      "stateMutability": "view",
      "type": "function"
    },
    {
      "inputs": [],
      "name": "target",
      "outputs": [
        {
          "internalType": "address",
          "name": "",
          "type": "address"
        }
      ],
      "stateMutability": "view",
      "type": "function"
    },
    {
      "inputs": [],
      "name": "tokenId",
      "outputs": [
        {
          "internalType": "uint256",
          "name": "",
          "type": "uint256"
        }
      ],
      "stateMutability": "view",
      "type": "function"
    },
    {
      "inputs": [],
      "name": "totalSupply",
      "outputs": [
        {
          "internalType": "uint256",
          "name": "",
          "type": "uint256"
        }
      ],
      "stateMutability": "view",
      "type": "function"
    },
    {
      "inputs": [
        {
          "internalType": "address",
          "name": "recipient",
          "type": "address"
        },
        {
          "internalType": "uint256",
          "name": "amount",
          "type": "uint256"
        }
      ],
      "name": "transfer",
      "outputs": [
        {
          "internalType": "bool",
          "name": "",
          "type": "bool"
        }
      ],
      "stateMutability": "nonpayable",
      "type": "function"
    },
    {
      "inputs": [
        {
          "internalType": "address",
          "name": "sender",
          "type": "address"
        },
        {
          "internalType": "address",
          "name": "recipient",
          "type": "address"
        },
        {
          "internalType": "uint256",
          "name": "amount",
          "type": "uint256"
        }
      ],
      "name": "transferFrom",
      "outputs": [
        {
          "internalType": "bool",
          "name": "",
          "type": "bool"
        }
      ],
      "stateMutability": "nonpayable",
      "type": "function"
    },
    {
      "inputs": [],
      "name": "vault",
      "outputs": [
        {
          "internalType": "address",
          "name": "",
          "type": "address"
        }
      ],
      "stateMutability": "view",
      "type": "function"
    },
    {
      "inputs": [],
      "name": "__name",
      "outputs": [
        {
          "internalType": "string",
          "name": "_name",
          "type": "string"
        }
      ],
      "stateMutability": "view",
      "type": "function"
    },
    {
      "inputs": [],
      "name": "__symbol",
      "outputs": [
        {
          "internalType": "string",
          "name": "_symbol",
          "type": "string"
        }
      ],
      "stateMutability": "view",
      "type": "function"
    },
    {
      "inputs": [
        {
          "internalType": "address",
          "name": "_from",
          "type": "address"
        },
        {
          "internalType": "address",
          "name": "_target",
          "type": "address"
        },
        {
          "internalType": "uint256",
          "name": "_tokenId",
          "type": "uint256"
        },
        {
          "internalType": "string",
          "name": "_name",
          "type": "string"
        },
        {
          "internalType": "string",
          "name": "_symbol",
          "type": "string"
        },
        {
          "internalType": "uint8",
          "name": "_decimals",
          "type": "uint8"
        },
        {
          "internalType": "uint256",
          "name": "_fractionsCount",
          "type": "uint256"
        },
        {
          "internalType": "uint256",
          "name": "_fractionPrice",
          "type": "uint256"
        },
        {
          "internalType": "address",
          "name": "_paymentToken",
          "type": "address"
        },
        {
          "internalType": "uint256",
          "name": "_kickoff",
          "type": "uint256"
        },
        {
          "internalType": "uint256",
          "name": "_duration",
          "type": "uint256"
        },
        {
          "internalType": "uint256",
          "name": "_fee",
          "type": "uint256"
        },
        {
          "internalType": "address",
          "name": "_vault",
          "type": "address"
        }
      ],
      "name": "initialize",
      "outputs": [],
      "stateMutability": "nonpayable",
      "type": "function"
    },
    {
      "inputs": [],
      "name": "status",
      "outputs": [
        {
          "internalType": "string",
          "name": "_status",
          "type": "string"
        }
      ],
      "stateMutability": "view",
      "type": "function"
    },
    {
      "inputs": [
        {
          "internalType": "address",
          "name": "_from",
          "type": "address"
        }
      ],
      "name": "isOwner",
      "outputs": [
        {
          "internalType": "bool",
          "name": "_soleOwner",
          "type": "bool"
        }
      ],
      "stateMutability": "view",
      "type": "function"
    },
    {
      "inputs": [],
      "name": "reservePrice",
      "outputs": [
        {
          "internalType": "uint256",
          "name": "_reservePrice",
          "type": "uint256"
        }
      ],
      "stateMutability": "view",
      "type": "function"
    },
    {
      "inputs": [
        {
          "internalType": "address",
          "name": "_from",
          "type": "address"
        }
      ],
      "name": "bidRangeOf",
      "outputs": [
        {
          "internalType": "uint256",
          "name": "_minFractionPrice",
          "type": "uint256"
        },
        {
          "internalType": "uint256",
          "name": "_maxFractionPrice",
          "type": "uint256"
        }
      ],
      "stateMutability": "view",
      "type": "function"
    },
    {
      "inputs": [
        {
          "internalType": "address",
          "name": "_from",
          "type": "address"
        },
        {
          "internalType": "uint256",
          "name": "_newFractionPrice",
          "type": "uint256"
        }
      ],
      "name": "bidAmountOf",
      "outputs": [
        {
          "internalType": "uint256",
          "name": "_bidAmount",
          "type": "uint256"
        }
      ],
      "stateMutability": "view",
      "type": "function"
    },
    {
      "inputs": [],
      "name": "vaultBalance",
      "outputs": [
        {
          "internalType": "uint256",
          "name": "_vaultBalance",
          "type": "uint256"
        }
      ],
      "stateMutability": "view",
      "type": "function"
    },
    {
      "inputs": [
        {
          "internalType": "address",
          "name": "_from",
          "type": "address"
        }
      ],
      "name": "vaultBalanceOf",
      "outputs": [
        {
          "internalType": "uint256",
          "name": "_vaultBalanceOf",
          "type": "uint256"
        }
      ],
      "stateMutability": "view",
      "type": "function"
    },
    {
      "inputs": [
        {
          "internalType": "uint256",
          "name": "_newFractionPrice",
          "type": "uint256"
        }
      ],
      "name": "updatePrice",
      "outputs": [],
      "stateMutability": "nonpayable",
      "type": "function"
    },
    {
      "inputs": [],
      "name": "cancel",
      "outputs": [],
      "stateMutability": "nonpayable",
      "type": "function"
    },
    {
      "inputs": [
        {
          "internalType": "uint256",
          "name": "_newFractionPrice",
          "type": "uint256"
        }
      ],
      "name": "bid",
      "outputs": [],
      "stateMutability": "payable",
      "type": "function"
    },
    {
      "inputs": [],
      "name": "redeem",
      "outputs": [],
      "stateMutability": "nonpayable",
      "type": "function"
    },
    {
      "inputs": [],
      "name": "claim",
      "outputs": [],
      "stateMutability": "nonpayable",
      "type": "function"
    }
  ],
  "bytecode": "0x60806040523480156200001157600080fd5b506040518060400160405280600981526020017f4672616374696f6e7300000000000000000000000000000000000000000000008152506040518060400160405280600481526020017f46524143000000000000000000000000000000000000000000000000000000008152508160039080519060200190620000969291906200013d565b508060049080519060200190620000af9291906200013d565b506012600560006101000a81548160ff021916908360ff160217905550505060016006819055507fffffffffffffffffffffffffffffffffffffffffffffffffffffffffffffffff600760006101000a81548173ffffffffffffffffffffffffffffffffffffffff021916908373ffffffffffffffffffffffffffffffffffffffff160217905550620001e3565b828054600181600116156101000203166002900490600052602060002090601f016020900481019282601f106200018057805160ff1916838001178555620001b1565b82800160010185558215620001b1579182015b82811115620001b057825182559160200191906001019062000193565b5b509050620001c09190620001c4565b5090565b5b80821115620001df576000816000905550600101620001c5565b5090565b6150b880620001f36000396000f3fe6080604052600436106102305760003560e01c806356953bda1161012e578063be040fb0116100ab578063dd62ed3e1161006f578063dd62ed3e14610fcb578063ddca3f4314611050578063ea8a1af01461107b578063f496d88214611092578063fbfa77cf146110d357610230565b8063be040fb014610cb3578063bfd0e5b414610cca578063c4c1092b14610ef3578063d4b8399214610f5f578063db2e1eed14610fa057610230565b806395d89b41116100f257806395d89b4114610ae95780639613252114610b79578063980f62b114610ba6578063a457c2d714610bd1578063a9059cbb14610c4257610230565b806356953bda146108fe57806370a08231146109295780637269ada11461098e57806382215cb114610a1e5780638d6cc56d14610aae57610230565b80632f54bf6e116101bc578063395093511161018057806339509351146107ae578063396742871461081f578063454a2ab31461088e5780634e71d92d146108bc57806354b02ba4146108d357610230565b80632f54bf6e146106485780633013ce29146106af578063313ce567146106f0578063313f85e81461071e578063383d42011461078357610230565b8063150b7a0211610203578063150b7a021461038c57806317d70f7c146104d157806318160ddd146104fc578063200d2ed21461052757806323b872dd146105b757610230565b806306fdde0314610235578063095ea7b3146102c55780630bf6cc08146103365780630fb5a6b414610361575b600080fd5b34801561024157600080fd5b5061024a611114565b6040518080602001828103825283818151815260200191508051906020019080838360005b8381101561028a57808201518184015260208101905061026f565b50505050905090810190601f1680156102b75780820380516001836020036101000a031916815260200191505b509250505060405180910390f35b3480156102d157600080fd5b5061031e600480360360408110156102e857600080fd5b81019080803573ffffffffffffffffffffffffffffffffffffffff169060200190929190803590602001909291905050506111b6565b60405180821515815260200191505060405180910390f35b34801561034257600080fd5b5061034b6111d4565b6040518082815260200191505060405180910390f35b34801561036d57600080fd5b50610376611200565b6040518082815260200191505060405180910390f35b34801561039857600080fd5b5061049c600480360360808110156103af57600080fd5b81019080803573ffffffffffffffffffffffffffffffffffffffff169060200190929190803573ffffffffffffffffffffffffffffffffffffffff169060200190929190803590602001909291908035906020019064010000000081111561041657600080fd5b82018360208201111561042857600080fd5b8035906020019184600183028401116401000000008311171561044a57600080fd5b91908080601f016020809104026020016040519081016040528093929190818152602001838380828437600081840152601f19601f820116905080830192505050505050509192919290505050611206565b60405180827bffffffffffffffffffffffffffffffffffffffffffffffffffffffff1916815260200191505060405180910390f35b3480156104dd57600080fd5b506104e661121a565b6040518082815260200191505060405180910390f35b34801561050857600080fd5b50610511611220565b6040518082815260200191505060405180910390f35b34801561053357600080fd5b5061053c61122a565b6040518080602001828103825283818151815260200191508051906020019080838360005b8381101561057c578082015181840152602081019050610561565b50505050905090810190601f1680156105a95780820380516001836020036101000a031916815260200191505b509250505060405180910390f35b3480156105c357600080fd5b50610630600480360360608110156105da57600080fd5b81019080803573ffffffffffffffffffffffffffffffffffffffff169060200190929190803573ffffffffffffffffffffffffffffffffffffffff16906020019092919080359060200190929190505050611383565b60405180821515815260200191505060405180910390f35b34801561065457600080fd5b506106976004803603602081101561066b57600080fd5b81019080803573ffffffffffffffffffffffffffffffffffffffff16906020019092919050505061145c565b60405180821515815260200191505060405180910390f35b3480156106bb57600080fd5b506106c46114cf565b604051808273ffffffffffffffffffffffffffffffffffffffff16815260200191505060405180910390f35b3480156106fc57600080fd5b506107056114f5565b604051808260ff16815260200191505060405180910390f35b34801561072a57600080fd5b5061076d6004803603602081101561074157600080fd5b81019080803573ffffffffffffffffffffffffffffffffffffffff16906020019092919050505061150c565b6040518082815260200191505060405180910390f35b34801561078f57600080fd5b5061079861153b565b6040518082815260200191505060405180910390f35b3480156107ba57600080fd5b50610807600480360360408110156107d157600080fd5b81019080803573ffffffffffffffffffffffffffffffffffffffff16906020019092919080359060200190929190505050611541565b60405180821515815260200191505060405180910390f35b34801561082b57600080fd5b506108786004803603604081101561084257600080fd5b81019080803573ffffffffffffffffffffffffffffffffffffffff169060200190929190803590602001909291905050506115f4565b6040518082815260200191505060405180910390f35b6108ba600480360360208110156108a457600080fd5b81019080803590602001909291905050506116f7565b005b3480156108c857600080fd5b506108d1611d14565b005b3480156108df57600080fd5b506108e8611f47565b6040518082815260200191505060405180910390f35b34801561090a57600080fd5b50610913611f4d565b6040518082815260200191505060405180910390f35b34801561093557600080fd5b506109786004803603602081101561094c57600080fd5b81019080803573ffffffffffffffffffffffffffffffffffffffff169060200190929190505050611f53565b6040518082815260200191505060405180910390f35b34801561099a57600080fd5b506109a3611f9b565b6040518080602001828103825283818151815260200191508051906020019080838360005b838110156109e35780820151818401526020810190506109c8565b50505050905090810190601f168015610a105780820380516001836020036101000a031916815260200191505b509250505060405180910390f35b348015610a2a57600080fd5b50610a336121bb565b6040518080602001828103825283818151815260200191508051906020019080838360005b83811015610a73578082015181840152602081019050610a58565b50505050905090810190601f168015610aa05780820380516001836020036101000a031916815260200191505b509250505060405180910390f35b348015610aba57600080fd5b50610ae760048036036020811015610ad157600080fd5b810190808035906020019092919050505061238b565b005b348015610af557600080fd5b50610afe6124f8565b6040518080602001828103825283818151815260200191508051906020019080838360005b83811015610b3e578082015181840152602081019050610b23565b50505050905090810190601f168015610b6b5780820380516001836020036101000a031916815260200191505b509250505060405180910390f35b348015610b8557600080fd5b50610b8e61259a565b60405180821515815260200191505060405180910390f35b348015610bb257600080fd5b50610bbb6125ad565b6040518082815260200191505060405180910390f35b348015610bdd57600080fd5b50610c2a60048036036040811015610bf457600080fd5b81019080803573ffffffffffffffffffffffffffffffffffffffff169060200190929190803590602001909291905050506125b3565b60405180821515815260200191505060405180910390f35b348015610c4e57600080fd5b50610c9b60048036036040811015610c6557600080fd5b81019080803573ffffffffffffffffffffffffffffffffffffffff16906020019092919080359060200190929190505050612680565b60405180821515815260200191505060405180910390f35b348015610cbf57600080fd5b50610cc861269e565b005b348015610cd657600080fd5b50610ef160048036036101a0811015610cee57600080fd5b81019080803573ffffffffffffffffffffffffffffffffffffffff169060200190929190803573ffffffffffffffffffffffffffffffffffffffff1690602001909291908035906020019092919080359060200190640100000000811115610d5557600080fd5b820183602082011115610d6757600080fd5b80359060200191846001830284011164010000000083111715610d8957600080fd5b91908080601f016020809104026020016040519081016040528093929190818152602001838380828437600081840152601f19601f82011690508083019250505050505050919291929080359060200190640100000000811115610dec57600080fd5b820183602082011115610dfe57600080fd5b80359060200191846001830284011164010000000083111715610e2057600080fd5b91908080601f016020809104026020016040519081016040528093929190818152602001838380828437600081840152601f19601f820116905080830192505050505050509192919290803560ff1690602001909291908035906020019092919080359060200190929190803573ffffffffffffffffffffffffffffffffffffffff169060200190929190803590602001909291908035906020019092919080359060200190929190803573ffffffffffffffffffffffffffffffffffffffff1690602001909291905050506129ad565b005b348015610eff57600080fd5b50610f4260048036036020811015610f1657600080fd5b81019080803573ffffffffffffffffffffffffffffffffffffffff169060200190929190505050613165565b604051808381526020018281526020019250505060405180910390f35b348015610f6b57600080fd5b50610f74613325565b604051808273ffffffffffffffffffffffffffffffffffffffff16815260200191505060405180910390f35b348015610fac57600080fd5b50610fb561334b565b6040518082815260200191505060405180910390f35b348015610fd757600080fd5b5061103a60048036036040811015610fee57600080fd5b81019080803573ffffffffffffffffffffffffffffffffffffffff169060200190929190803573ffffffffffffffffffffffffffffffffffffffff169060200190929190505050613359565b6040518082815260200191505060405180910390f35b34801561105c57600080fd5b506110656133e0565b6040518082815260200191505060405180910390f35b34801561108757600080fd5b506110906133e6565b005b34801561109e57600080fd5b506110a76135c5565b604051808273ffffffffffffffffffffffffffffffffffffffff16815260200191505060405180910390f35b3480156110df57600080fd5b506110e86135eb565b604051808273ffffffffffffffffffffffffffffffffffffffff16815260200191505060405180910390f35b606060038054600181600116156101000203166002900480601f0160208091040260200160405190810160405280929190818152602001828054600181600116156101000203166002900480156111ac5780601f10611181576101008083540402835291602001916111ac565b820191906000526020600020905b81548152906001019060200180831161118f57829003601f168201915b5050505050905090565b60006111ca6111c3613611565b8484613619565b6001905092915050565b600060105442116111e857600090506111fd565b60006111f2611220565b9050600a5481029150505b90565b600d5481565b600063150b7a0260e01b9050949350505050565b60085481565b6000600254905090565b6060600073ffffffffffffffffffffffffffffffffffffffff16601160009054906101000a900473ffffffffffffffffffffffffffffffffffffffff1673ffffffffffffffffffffffffffffffffffffffff16146113025760105442116112c6576040518060400160405280600781526020017f41554354494f4e000000000000000000000000000000000000000000000000008152506112fd565b6040518060400160405280600481526020017f534f4c44000000000000000000000000000000000000000000000000000000008152505b61137e565b600c544210611346576040518060400160405280600581526020017f4f4646455200000000000000000000000000000000000000000000000000000081525061137d565b6040518060400160405280600581526020017f50415553450000000000000000000000000000000000000000000000000000008152505b5b905090565b6000611390848484613810565b6114518461139c613611565b61144c85604051806060016040528060288152602001614fa260289139600160008b73ffffffffffffffffffffffffffffffffffffffff1673ffffffffffffffffffffffffffffffffffffffff1681526020019081526020016000206000611402613611565b73ffffffffffffffffffffffffffffffffffffffff1673ffffffffffffffffffffffffffffffffffffffff16815260200190815260200160002054613ad19092919063ffffffff16565b613619565b600190509392505050565b60008073ffffffffffffffffffffffffffffffffffffffff16601160009054906101000a900473ffffffffffffffffffffffffffffffffffffffff1673ffffffffffffffffffffffffffffffffffffffff161480156114c857506009546012546114c584611f53565b01145b9050919050565b600b60009054906101000a900473ffffffffffffffffffffffffffffffffffffffff1681565b6000600560009054906101000a900460ff16905090565b600060105442116115205760009050611536565b600061152b83611f53565b9050600a5481029150505b919050565b60095481565b60006115ea61154e613611565b846115e5856001600061155f613611565b73ffffffffffffffffffffffffffffffffffffffff1673ffffffffffffffffffffffffffffffffffffffff16815260200190815260200160002060008973ffffffffffffffffffffffffffffffffffffffff1673ffffffffffffffffffffffffffffffffffffffff16815260200190815260200160002054613b9190919063ffffffff16565b613619565b6001905092915050565b600042600c541115801561160a57506010544211155b61167c576040517f08c379a000000000000000000000000000000000000000000000000000000000815260040180806020018281038252600d8152602001807f6e6f7420617661696c61626c650000000000000000000000000000000000000081525060200191505060405180910390fd5b600061168784611f53565b90508373ffffffffffffffffffffffffffffffffffffffff16601160009054906101000a900473ffffffffffffffffffffffffffffffffffffffff1673ffffffffffffffffffffffffffffffffffffffff1614156116e757601254810190505b8281600954030291505092915050565b60026006541415611770576040517f08c379a000000000000000000000000000000000000000000000000000000000815260040180806020018281038252601f8152602001807f5265656e7472616e637947756172643a207265656e7472616e742063616c6c0081525060200191505060405180910390fd5b600260068190555042600c541115801561178c57506010544211155b6117fe576040517f08c379a000000000000000000000000000000000000000000000000000000000815260040180806020018281038252600d8152602001807f6e6f7420617661696c61626c650000000000000000000000000000000000000081525060200191505060405180910390fd5b600033905060003490508260095484600954028161181857fe5b041461188c576040517f08c379a000000000000000000000000000000000000000000000000000000000815260040180806020018281038252600e8152602001807f7072696365206f766572666c6f7700000000000000000000000000000000000081525060200191505060405180910390fd5b6000600a54905060008073ffffffffffffffffffffffffffffffffffffffff16601160009054906101000a900473ffffffffffffffffffffffffffffffffffffffff1673ffffffffffffffffffffffffffffffffffffffff161415611a3b5761191a30600f60009054906101000a900473ffffffffffffffffffffffffffffffffffffffff16601254613810565b61192384611f53565b905060008182029050828610156119a2576040517f08c379a000000000000000000000000000000000000000000000000000000000815260040180806020018281038252600d8152602001807f62656c6f77206d696e696d756d0000000000000000000000000000000000000081525060200191505060405180910390fd5b60095460095402606482020183026064828802021115611a2a576040517f08c379a000000000000000000000000000000000000000000000000000000000815260040180806020018281038252600d8152602001807f61626f7665206d6178696d756d0000000000000000000000000000000000000081525060200191505060405180910390fd5b600d54420160108190555050611bf9565b60006012541115611a7657611a7530601160009054906101000a900473ffffffffffffffffffffffffffffffffffffffff16601254613810565b5b611ac7600b60009054906101000a900473ffffffffffffffffffffffffffffffffffffffff16601160009054906101000a900473ffffffffffffffffffffffffffffffffffffffff16601354613c19565b611ad084611f53565b905060008182029050600b8302600a87021015611b55576040517f08c379a000000000000000000000000000000000000000000000000000000000815260040180806020018281038252600d8152602001807f62656c6f77206d696e696d756d0000000000000000000000000000000000000081525060200191505060405180910390fd5b60095460095402606e82020183026064828802021115611bdd576040517f08c379a000000000000000000000000000000000000000000000000000000000815260040180806020018281038252600d8152602001807f61626f7665206d6178696d756d0000000000000000000000000000000000000081525060200191505060405180910390fd5b61038442016010541015611bf75761038442016010819055505b505b83601160006101000a81548173ffffffffffffffffffffffffffffffffffffffff021916908373ffffffffffffffffffffffffffffffffffffffff16021790555084600a8190555060008582600954030290506000821115611c6157611c60853084613810565b5b611c90600b60009054906101000a900473ffffffffffffffffffffffffffffffffffffffff1686863085613ccb565b81601281905550806013819055508473ffffffffffffffffffffffffffffffffffffffff167f09e65a902e7388ffa70e88675649fe17489c4f767bb171ca8ff56007be52e0d7848885856040518085815260200184815260200183815260200182815260200194505050505060405180910390a25050505050600160068190555050565b60026006541415611d8d576040517f08c379a000000000000000000000000000000000000000000000000000000000815260040180806020018281038252601f8152602001807f5265656e7472616e637947756172643a207265656e7472616e742063616c6c0081525060200191505060405180910390fd5b60026006819055506000611da033611f53565b11611e13576040517f08c379a000000000000000000000000000000000000000000000000000000000815260040180806020018281038252600d8152602001807f6163636573732064656e6965640000000000000000000000000000000000000081525060200191505060405180910390fd5b6010544211611e8a576040517f08c379a000000000000000000000000000000000000000000000000000000000815260040180806020018281038252600d8152602001807f6e6f7420617661696c61626c650000000000000000000000000000000000000081525060200191505060405180910390fd5b60003390506000611e9a82611f53565b90506000600a5482029050611eaf8383613ea0565b611edc600b60009054906101000a900473ffffffffffffffffffffffffffffffffffffffff168483613c19565b8273ffffffffffffffffffffffffffffffffffffffff167f34fcbac0073d7c3d388e51312faf357774904998eeb8fca628b9e6f65ee1cbf78383604051808381526020018281526020019250505060405180910390a2611f3a614064565b5050506001600681905550565b60105481565b600a5481565b60008060008373ffffffffffffffffffffffffffffffffffffffff1673ffffffffffffffffffffffffffffffffffffffff168152602001908152602001600020549050919050565b6060600060148054600181600116156101000203166002900490501461205d5760148054600181600116156101000203166002900480601f0160208091040260200160405190810160405280929190818152602001828054600181600116156101000203166002900480156120515780601f1061202657610100808354040283529160200191612051565b820191906000526020600020905b81548152906001019060200180831161203457829003601f168201915b505050505090506121b8565b61209e600760009054906101000a900473ffffffffffffffffffffffffffffffffffffffff1673ffffffffffffffffffffffffffffffffffffffff166140ae565b6120a9600854614200565b6040516020018083805190602001908083835b602083106120df57805182526020820191506020810190506020830392506120bc565b6001836020036101000a038019825116818451168082178552505050505050905001807f202300000000000000000000000000000000000000000000000000000000000081525060020182805190602001908083835b602083106121585780518252602082019150602081019050602083039250612135565b6001836020036101000a038019825116818451168082178552505050505050905001807f204672616374696f6e7300000000000000000000000000000000000000000000815250600a019250505060405160208183030381529060405290505b90565b6060600060158054600181600116156101000203166002900490501461227d5760158054600181600116156101000203166002900480601f0160208091040260200160405190810160405280929190818152602001828054600181600116156101000203166002900480156122715780601f1061224657610100808354040283529160200191612271565b820191906000526020600020905b81548152906001019060200180831161225457829003601f168201915b50505050509050612388565b6122be600760009054906101000a900473ffffffffffffffffffffffffffffffffffffffff1673ffffffffffffffffffffffffffffffffffffffff16614347565b6122c9600854614200565b6040516020018083805190602001908083835b602083106122ff57805182526020820191506020810190506020830392506122dc565b6001836020036101000a03801982511681845116808217855250505050505090500182805190602001908083835b60208310612350578051825260208201915060208101905060208303925061232d565b6001836020036101000a0380198251168184511680821785525050505050509050019250505060405160208183030381529060405290505b90565b6123943361145c565b612406576040517f08c379a000000000000000000000000000000000000000000000000000000000815260040180806020018281038252600d8152602001807f6163636573732064656e6965640000000000000000000000000000000000000081525060200191505060405180910390fd5b60003390508160095483600954028161241b57fe5b041461248f576040517f08c379a000000000000000000000000000000000000000000000000000000000815260040180806020018281038252600e8152602001807f7072696365206f766572666c6f7700000000000000000000000000000000000081525060200191505060405180910390fd5b6000600a54905082600a819055508173ffffffffffffffffffffffffffffffffffffffff167f7c3bda8adcb9df1edd0059da351d966538bcc99f067c0770872170ac97fb68878285604051808381526020018281526020019250505060405180910390a2505050565b606060048054600181600116156101000203166002900480601f0160208091040260200160405190810160405280929190818152602001828054600181600116156101000203166002900480156125905780601f1061256557610100808354040283529160200191612590565b820191906000526020600020905b81548152906001019060200180831161257357829003601f168201915b5050505050905090565b600f60149054906101000a900460ff1681565b600c5481565b60006126766125c0613611565b846126718560405180606001604052806025815260200161505e60259139600160006125ea613611565b73ffffffffffffffffffffffffffffffffffffffff1673ffffffffffffffffffffffffffffffffffffffff16815260200190815260200160002060008a73ffffffffffffffffffffffffffffffffffffffff1673ffffffffffffffffffffffffffffffffffffffff16815260200190815260200160002054613ad19092919063ffffffff16565b613619565b6001905092915050565b600061269461268d613611565b8484613810565b6001905092915050565b60026006541415612717576040517f08c379a000000000000000000000000000000000000000000000000000000000815260040180806020018281038252601f8152602001807f5265656e7472616e637947756172643a207265656e7472616e742063616c6c0081525060200191505060405180910390fd5b6002600681905550601160009054906101000a900473ffffffffffffffffffffffffffffffffffffffff1673ffffffffffffffffffffffffffffffffffffffff163373ffffffffffffffffffffffffffffffffffffffff16146127e2576040517f08c379a000000000000000000000000000000000000000000000000000000000815260040180806020018281038252600d8152602001807f6163636573732064656e6965640000000000000000000000000000000000000081525060200191505060405180910390fd5b6010544211612859576040517f08c379a000000000000000000000000000000000000000000000000000000000815260040180806020018281038252600d8152602001807f6e6f7420617661696c61626c650000000000000000000000000000000000000081525060200191505060405180910390fd5b6000339050600f60149054906101000a900460ff16156128e1576040517f08c379a000000000000000000000000000000000000000000000000000000000815260040180806020018281038252600d8152602001807f6d697373696e6720746f6b656e0000000000000000000000000000000000000081525060200191505060405180910390fd5b6001600f60146101000a81548160ff02191690831515021790555061290830601254613ea0565b61295781600854600760009054906101000a900473ffffffffffffffffffffffffffffffffffffffff1673ffffffffffffffffffffffffffffffffffffffff166144999092919063ffffffff16565b8073ffffffffffffffffffffffffffffffffffffffff167fd1b5ea7fe0f1c2fa09d49c2aa9b2200664ba57a734f1d95481d95b7f99af991c60405160405180910390a26129a2614064565b506001600681905550565b600073ffffffffffffffffffffffffffffffffffffffff16600760009054906101000a900473ffffffffffffffffffffffffffffffffffffffff1673ffffffffffffffffffffffffffffffffffffffff1614612a71576040517f08c379a00000000000000000000000000000000000000000000000000000000081526004018080602001828103825260138152602001807f616c726561647920696e697469616c697a65640000000000000000000000000081525060200191505060405180910390fd5b3073ffffffffffffffffffffffffffffffffffffffff168c73ffffffffffffffffffffffffffffffffffffffff16636352211e8d6040518263ffffffff1660e01b81526004018082815260200191505060206040518083038186803b158015612ad957600080fd5b505afa158015612aed573d6000803e3d6000fd5b505050506040513d6020811015612b0357600080fd5b810190808051906020019092919050505073ffffffffffffffffffffffffffffffffffffffff1614612b9d576040517f08c379a000000000000000000000000000000000000000000000000000000000815260040180806020018281038252600d8152602001807f6d697373696e6720746f6b656e0000000000000000000000000000000000000081525060200191505060405180910390fd5b60008711612c13576040517f08c379a000000000000000000000000000000000000000000000000000000000815260040180806020018281038252600d8152602001807f696e76616c696420636f756e740000000000000000000000000000000000000081525060200191505060405180910390fd5b858787890281612c1f57fe5b0414612c93576040517f08c379a000000000000000000000000000000000000000000000000000000000815260040180806020018281038252600e8152602001807f7072696365206f766572666c6f7700000000000000000000000000000000000081525060200191505060405180910390fd5b3073ffffffffffffffffffffffffffffffffffffffff168573ffffffffffffffffffffffffffffffffffffffff161415612d35576040517f08c379a000000000000000000000000000000000000000000000000000000000815260040180806020018281038252600d8152602001807f696e76616c696420746f6b656e0000000000000000000000000000000000000081525060200191505060405180910390fd5b6303c3b8804201841115612db1576040517f08c379a000000000000000000000000000000000000000000000000000000000815260040180806020018281038252600f8152602001807f696e76616c6964206b69636b6f6666000000000000000000000000000000000081525060200191505060405180910390fd5b8261070811158015612dc757506303c3b8808311155b612e39576040517f08c379a00000000000000000000000000000000000000000000000000000000081526004018080602001828103825260108152602001807f696e76616c6964206475726174696f6e0000000000000000000000000000000081525060200191505060405180910390fd5b670de0b6b3a7640000821115612eb7576040517f08c379a000000000000000000000000000000000000000000000000000000000815260040180806020018281038252600b8152602001807f696e76616c69642066656500000000000000000000000000000000000000000081525060200191505060405180910390fd5b600073ffffffffffffffffffffffffffffffffffffffff168173ffffffffffffffffffffffffffffffffffffffff161415612f5a576040517f08c379a000000000000000000000000000000000000000000000000000000000815260040180806020018281038252600f8152602001807f696e76616c69642061646472657373000000000000000000000000000000000081525060200191505060405180910390fd5b8b600760006101000a81548173ffffffffffffffffffffffffffffffffffffffff021916908373ffffffffffffffffffffffffffffffffffffffff1602179055508a6008819055508660098190555085600a8190555084600b60006101000a81548173ffffffffffffffffffffffffffffffffffffffff021916908373ffffffffffffffffffffffffffffffffffffffff16021790555083600c8190555082600d8190555081600e8190555080600f60006101000a81548173ffffffffffffffffffffffffffffffffffffffff021916908373ffffffffffffffffffffffffffffffffffffffff1602179055506000600f60146101000a81548160ff0219169083151502179055507fffffffffffffffffffffffffffffffffffffffffffffffffffffffffffffffff6010819055506000601160006101000a81548173ffffffffffffffffffffffffffffffffffffffff021916908373ffffffffffffffffffffffffffffffffffffffff16021790555089601490805190602001906130e1929190614e30565b5088601590805190602001906130f8929190614e30565b5061310288614684565b6000670de0b6b3a7640000613120848a6146a290919063ffffffff16565b8161312757fe5b0490506000818903905061313b8f82614728565b6131453083614728565b816012819055506000601381905550505050505050505050505050505050565b60008042600c541115801561317c57506010544211155b6131ee576040517f08c379a000000000000000000000000000000000000000000000000000000000815260040180806020018281038252600d8152602001807f6e6f7420617661696c61626c650000000000000000000000000000000000000081525060200191505060405180910390fd5b600073ffffffffffffffffffffffffffffffffffffffff16601160009054906101000a900473ffffffffffffffffffffffffffffffffffffffff1673ffffffffffffffffffffffffffffffffffffffff16141561324f57600a549150613265565b600a6009600b600a5402018161326157fe5b0491505b600061327084611f53565b90508373ffffffffffffffffffffffffffffffffffffffff16601160009054906101000a900473ffffffffffffffffffffffffffffffffffffffff1673ffffffffffffffffffffffffffffffffffffffff1614156132d057601254810190505b6000811415613301577fffffffffffffffffffffffffffffffffffffffffffffffffffffffffffffffff915061331f565b606481820202600a5460095460095402028161331957fe5b04830191505b50915091565b600760009054906101000a900473ffffffffffffffffffffffffffffffffffffffff1681565b6000600a5460095402905090565b6000600160008473ffffffffffffffffffffffffffffffffffffffff1673ffffffffffffffffffffffffffffffffffffffff16815260200190815260200160002060008373ffffffffffffffffffffffffffffffffffffffff1673ffffffffffffffffffffffffffffffffffffffff16815260200190815260200160002054905092915050565b600e5481565b6002600654141561345f576040517f08c379a000000000000000000000000000000000000000000000000000000000815260040180806020018281038252601f8152602001807f5265656e7472616e637947756172643a207265656e7472616e742063616c6c0081525060200191505060405180910390fd5b60026006819055506134703361145c565b6134e2576040517f08c379a000000000000000000000000000000000000000000000000000000000815260040180806020018281038252600d8152602001807f6163636573732064656e6965640000000000000000000000000000000000000081525060200191505060405180910390fd5b60003390506001600f60146101000a81548160ff0219169083151502179055506135148161350f83611f53565b613ea0565b61352030601254613ea0565b61356f81600854600760009054906101000a900473ffffffffffffffffffffffffffffffffffffffff1673ffffffffffffffffffffffffffffffffffffffff166144999092919063ffffffff16565b8073ffffffffffffffffffffffffffffffffffffffff167fdfae2e44eee3429afab9409ee9f946d11d84e8eee5d3c81525197a2925b0ceb960405160405180910390a26135ba614064565b506001600681905550565b601160009054906101000a900473ffffffffffffffffffffffffffffffffffffffff1681565b600f60009054906101000a900473ffffffffffffffffffffffffffffffffffffffff1681565b600033905090565b600073ffffffffffffffffffffffffffffffffffffffff168373ffffffffffffffffffffffffffffffffffffffff16141561369f576040517f08c379a00000000000000000000000000000000000000000000000000000000081526004018080602001828103825260248152602001806150106024913960400191505060405180910390fd5b600073ffffffffffffffffffffffffffffffffffffffff168273ffffffffffffffffffffffffffffffffffffffff161415613725576040517f08c379a0000000000000000000000000000000000000000000000000000000008152600401808060200182810382526022815260200180614f136022913960400191505060405180910390fd5b80600160008573ffffffffffffffffffffffffffffffffffffffff1673ffffffffffffffffffffffffffffffffffffffff16815260200190815260200160002060008473ffffffffffffffffffffffffffffffffffffffff1673ffffffffffffffffffffffffffffffffffffffff168152602001908152602001600020819055508173ffffffffffffffffffffffffffffffffffffffff168373ffffffffffffffffffffffffffffffffffffffff167f8c5be1e5ebec7d5bd14f71427d1e84f3dd0314c0f7b2291e5b200ac8c7c3b925836040518082815260200191505060405180910390a3505050565b600073ffffffffffffffffffffffffffffffffffffffff168373ffffffffffffffffffffffffffffffffffffffff161415613896576040517f08c379a0000000000000000000000000000000000000000000000000000000008152600401808060200182810382526025815260200180614feb6025913960400191505060405180910390fd5b600073ffffffffffffffffffffffffffffffffffffffff168273ffffffffffffffffffffffffffffffffffffffff16141561391c576040517f08c379a0000000000000000000000000000000000000000000000000000000008152600401808060200182810382526023815260200180614ece6023913960400191505060405180910390fd5b6139278383836148ef565b61399281604051806060016040528060268152602001614f35602691396000808773ffffffffffffffffffffffffffffffffffffffff1673ffffffffffffffffffffffffffffffffffffffff16815260200190815260200160002054613ad19092919063ffffffff16565b6000808573ffffffffffffffffffffffffffffffffffffffff1673ffffffffffffffffffffffffffffffffffffffff16815260200190815260200160002081905550613a25816000808573ffffffffffffffffffffffffffffffffffffffff1673ffffffffffffffffffffffffffffffffffffffff16815260200190815260200160002054613b9190919063ffffffff16565b6000808473ffffffffffffffffffffffffffffffffffffffff1673ffffffffffffffffffffffffffffffffffffffff168152602001908152602001600020819055508173ffffffffffffffffffffffffffffffffffffffff168373ffffffffffffffffffffffffffffffffffffffff167fddf252ad1be2c89b69c2b068fc378daa952ba7f163c4a11628f55a4df523b3ef836040518082815260200191505060405180910390a3505050565b6000838311158290613b7e576040517f08c379a00000000000000000000000000000000000000000000000000000000081526004018080602001828103825283818151815260200191508051906020019080838360005b83811015613b43578082015181840152602081019050613b28565b50505050905090810190601f168015613b705780820380516001836020036101000a031916815260200191505b509250505060405180910390fd5b5060008385039050809150509392505050565b600080828401905083811015613c0f576040517f08c379a000000000000000000000000000000000000000000000000000000000815260040180806020018281038252601b8152602001807f536166654d6174683a206164646974696f6e206f766572666c6f77000000000081525060200191505060405180910390fd5b8091505092915050565b600073ffffffffffffffffffffffffffffffffffffffff168373ffffffffffffffffffffffffffffffffffffffff161415613c9a578173ffffffffffffffffffffffffffffffffffffffff166108fc829081150290604051600060405180830381858888f19350505050158015613c94573d6000803e3d6000fd5b50613cc6565b613cc582828573ffffffffffffffffffffffffffffffffffffffff166148f49092919063ffffffff16565b5b505050565b600073ffffffffffffffffffffffffffffffffffffffff168573ffffffffffffffffffffffffffffffffffffffff161415613df557808314613d75576040517f08c379a000000000000000000000000000000000000000000000000000000000815260040180806020018281038252600d8152602001807f696e76616c69642076616c75650000000000000000000000000000000000000081525060200191505060405180910390fd5b3073ffffffffffffffffffffffffffffffffffffffff168273ffffffffffffffffffffffffffffffffffffffff1614613df0578173ffffffffffffffffffffffffffffffffffffffff166108fc829081150290604051600060405180830381858888f19350505050158015613dee573d6000803e3d6000fd5b505b613e99565b60008314613e6b576040517f08c379a000000000000000000000000000000000000000000000000000000000815260040180806020018281038252600d8152602001807f696e76616c69642076616c75650000000000000000000000000000000000000081525060200191505060405180910390fd5b613e988483838873ffffffffffffffffffffffffffffffffffffffff16614996909392919063ffffffff16565b5b5050505050565b600073ffffffffffffffffffffffffffffffffffffffff168273ffffffffffffffffffffffffffffffffffffffff161415613f26576040517f08c379a0000000000000000000000000000000000000000000000000000000008152600401808060200182810382526021815260200180614fca6021913960400191505060405180910390fd5b613f32826000836148ef565b613f9d81604051806060016040528060228152602001614ef1602291396000808673ffffffffffffffffffffffffffffffffffffffff1673ffffffffffffffffffffffffffffffffffffffff16815260200190815260200160002054613ad19092919063ffffffff16565b6000808473ffffffffffffffffffffffffffffffffffffffff1673ffffffffffffffffffffffffffffffffffffffff16815260200190815260200160002081905550613ff481600254614a5790919063ffffffff16565b600281905550600073ffffffffffffffffffffffffffffffffffffffff168273ffffffffffffffffffffffffffffffffffffffff167fddf252ad1be2c89b69c2b068fc378daa952ba7f163c4a11628f55a4df523b3ef836040518082815260200191505060405180910390a35050565b600061406e611220565b9050600f60149054906101000a900460ff16801561408c5750600081145b156140ab57600073ffffffffffffffffffffffffffffffffffffffff16ff5b50565b60608173ffffffffffffffffffffffffffffffffffffffff166306fdde036040518163ffffffff1660e01b815260040160006040518083038186803b1580156140f657600080fd5b505afa9250505080156141e857506040513d6000823e3d601f19601f82011682018060405250602081101561412a57600080fd5b810190808051604051939291908464010000000082111561414a57600080fd5b8382019150602082018581111561416057600080fd5b825186600182028301116401000000008211171561417d57600080fd5b8083526020830192505050908051906020019080838360005b838110156141b1578082015181840152602081019050614196565b50505050905090810190601f1680156141de5780820380516001836020036101000a031916815260200191505b5060405250505060015b6141f1576141fa565b809150506141fb565b5b919050565b60606000821415614248576040518060400160405280600181526020017f30000000000000000000000000000000000000000000000000000000000000008152509050614342565b600082905060005b60008214614272578080600101915050600a828161426a57fe5b049150614250565b60608167ffffffffffffffff8111801561428b57600080fd5b506040519080825280601f01601f1916602001820160405280156142be5781602001600182028036833780820191505090505b50905060006001830390508593505b6000841461433a57600a84816142df57fe5b0660300160f81b828280600190039350815181106142f957fe5b60200101907effffffffffffffffffffffffffffffffffffffffffffffffffffffffffffff1916908160001a905350600a848161433257fe5b0493506142cd565b819450505050505b919050565b60608173ffffffffffffffffffffffffffffffffffffffff166395d89b416040518163ffffffff1660e01b815260040160006040518083038186803b15801561438f57600080fd5b505afa92505050801561448157506040513d6000823e3d601f19601f8201168201806040525060208110156143c357600080fd5b81019080805160405193929190846401000000008211156143e357600080fd5b838201915060208201858111156143f957600080fd5b825186600182028301116401000000008211171561441657600080fd5b8083526020830192505050908051906020019080838360005b8381101561444a57808201518184015260208101905061442f565b50505050905090810190601f1680156144775780820380516001836020036101000a031916815260200191505b5060405250505060015b61448a57614493565b80915050614494565b5b919050565b60003090508373ffffffffffffffffffffffffffffffffffffffff166323b872dd8285856040518463ffffffff1660e01b8152600401808473ffffffffffffffffffffffffffffffffffffffff1681526020018373ffffffffffffffffffffffffffffffffffffffff1681526020018281526020019350505050600060405180830381600087803b15801561452d57600080fd5b505af192505050801561453e575060015b6145475761454d565b5061467f565b8373ffffffffffffffffffffffffffffffffffffffff1663095ea7b382846040518363ffffffff1660e01b8152600401808373ffffffffffffffffffffffffffffffffffffffff16815260200182815260200192505050600060405180830381600087803b1580156145be57600080fd5b505af11580156145d2573d6000803e3d6000fd5b505050508373ffffffffffffffffffffffffffffffffffffffff166323b872dd8285856040518463ffffffff1660e01b8152600401808473ffffffffffffffffffffffffffffffffffffffff1681526020018373ffffffffffffffffffffffffffffffffffffffff1681526020018281526020019350505050600060405180830381600087803b15801561466557600080fd5b505af1158015614679573d6000803e3d6000fd5b50505050505b505050565b80600560006101000a81548160ff021916908360ff16021790555050565b6000808314156146b55760009050614722565b60008284029050828482816146c657fe5b041461471d576040517f08c379a0000000000000000000000000000000000000000000000000000000008152600401808060200182810382526021815260200180614f816021913960400191505060405180910390fd5b809150505b92915050565b600073ffffffffffffffffffffffffffffffffffffffff168273ffffffffffffffffffffffffffffffffffffffff1614156147cb576040517f08c379a000000000000000000000000000000000000000000000000000000000815260040180806020018281038252601f8152602001807f45524332303a206d696e7420746f20746865207a65726f20616464726573730081525060200191505060405180910390fd5b6147d7600083836148ef565b6147ec81600254613b9190919063ffffffff16565b600281905550614843816000808573ffffffffffffffffffffffffffffffffffffffff1673ffffffffffffffffffffffffffffffffffffffff16815260200190815260200160002054613b9190919063ffffffff16565b6000808473ffffffffffffffffffffffffffffffffffffffff1673ffffffffffffffffffffffffffffffffffffffff168152602001908152602001600020819055508173ffffffffffffffffffffffffffffffffffffffff16600073ffffffffffffffffffffffffffffffffffffffff167fddf252ad1be2c89b69c2b068fc378daa952ba7f163c4a11628f55a4df523b3ef836040518082815260200191505060405180910390a35050565b505050565b6149918363a9059cbb60e01b8484604051602401808373ffffffffffffffffffffffffffffffffffffffff16815260200182815260200192505050604051602081830303815290604052907bffffffffffffffffffffffffffffffffffffffffffffffffffffffff19166020820180517bffffffffffffffffffffffffffffffffffffffffffffffffffffffff8381831617835250505050614aa1565b505050565b614a51846323b872dd60e01b858585604051602401808473ffffffffffffffffffffffffffffffffffffffff1681526020018373ffffffffffffffffffffffffffffffffffffffff1681526020018281526020019350505050604051602081830303815290604052907bffffffffffffffffffffffffffffffffffffffffffffffffffffffff19166020820180517bffffffffffffffffffffffffffffffffffffffffffffffffffffffff8381831617835250505050614aa1565b50505050565b6000614a9983836040518060400160405280601e81526020017f536166654d6174683a207375627472616374696f6e206f766572666c6f770000815250613ad1565b905092915050565b6060614b03826040518060400160405280602081526020017f5361666545524332303a206c6f772d6c6576656c2063616c6c206661696c65648152508573ffffffffffffffffffffffffffffffffffffffff16614b909092919063ffffffff16565b9050600081511115614b8b57808060200190516020811015614b2457600080fd5b8101908080519060200190929190505050614b8a576040517f08c379a000000000000000000000000000000000000000000000000000000000815260040180806020018281038252602a815260200180615034602a913960400191505060405180910390fd5b5b505050565b6060614b9f8484600085614ba8565b90509392505050565b606082471015614c03576040517f08c379a0000000000000000000000000000000000000000000000000000000008152600401808060200182810382526026815260200180614f5b6026913960400191505060405180910390fd5b614c0c85614d51565b614c7e576040517f08c379a000000000000000000000000000000000000000000000000000000000815260040180806020018281038252601d8152602001807f416464726573733a2063616c6c20746f206e6f6e2d636f6e747261637400000081525060200191505060405180910390fd5b600060608673ffffffffffffffffffffffffffffffffffffffff1685876040518082805190602001908083835b60208310614cce5780518252602082019150602081019050602083039250614cab565b6001836020036101000a03801982511681845116808217855250505050505090500191505060006040518083038185875af1925050503d8060008114614d30576040519150601f19603f3d011682016040523d82523d6000602084013e614d35565b606091505b5091509150614d45828286614d64565b92505050949350505050565b600080823b905060008111915050919050565b60608315614d7457829050614e29565b600083511115614d875782518084602001fd5b816040517f08c379a00000000000000000000000000000000000000000000000000000000081526004018080602001828103825283818151815260200191508051906020019080838360005b83811015614dee578082015181840152602081019050614dd3565b50505050905090810190601f168015614e1b5780820380516001836020036101000a031916815260200191505b509250505060405180910390fd5b9392505050565b828054600181600116156101000203166002900490600052602060002090601f016020900481019282601f10614e7157805160ff1916838001178555614e9f565b82800160010185558215614e9f579182015b82811115614e9e578251825591602001919060010190614e83565b5b509050614eac9190614eb0565b5090565b5b80821115614ec9576000816000905550600101614eb1565b509056fe45524332303a207472616e7366657220746f20746865207a65726f206164647265737345524332303a206275726e20616d6f756e7420657863656564732062616c616e636545524332303a20617070726f766520746f20746865207a65726f206164647265737345524332303a207472616e7366657220616d6f756e7420657863656564732062616c616e6365416464726573733a20696e73756666696369656e742062616c616e636520666f722063616c6c536166654d6174683a206d756c7469706c69636174696f6e206f766572666c6f7745524332303a207472616e7366657220616d6f756e74206578636565647320616c6c6f77616e636545524332303a206275726e2066726f6d20746865207a65726f206164647265737345524332303a207472616e736665722066726f6d20746865207a65726f206164647265737345524332303a20617070726f76652066726f6d20746865207a65726f20616464726573735361666545524332303a204552433230206f7065726174696f6e20646964206e6f74207375636365656445524332303a2064656372656173656420616c6c6f77616e63652062656c6f77207a65726fa2646970667358221220bb5887527bdf7d472c56dccc824252fc1f922ef762b29f7233fc1915e90ed51864736f6c634300060c0033",
  "immutableReferences": {},
  "source": "// SPDX-License-Identifier: GPL-3.0-only\npragma solidity ^0.6.0;\n\nimport { ERC20 } from \"@openzeppelin/contracts/token/ERC20/ERC20.sol\";\nimport { IERC20 } from \"@openzeppelin/contracts/token/ERC20/IERC20.sol\";\nimport { SafeERC20 } from \"@openzeppelin/contracts/token/ERC20/SafeERC20.sol\";\nimport { ERC721Holder } from \"@openzeppelin/contracts/token/ERC721/ERC721Holder.sol\";\nimport { IERC721 } from \"@openzeppelin/contracts/token/ERC721/IERC721.sol\";\nimport { IERC721Metadata } from \"@openzeppelin/contracts/token/ERC721/IERC721Metadata.sol\";\nimport { ReentrancyGuard } from \"@openzeppelin/contracts/utils/ReentrancyGuard.sol\";\nimport { Strings } from \"@openzeppelin/contracts/utils/Strings.sol\";\n\nimport { SafeERC721 } from \"./SafeERC721.sol\";\n\ncontract AuctionFractionsImpl is ERC721Holder, ERC20, ReentrancyGuard\n{\n\tusing SafeERC20 for IERC20;\n\tusing SafeERC721 for IERC721;\n\tusing SafeERC721 for IERC721Metadata;\n\tusing Strings for uint256;\n\n\taddress public target;\n\tuint256 public tokenId;\n\tuint256 public fractionsCount;\n\tuint256 public fractionPrice;\n\taddress public paymentToken;\n\tuint256 public kickoff;\n\tuint256 public duration;\n\tuint256 public fee;\n\taddress public vault;\n\n\tbool public released;\n\tuint256 public cutoff;\n\taddress payable public bidder;\n\n\tuint256 private lockedFractions_;\n\tuint256 private lockedAmount_;\n\n\tstring private name_;\n\tstring private symbol_;\n\n\tconstructor () ERC20(\"Fractions\", \"FRAC\") public\n\t{\n\t\ttarget = address(-1); // prevents proxy code from misuse\n\t}\n\n\tfunction __name() public view /*override*/ returns (string memory _name) // rename to name() and change name() on ERC20 to virtual to be able to override on deploy\n\t{\n\t\tif (bytes(name_).length != 0) return name_;\n\t\treturn string(abi.encodePacked(IERC721Metadata(target).safeName(), \" #\", tokenId.toString(), \" Fractions\"));\n\t}\n\n\tfunction __symbol() public view /*override*/ returns (string memory _symbol) // rename to name() and change name() on ERC20 to virtual to be able to override on deploy\n\t{\n\t\tif (bytes(symbol_).length != 0) return symbol_;\n\t\treturn string(abi.encodePacked(IERC721Metadata(target).safeSymbol(), tokenId.toString()));\n\t}\n\n\tmodifier onlyOwner()\n\t{\n\t\trequire(isOwner(msg.sender), \"access denied\");\n\t\t_;\n\t}\n\n\tmodifier onlyHolder()\n\t{\n\t\trequire(balanceOf(msg.sender) > 0, \"access denied\");\n\t\t_;\n\t}\n\n\tmodifier onlyBidder()\n\t{\n\t\trequire(msg.sender == bidder, \"access denied\");\n\t\t_;\n\t}\n\n\tmodifier inAuction()\n\t{\n\t\trequire(kickoff <= now && now <= cutoff, \"not available\");\n\t\t_;\n\t}\n\n\tmodifier afterAuction()\n\t{\n\t\trequire(now > cutoff, \"not available\");\n\t\t_;\n\t}\n\n\tfunction initialize(address _from, address _target, uint256 _tokenId, string memory _name, string memory _symbol, uint8 _decimals, uint256 _fractionsCount, uint256 _fractionPrice, address _paymentToken, uint256 _kickoff, uint256 _duration, uint256 _fee, address _vault) external\n\t{\n\t\trequire(target == address(0), \"already initialized\");\n\t\trequire(IERC721(_target).ownerOf(_tokenId) == address(this), \"missing token\");\n\t\trequire(_fractionsCount > 0, \"invalid count\");\n\t\trequire(_fractionsCount * _fractionPrice / _fractionsCount == _fractionPrice, \"price overflow\");\n\t\trequire(_paymentToken != address(this), \"invalid token\");\n\t\trequire(_kickoff <= now + 731 days, \"invalid kickoff\");\n\t\trequire(30 minutes <= _duration && _duration <= 731 days, \"invalid duration\");\n\t\trequire(_fee <= 1e18, \"invalid fee\");\n\t\trequire(_vault != address(0), \"invalid address\");\n\t\ttarget = _target;\n\t\ttokenId = _tokenId;\n\t\tfractionsCount = _fractionsCount;\n\t\tfractionPrice = _fractionPrice;\n\t\tpaymentToken = _paymentToken;\n\t\tkickoff = _kickoff;\n\t\tduration = _duration;\n\t\tfee = _fee;\n\t\tvault = _vault;\n\t\treleased = false;\n\t\tcutoff = uint256(-1);\n\t\tbidder = address(0);\n\t\tname_ = _name;\n\t\tsymbol_ = _symbol;\n\t\t_setupDecimals(_decimals);\n\t\tuint256 _feeFractionsCount = _fractionsCount.mul(_fee) / 1e18;\n\t\tuint256 _netFractionsCount = _fractionsCount - _feeFractionsCount;\n\t\t_mint(_from, _netFractionsCount);\n\t\t_mint(address(this), _feeFractionsCount);\n\t\tlockedFractions_ = _feeFractionsCount;\n\t\tlockedAmount_ = 0;\n\t}\n\n\tfunction status() external view returns (string memory _status)\n\t{\n\t\treturn bidder == address(0) ? now < kickoff ? \"PAUSE\" : \"OFFER\" : now > cutoff ? \"SOLD\" : \"AUCTION\";\n\t}\n\n\tfunction isOwner(address _from) public view returns (bool _soleOwner)\n\t{\n\t\treturn bidder == address(0) && balanceOf(_from) + lockedFractions_ == fractionsCount;\n\t}\n\n\tfunction reservePrice() external view returns (uint256 _reservePrice)\n\t{\n\t\treturn fractionsCount * fractionPrice;\n\t}\n\n\tfunction bidRangeOf(address _from) external view inAuction returns (uint256 _minFractionPrice, uint256 _maxFractionPrice)\n\t{\n\t\tif (bidder == address(0)) {\n\t\t\t_minFractionPrice = fractionPrice;\n\t\t} else {\n\t\t\t_minFractionPrice = (fractionPrice * 11 + 9) / 10; // 10% increase, rounded up\n\t\t}\n\t\tuint256 _fractionsCount = balanceOf(_from);\n\t\tif (bidder == _from) _fractionsCount += lockedFractions_;\n\t\tif (_fractionsCount == 0) {\n\t\t\t_maxFractionPrice = uint256(-1);\n\t\t} else {\n\t\t\t_maxFractionPrice = _minFractionPrice + (fractionsCount * fractionsCount * fractionPrice) / (_fractionsCount * _fractionsCount * 100); // 1% / (ownership ^ 2)\n\t\t}\n\t\treturn (_minFractionPrice, _maxFractionPrice);\n\t}\n\n\tfunction bidAmountOf(address _from, uint256 _newFractionPrice) external view inAuction returns (uint256 _bidAmount)\n\t{\n\t\tuint256 _fractionsCount = balanceOf(_from);\n\t\tif (bidder == _from) _fractionsCount += lockedFractions_;\n\t\treturn (fractionsCount - _fractionsCount) * _newFractionPrice;\n\t}\n\n\tfunction vaultBalance() external view returns (uint256 _vaultBalance)\n\t{\n\t\tif (now <= cutoff) return 0;\n\t\tuint256 _fractionsCount = totalSupply();\n\t\treturn _fractionsCount * fractionPrice;\n\t}\n\n\tfunction vaultBalanceOf(address _from) external view returns (uint256 _vaultBalanceOf)\n\t{\n\t\tif (now <= cutoff) return 0;\n\t\tuint256 _fractionsCount = balanceOf(_from);\n\t\treturn _fractionsCount * fractionPrice;\n\t}\n\n\tfunction updatePrice(uint256 _newFractionPrice) external onlyOwner\n\t{\n\t\taddress _from = msg.sender;\n\t\trequire(fractionsCount * _newFractionPrice / fractionsCount == _newFractionPrice, \"price overflow\");\n\t\tuint256 _oldFractionPrice = fractionPrice;\n\t\tfractionPrice = _newFractionPrice;\n\t\temit UpdatePrice(_from, _oldFractionPrice, _newFractionPrice);\n\t}\n\n\tfunction cancel() external nonReentrant onlyOwner\n\t{\n\t\taddress _from = msg.sender;\n\t\treleased = true;\n\t\t_burn(_from, balanceOf(_from));\n\t\t_burn(address(this), lockedFractions_);\n\t\tIERC721(target).safeTransfer(_from, tokenId);\n\t\temit Cancel(_from);\n\t\t_cleanup();\n\t}\n\n\tfunction bid(uint256 _newFractionPrice) external payable nonReentrant inAuction\n\t{\n\t\taddress payable _from = msg.sender;\n\t\tuint256 _value = msg.value;\n\t\trequire(fractionsCount * _newFractionPrice / fractionsCount == _newFractionPrice, \"price overflow\");\n\t\tuint256 _oldFractionPrice = fractionPrice;\n\t\tuint256 _fractionsCount;\n\t\tif (bidder == address(0)) {\n\t\t\t_transfer(address(this), vault, lockedFractions_);\n\t\t\t_fractionsCount = balanceOf(_from);\n\t\t\tuint256 _fractionsCount2 = _fractionsCount * _fractionsCount;\n\t\t\trequire(_newFractionPrice >= _oldFractionPrice, \"below minimum\");\n\t\t\trequire(_newFractionPrice * _fractionsCount2 * 100 <= _oldFractionPrice * (_fractionsCount2 * 100 + fractionsCount * fractionsCount), \"above maximum\"); // <= 1% / (ownership ^ 2)\n\t\t\tcutoff = now + duration;\n\t\t} else {\n\t\t\tif (lockedFractions_ > 0) _transfer(address(this), bidder, lockedFractions_);\n\t\t\t_safeTransfer(paymentToken, bidder, lockedAmount_);\n\t\t\t_fractionsCount = balanceOf(_from);\n\t\t\tuint256 _fractionsCount2 = _fractionsCount * _fractionsCount;\n\t\t\trequire(_newFractionPrice * 10 >= _oldFractionPrice * 11, \"below minimum\"); // >= 10%\n\t\t\trequire(_newFractionPrice * _fractionsCount2 * 100 <= _oldFractionPrice * (_fractionsCount2 * 110 + fractionsCount * fractionsCount), \"above maximum\"); // <= 10% + 1% / (ownership ^ 2)\n\t\t\tif (cutoff < now + 15 minutes) cutoff = now + 15 minutes;\n\t\t}\n\t\tbidder = _from;\n\t\tfractionPrice = _newFractionPrice;\n\t\tuint256 _bidAmount = (fractionsCount - _fractionsCount) * _newFractionPrice;\n\t\tif (_fractionsCount > 0) _transfer(_from, address(this), _fractionsCount);\n\t\t_safeTransferFrom(paymentToken, _from, _value, payable(address(this)), _bidAmount);\n\t\tlockedFractions_ = _fractionsCount;\n\t\tlockedAmount_ = _bidAmount;\n\t\temit Bid(_from, _oldFractionPrice, _newFractionPrice, _fractionsCount, _bidAmount);\n\t}\n\n\tfunction redeem() external nonReentrant onlyBidder afterAuction\n\t{\n\t\taddress _from = msg.sender;\n\t\trequire(!released, \"missing token\");\n\t\treleased = true;\n\t\t_burn(address(this), lockedFractions_);\n\t\tIERC721(target).safeTransfer(_from, tokenId);\n\t\temit Redeem(_from);\n\t\t_cleanup();\n\t}\n\n\tfunction claim() external nonReentrant onlyHolder afterAuction\n\t{\n\t\taddress payable _from = msg.sender;\n\t\tuint256 _fractionsCount = balanceOf(_from);\n\t\tuint256 _claimAmount = _fractionsCount * fractionPrice;\n\t\t_burn(_from, _fractionsCount);\n\t\t_safeTransfer(paymentToken, _from, _claimAmount);\n\t\temit Claim(_from, _fractionsCount, _claimAmount);\n\t\t_cleanup();\n\t}\n\n\tfunction _cleanup() internal\n\t{\n\t\tuint256 _fractionsCount = totalSupply();\n\t\tif (released && _fractionsCount == 0) {\n\t\t\tselfdestruct(address(0));\n\t\t}\n\t}\n\n\tfunction _safeTransfer(address _token, address payable _to, uint256 _amount) internal\n\t{\n\t\tif (_token == address(0)) {\n\t\t\t_to.transfer(_amount);\n\t\t} else {\n\t\t\tIERC20(_token).safeTransfer(_to, _amount);\n\t\t}\n\t}\n\n\tfunction _safeTransferFrom(address _token, address payable _from, uint256 _value, address payable _to, uint256 _amount) internal\n\t{\n\t\tif (_token == address(0)) {\n\t\t\trequire(_value == _amount, \"invalid value\");\n\t\t\tif (_to != address(this)) _to.transfer(_amount);\n\t\t} else {\n\t\t\trequire(_value == 0, \"invalid value\");\n\t\t\tIERC20(_token).safeTransferFrom(_from, _to, _amount);\n\t\t}\n\t}\n\n\tevent UpdatePrice(address indexed _from, uint256 _oldFractionPrice, uint256 _newFractionPrice);\n\tevent Cancel(address indexed _from);\n\tevent Bid(address indexed _from, uint256 _oldFractionPrice, uint256 _newFractionPrice, uint256 _fractionsCount, uint256 _bidAmount);\n\tevent Redeem(address indexed _from);\n\tevent Claim(address indexed _from, uint256 _fractionsCount, uint256 _claimAmount);\n}\n",
  "sourcePath": "/Users/LordeYeti/Downloads/NIFTY/nftfy-v1-core/contracts/v1.5/AuctionFractionsImpl.sol",
  "compiler": {
    "name": "solc",
    "version": "0.6.12+commit.27d51765.Emscripten.clang"
  },
  "schemaVersion": "3.4.3",
  "updatedAt": "2021-12-09T09:57:51.820Z",
  "devdoc": {
    "kind": "dev",
    "methods": {
      "allowance(address,address)": {
        "details": "See {IERC20-allowance}."
      },
      "approve(address,uint256)": {
        "details": "See {IERC20-approve}. Requirements: - `spender` cannot be the zero address."
      },
      "balanceOf(address)": {
        "details": "See {IERC20-balanceOf}."
      },
      "decimals()": {
        "details": "Returns the number of decimals used to get its user representation. For example, if `decimals` equals `2`, a balance of `505` tokens should be displayed to a user as `5,05` (`505 / 10 ** 2`). Tokens usually opt for a value of 18, imitating the relationship between Ether and Wei. This is the value {ERC20} uses, unless {_setupDecimals} is called. NOTE: This information is only used for _display_ purposes: it in no way affects any of the arithmetic of the contract, including {IERC20-balanceOf} and {IERC20-transfer}."
      },
      "decreaseAllowance(address,uint256)": {
        "details": "Atomically decreases the allowance granted to `spender` by the caller. This is an alternative to {approve} that can be used as a mitigation for problems described in {IERC20-approve}. Emits an {Approval} event indicating the updated allowance. Requirements: - `spender` cannot be the zero address. - `spender` must have allowance for the caller of at least `subtractedValue`."
      },
      "increaseAllowance(address,uint256)": {
        "details": "Atomically increases the allowance granted to `spender` by the caller. This is an alternative to {approve} that can be used as a mitigation for problems described in {IERC20-approve}. Emits an {Approval} event indicating the updated allowance. Requirements: - `spender` cannot be the zero address."
      },
      "name()": {
        "details": "Returns the name of the token."
      },
      "onERC721Received(address,address,uint256,bytes)": {
        "details": "See {IERC721Receiver-onERC721Received}. Always returns `IERC721Receiver.onERC721Received.selector`."
      },
      "symbol()": {
        "details": "Returns the symbol of the token, usually a shorter version of the name."
      },
      "totalSupply()": {
        "details": "See {IERC20-totalSupply}."
      },
      "transfer(address,uint256)": {
        "details": "See {IERC20-transfer}. Requirements: - `recipient` cannot be the zero address. - the caller must have a balance of at least `amount`."
      },
      "transferFrom(address,address,uint256)": {
        "details": "See {IERC20-transferFrom}. Emits an {Approval} event indicating the updated allowance. This is not required by the EIP. See the note at the beginning of {ERC20}. Requirements: - `sender` and `recipient` cannot be the zero address. - `sender` must have a balance of at least `amount`. - the caller must have allowance for ``sender``'s tokens of at least `amount`."
      }
    },
    "version": 1
  },
  "userdoc": {
    "kind": "user",
    "methods": {},
    "version": 1
  }
}