{
  "contractName": "CallReceiverMock",
  "abi": [
    {
      "anonymous": false,
      "inputs": [],
      "name": "MockFunctionCalled",
      "type": "event"
    },
    {
      "inputs": [],
      "name": "sharedAnswer",
      "outputs": [
        {
          "internalType": "string",
          "name": "",
          "type": "string"
        }
      ],
      "stateMutability": "view",
      "type": "function"
    },
    {
      "inputs": [],
      "name": "mockFunction",
      "outputs": [
        {
          "internalType": "string",
          "name": "",
          "type": "string"
        }
      ],
      "stateMutability": "payable",
      "type": "function"
    },
    {
      "inputs": [],
      "name": "mockFunctionNonPayable",
      "outputs": [
        {
          "internalType": "string",
          "name": "",
          "type": "string"
        }
      ],
      "stateMutability": "nonpayable",
      "type": "function"
    },
    {
      "inputs": [],
      "name": "mockStaticFunction",
      "outputs": [
        {
          "internalType": "string",
          "name": "",
          "type": "string"
        }
      ],
      "stateMutability": "pure",
      "type": "function"
    },
    {
      "inputs": [],
      "name": "mockFunctionRevertsNoReason",
      "outputs": [],
      "stateMutability": "payable",
      "type": "function"
    },
    {
      "inputs": [],
      "name": "mockFunctionRevertsReason",
      "outputs": [],
      "stateMutability": "payable",
      "type": "function"
    },
    {
      "inputs": [],
      "name": "mockFunctionThrows",
      "outputs": [],
      "stateMutability": "payable",
      "type": "function"
    },
    {
      "inputs": [],
      "name": "mockFunctionOutOfGas",
      "outputs": [],
      "stateMutability": "payable",
      "type": "function"
    },
    {
      "inputs": [],
      "name": "mockFunctionWritesStorage",
      "outputs": [
        {
          "internalType": "string",
          "name": "",
          "type": "string"
        }
      ],
      "stateMutability": "nonpayable",
      "type": "function"
    }
  ],
  "bytecode": "0x608060405234801561001057600080fd5b50610733806100206000396000f3fe6080604052600436106100865760003560e01c80633e6fec04116100595780633e6fec0414610139578063a793ab47146101bc578063aa04f77e146101c6578063c8fc769614610256578063fc40cf73146102e657610086565b80630c0349681461008b5780630f63e42c146100955780632c81d638146101255780633bcfaa141461012f575b600080fd5b610093610376565b005b3480156100a157600080fd5b506100aa6103e4565b6040518080602001828103825283818151815260200191508051906020019080838360005b838110156100ea5780820151818401526020810190506100cf565b50505050905090810190601f1680156101175780820380516001836020036101000a031916815260200191505b509250505060405180910390f35b61012d61044d565b005b610137610452565b005b61014161045c565b6040518080602001828103825283818151815260200191508051906020019080838360005b83811015610181578082015181840152602081019050610166565b50505050905090810190601f1680156101ae5780820380516001836020036101000a031916815260200191505b509250505060405180910390f35b6101c46104c5565b005b3480156101d257600080fd5b506101db6104fc565b6040518080602001828103825283818151815260200191508051906020019080838360005b8381101561021b578082015181840152602081019050610200565b50505050905090810190601f1680156102485780820380516001836020036101000a031916815260200191505b509250505060405180910390f35b34801561026257600080fd5b5061026b610585565b6040518080602001828103825283818151815260200191508051906020019080838360005b838110156102ab578082015181840152602081019050610290565b50505050905090810190601f1680156102d85780820380516001836020036101000a031916815260200191505b509250505060405180910390f35b3480156102f257600080fd5b506102fb6105c2565b6040518080602001828103825283818151815260200191508051906020019080838360005b8381101561033b578082015181840152602081019050610320565b50505050905090810190601f1680156103685780820380516001836020036101000a031916815260200191505b509250505060405180910390f35b6040517f08c379a000000000000000000000000000000000000000000000000000000000815260040180806020018281038252601b8152602001807f43616c6c52656365697665724d6f636b3a20726576657274696e67000000000081525060200191505060405180910390fd5b60607f52c66ed6ec9ca819cba26fe2b2650059270d8981b295af300187a964f54a8c2360405160405180910390a16040518060400160405280600681526020017f3078313233340000000000000000000000000000000000000000000000000000815250905090565b600080fd5b600061045a57fe5b565b60607f52c66ed6ec9ca819cba26fe2b2650059270d8981b295af300187a964f54a8c2360405160405180910390a16040518060400160405280600681526020017f3078313233340000000000000000000000000000000000000000000000000000815250905090565b60005b60018190806001815401808255809150506001900390600052602060002001600090919091909150558060010190506104c8565b60606040518060400160405280600281526020017f343200000000000000000000000000000000000000000000000000000000000081525060009080519060200190610549929190610660565b506040518060400160405280600681526020017f3078313233340000000000000000000000000000000000000000000000000000815250905090565b60606040518060400160405280600681526020017f3078313233340000000000000000000000000000000000000000000000000000815250905090565b60008054600181600116156101000203166002900480601f0160208091040260200160405190810160405280929190818152602001828054600181600116156101000203166002900480156106585780601f1061062d57610100808354040283529160200191610658565b820191906000526020600020905b81548152906001019060200180831161063b57829003601f168201915b505050505081565b828054600181600116156101000203166002900490600052602060002090601f016020900481019282601f106106a157805160ff19168380011785556106cf565b828001600101855582156106cf579182015b828111156106ce5782518255916020019190600101906106b3565b5b5090506106dc91906106e0565b5090565b5b808211156106f95760008160009055506001016106e1565b509056fea26469706673582212208b0f61ac2832f19dfab11933eec38fa2ddd9e675982ccf04bce50e825eca95cb64736f6c634300060c0033",
  "immutableReferences": {},
  "source": "// SPDX-License-Identifier: MIT\n\npragma solidity >=0.6.0 <0.8.0;\n\ncontract CallReceiverMock {\n    string public sharedAnswer;\n\n    event MockFunctionCalled();\n\n    uint256[] private _array;\n\n    function mockFunction() public payable returns (string memory) {\n        emit MockFunctionCalled();\n\n        return \"0x1234\";\n    }\n\n    function mockFunctionNonPayable() public returns (string memory) {\n        emit MockFunctionCalled();\n\n        return \"0x1234\";\n    }\n\n    function mockStaticFunction() public pure returns (string memory) {\n        return \"0x1234\";\n    }\n\n    function mockFunctionRevertsNoReason() public payable {\n        revert();\n    }\n\n    function mockFunctionRevertsReason() public payable {\n        revert(\"CallReceiverMock: reverting\");\n    }\n\n    function mockFunctionThrows() public payable {\n        assert(false);\n    }\n\n    function mockFunctionOutOfGas() public payable {\n        for (uint256 i = 0; ; ++i) {\n            _array.push(i);\n        }\n    }\n\n    function mockFunctionWritesStorage() public returns (string memory) {\n        sharedAnswer = \"42\";\n        return \"0x1234\";\n    }\n}\n",
  "sourcePath": "/Users/LordeYeti/Downloads/NIFTY/nftfy-v1-core/contracts/contracts/mocks/CallReceiverMock.sol",
  "compiler": {
    "name": "solc",
    "version": "0.6.12+commit.27d51765.Emscripten.clang"
  },
  "schemaVersion": "3.4.3",
  "updatedAt": "2021-12-09T09:51:18.633Z",
  "devdoc": {
    "kind": "dev",
    "methods": {},
    "version": 1
  },
  "userdoc": {
    "kind": "user",
    "methods": {},
    "version": 1
  }
}