{
  "contractName": "ClashingImplementation",
  "abi": [
    {
      "inputs": [],
      "name": "admin",
      "outputs": [
        {
          "internalType": "address",
          "name": "",
          "type": "address"
        }
      ],
      "stateMutability": "pure",
      "type": "function"
    },
    {
      "inputs": [],
      "name": "delegatedFunction",
      "outputs": [
        {
          "internalType": "bool",
          "name": "",
          "type": "bool"
        }
      ],
      "stateMutability": "pure",
      "type": "function"
    }
  ],
  "bytecode": "0x608060405234801561001057600080fd5b5060d28061001f6000396000f3fe6080604052348015600f57600080fd5b506004361060325760003560e01c8063abf8e0e7146037578063f851a440146055575b600080fd5b603d6087565b60405180821515815260200191505060405180910390f35b605b6090565b604051808273ffffffffffffffffffffffffffffffffffffffff16815260200191505060405180910390f35b60006001905090565b6000631111114290509056fea264697066735822122083c502d0e0a2b8742f15ae2f8cbe451b3dec925b12896bfa3c8897086e7a0c9b64736f6c634300060c0033",
  "immutableReferences": {},
  "source": "// SPDX-License-Identifier: MIT\n\npragma solidity >=0.6.0 <0.8.0;\n\n\n/**\n * @dev Implementation contract with an admin() function made to clash with\n * @dev TransparentUpgradeableProxy's to test correct functioning of the\n * @dev Transparent Proxy feature.\n */\ncontract ClashingImplementation {\n\n  function admin() external pure returns (address) {\n    return 0x0000000000000000000000000000000011111142;\n  }\n\n  function delegatedFunction() external pure returns (bool) {\n    return true;\n  }\n}\n",
  "sourcePath": "/Users/LordeYeti/Downloads/NIFTY/nftfy-v1-core/contracts/contracts/mocks/ClashingImplementation.sol",
  "compiler": {
    "name": "solc",
    "version": "0.6.12+commit.27d51765.Emscripten.clang"
  },
  "schemaVersion": "3.4.3",
  "updatedAt": "2021-12-09T09:51:18.638Z",
  "devdoc": {
    "details": "Implementation contract with an admin() function made to clash withTransparentUpgradeableProxy's to test correct functioning of theTransparent Proxy feature.",
    "kind": "dev",
    "methods": {},
    "version": 1
  },
  "userdoc": {
    "kind": "user",
    "methods": {},
    "version": 1
  }
}