{
  "contractName": "DummyImplementationV2",
  "abi": [
    {
      "inputs": [],
      "name": "get",
      "outputs": [
        {
          "internalType": "bool",
          "name": "",
          "type": "bool"
        }
      ],
      "stateMutability": "pure",
      "type": "function"
    },
    {
      "inputs": [
        {
          "internalType": "uint256",
          "name": "_value",
          "type": "uint256"
        },
        {
          "internalType": "string",
          "name": "_text",
          "type": "string"
        },
        {
          "internalType": "uint256[]",
          "name": "_values",
          "type": "uint256[]"
        }
      ],
      "name": "initialize",
      "outputs": [],
      "stateMutability": "nonpayable",
      "type": "function"
    },
    {
      "inputs": [],
      "name": "initializeNonPayable",
      "outputs": [],
      "stateMutability": "nonpayable",
      "type": "function"
    },
    {
      "inputs": [
        {
          "internalType": "uint256",
          "name": "_value",
          "type": "uint256"
        }
      ],
      "name": "initializeNonPayable",
      "outputs": [],
      "stateMutability": "nonpayable",
      "type": "function"
    },
    {
      "inputs": [
        {
          "internalType": "uint256",
          "name": "_value",
          "type": "uint256"
        }
      ],
      "name": "initializePayable",
      "outputs": [],
      "stateMutability": "payable",
      "type": "function"
    },
    {
      "inputs": [],
      "name": "initializePayable",
      "outputs": [],
      "stateMutability": "payable",
      "type": "function"
    },
    {
      "inputs": [],
      "name": "reverts",
      "outputs": [],
      "stateMutability": "pure",
      "type": "function"
    },
    {
      "inputs": [],
      "name": "text",
      "outputs": [
        {
          "internalType": "string",
          "name": "",
          "type": "string"
        }
      ],
      "stateMutability": "view",
      "type": "function"
    },
    {
      "inputs": [],
      "name": "value",
      "outputs": [
        {
          "internalType": "uint256",
          "name": "",
          "type": "uint256"
        }
      ],
      "stateMutability": "view",
      "type": "function"
    },
    {
      "inputs": [
        {
          "internalType": "uint256",
          "name": "",
          "type": "uint256"
        }
      ],
      "name": "values",
      "outputs": [
        {
          "internalType": "uint256",
          "name": "",
          "type": "uint256"
        }
      ],
      "stateMutability": "view",
      "type": "function"
    },
    {
      "inputs": [
        {
          "internalType": "uint256",
          "name": "newVal",
          "type": "uint256"
        }
      ],
      "name": "migrate",
      "outputs": [],
      "stateMutability": "payable",
      "type": "function"
    },
    {
      "inputs": [],
      "name": "version",
      "outputs": [
        {
          "internalType": "string",
          "name": "",
          "type": "string"
        }
      ],
      "stateMutability": "pure",
      "type": "function"
    }
  ],
  "bytecode": "0x608060405234801561001057600080fd5b5061074c806100206000396000f3fe6080604052600436106100a75760003560e01c806354fd4d501161006457806354fd4d50146101f15780635ba8d2ad146102815780635e383d21146102bc5780636d4ce63c1461030b5780639fba1f9a14610338578063d31f8b6b14610342576100a7565b806316eaa247146100ac5780631f1bd692146100da578063227367d51461016a5780633bccbbc9146101815780633fa4f24514610198578063454b0608146101c3575b600080fd5b6100d8600480360360208110156100c257600080fd5b81019080803590602001909291905050506104a8565b005b3480156100e657600080fd5b506100ef6104b2565b6040518080602001828103825283818151815260200191508051906020019080838360005b8381101561012f578082015181840152602081019050610114565b50505050905090810190601f16801561015c5780820380516001836020036101000a031916815260200191505b509250505060405180910390f35b34801561017657600080fd5b5061017f610550565b005b34801561018d57600080fd5b5061019661055a565b005b3480156101a457600080fd5b506101ad610567565b6040518082815260200191505060405180910390f35b6101ef600480360360208110156101d957600080fd5b810190808035906020019092919050505061056d565b005b3480156101fd57600080fd5b50610206610577565b6040518080602001828103825283818151815260200191508051906020019080838360005b8381101561024657808201518184015260208101905061022b565b50505050905090810190601f1680156102735780820380516001836020036101000a031916815260200191505b509250505060405180910390f35b34801561028d57600080fd5b506102ba600480360360208110156102a457600080fd5b81019080803590602001909291905050506105b4565b005b3480156102c857600080fd5b506102f5600480360360208110156102df57600080fd5b81019080803590602001909291905050506105be565b6040518082815260200191505060405180910390f35b34801561031757600080fd5b506103206105df565b60405180821515815260200191505060405180910390f35b6103406105e8565b005b34801561034e57600080fd5b506104a66004803603606081101561036557600080fd5b81019080803590602001909291908035906020019064010000000081111561038c57600080fd5b82018360208201111561039e57600080fd5b803590602001918460018302840111640100000000831117156103c057600080fd5b91908080601f016020809104026020016040519081016040528093929190818152602001838380828437600081840152601f19601f8201169050808301925050505050505091929192908035906020019064010000000081111561042357600080fd5b82018360208201111561043557600080fd5b8035906020019184602083028401116401000000008311171561045757600080fd5b919080806020026020016040519081016040528093929190818152602001838360200280828437600081840152601f19601f8201169050808301925050505050505091929192905050506105f2565b005b8060008190555050565b60018054600181600116156101000203166002900480601f0160208091040260200160405190810160405280929190818152602001828054600181600116156101000203166002900480156105485780601f1061051d57610100808354040283529160200191610548565b820191906000526020600020905b81548152906001019060200180831161052b57829003601f168201915b505050505081565b600a600081905550565b600061056557600080fd5b565b60005481565b8060008190555050565b60606040518060400160405280600281526020017f5632000000000000000000000000000000000000000000000000000000000000815250905090565b8060008190555050565b600281815481106105cb57fe5b906000526020600020016000915090505481565b60006001905090565b6064600081905550565b82600081905550816001908051906020019061060f92919061062c565b5080600290805190602001906106269291906106ac565b50505050565b828054600181600116156101000203166002900490600052602060002090601f016020900481019282601f1061066d57805160ff191683800117855561069b565b8280016001018555821561069b579182015b8281111561069a57825182559160200191906001019061067f565b5b5090506106a891906106f9565b5090565b8280548282559060005260206000209081019282156106e8579160200282015b828111156106e75782518255916020019190600101906106cc565b5b5090506106f591906106f9565b5090565b5b808211156107125760008160009055506001016106fa565b509056fea2646970667358221220db4e16b094c347ab8806417a7322303bda7c69f4d97fda4f1fae54f86b23923464736f6c634300060c0033",
  "immutableReferences": {},
  "source": "// SPDX-License-Identifier: MIT\n\npragma solidity >=0.6.0 <0.8.0;\n\nabstract contract Impl {\n  function version() public pure virtual returns (string memory); \n}\n\ncontract DummyImplementation {\n  uint256 public value;\n  string public text;\n  uint256[] public values;\n\n  function initializeNonPayable() public {\n    value = 10;\n  }\n\n  function initializePayable() public payable {\n    value = 100;\n  }\n\n  function initializeNonPayable(uint256 _value) public {\n    value = _value;\n  }\n\n  function initializePayable(uint256 _value) public payable {\n    value = _value;\n  }\n\n  function initialize(uint256 _value, string memory _text, uint256[] memory _values) public {\n    value = _value;\n    text = _text;\n    values = _values;\n  }\n\n  function get() public pure returns (bool) {\n    return true;\n  }\n\n  function version() public pure virtual returns (string memory) {\n    return \"V1\";\n  }\n\n  function reverts() public pure {\n    require(false);\n  }\n}\n\ncontract DummyImplementationV2 is DummyImplementation {\n  function migrate(uint256 newVal) public payable {\n    value = newVal;\n  }\n\n  function version() public pure override returns (string memory) {\n    return \"V2\";\n  }\n}\n",
  "sourcePath": "/Users/LordeYeti/Downloads/NIFTY/nftfy-v1-core/contracts/contracts/mocks/DummyImplementation.sol",
  "compiler": {
    "name": "solc",
    "version": "0.6.12+commit.27d51765.Emscripten.clang"
  },
  "schemaVersion": "3.4.3",
  "updatedAt": "2021-12-09T09:51:18.646Z",
  "devdoc": {
    "kind": "dev",
    "methods": {},
    "version": 1
  },
  "userdoc": {
    "kind": "user",
    "methods": {},
    "version": 1
  }
}