{
  "contractName": "ERC721Wrapper",
  "abi": [
    {
      "inputs": [
        {
          "internalType": "string",
          "name": "_name",
          "type": "string"
        },
        {
          "internalType": "string",
          "name": "_symbol",
          "type": "string"
        },
        {
          "internalType": "contract IERC721",
          "name": "_target",
          "type": "address"
        }
      ],
      "stateMutability": "nonpayable",
      "type": "constructor"
    },
    {
      "anonymous": false,
      "inputs": [
        {
          "indexed": true,
          "internalType": "address",
          "name": "owner",
          "type": "address"
        },
        {
          "indexed": true,
          "internalType": "address",
          "name": "approved",
          "type": "address"
        },
        {
          "indexed": true,
          "internalType": "uint256",
          "name": "tokenId",
          "type": "uint256"
        }
      ],
      "name": "Approval",
      "type": "event"
    },
    {
      "anonymous": false,
      "inputs": [
        {
          "indexed": true,
          "internalType": "address",
          "name": "owner",
          "type": "address"
        },
        {
          "indexed": true,
          "internalType": "address",
          "name": "operator",
          "type": "address"
        },
        {
          "indexed": false,
          "internalType": "bool",
          "name": "approved",
          "type": "bool"
        }
      ],
      "name": "ApprovalForAll",
      "type": "event"
    },
    {
      "anonymous": false,
      "inputs": [
        {
          "indexed": true,
          "internalType": "address",
          "name": "previousOwner",
          "type": "address"
        },
        {
          "indexed": true,
          "internalType": "address",
          "name": "newOwner",
          "type": "address"
        }
      ],
      "name": "OwnershipTransferred",
      "type": "event"
    },
    {
      "anonymous": false,
      "inputs": [
        {
          "indexed": true,
          "internalType": "address",
          "name": "from",
          "type": "address"
        },
        {
          "indexed": true,
          "internalType": "address",
          "name": "to",
          "type": "address"
        },
        {
          "indexed": true,
          "internalType": "uint256",
          "name": "tokenId",
          "type": "uint256"
        }
      ],
      "name": "Transfer",
      "type": "event"
    },
    {
      "inputs": [
        {
          "internalType": "address",
          "name": "to",
          "type": "address"
        },
        {
          "internalType": "uint256",
          "name": "tokenId",
          "type": "uint256"
        }
      ],
      "name": "approve",
      "outputs": [],
      "stateMutability": "nonpayable",
      "type": "function"
    },
    {
      "inputs": [
        {
          "internalType": "address",
          "name": "owner",
          "type": "address"
        }
      ],
      "name": "balanceOf",
      "outputs": [
        {
          "internalType": "uint256",
          "name": "",
          "type": "uint256"
        }
      ],
      "stateMutability": "view",
      "type": "function"
    },
    {
      "inputs": [],
      "name": "baseURI",
      "outputs": [
        {
          "internalType": "string",
          "name": "",
          "type": "string"
        }
      ],
      "stateMutability": "view",
      "type": "function"
    },
    {
      "inputs": [
        {
          "internalType": "uint256",
          "name": "tokenId",
          "type": "uint256"
        }
      ],
      "name": "getApproved",
      "outputs": [
        {
          "internalType": "address",
          "name": "",
          "type": "address"
        }
      ],
      "stateMutability": "view",
      "type": "function"
    },
    {
      "inputs": [
        {
          "internalType": "address",
          "name": "owner",
          "type": "address"
        },
        {
          "internalType": "address",
          "name": "operator",
          "type": "address"
        }
      ],
      "name": "isApprovedForAll",
      "outputs": [
        {
          "internalType": "bool",
          "name": "",
          "type": "bool"
        }
      ],
      "stateMutability": "view",
      "type": "function"
    },
    {
      "inputs": [],
      "name": "name",
      "outputs": [
        {
          "internalType": "string",
          "name": "",
          "type": "string"
        }
      ],
      "stateMutability": "view",
      "type": "function"
    },
    {
      "inputs": [],
      "name": "owner",
      "outputs": [
        {
          "internalType": "address",
          "name": "",
          "type": "address"
        }
      ],
      "stateMutability": "view",
      "type": "function"
    },
    {
      "inputs": [
        {
          "internalType": "uint256",
          "name": "tokenId",
          "type": "uint256"
        }
      ],
      "name": "ownerOf",
      "outputs": [
        {
          "internalType": "address",
          "name": "",
          "type": "address"
        }
      ],
      "stateMutability": "view",
      "type": "function"
    },
    {
      "inputs": [],
      "name": "renounceOwnership",
      "outputs": [],
      "stateMutability": "nonpayable",
      "type": "function"
    },
    {
      "inputs": [
        {
          "internalType": "address",
          "name": "from",
          "type": "address"
        },
        {
          "internalType": "address",
          "name": "to",
          "type": "address"
        },
        {
          "internalType": "uint256",
          "name": "tokenId",
          "type": "uint256"
        }
      ],
      "name": "safeTransferFrom",
      "outputs": [],
      "stateMutability": "nonpayable",
      "type": "function"
    },
    {
      "inputs": [
        {
          "internalType": "address",
          "name": "from",
          "type": "address"
        },
        {
          "internalType": "address",
          "name": "to",
          "type": "address"
        },
        {
          "internalType": "uint256",
          "name": "tokenId",
          "type": "uint256"
        },
        {
          "internalType": "bytes",
          "name": "_data",
          "type": "bytes"
        }
      ],
      "name": "safeTransferFrom",
      "outputs": [],
      "stateMutability": "nonpayable",
      "type": "function"
    },
    {
      "inputs": [
        {
          "internalType": "address",
          "name": "operator",
          "type": "address"
        },
        {
          "internalType": "bool",
          "name": "approved",
          "type": "bool"
        }
      ],
      "name": "setApprovalForAll",
      "outputs": [],
      "stateMutability": "nonpayable",
      "type": "function"
    },
    {
      "inputs": [
        {
          "internalType": "uint256",
          "name": "",
          "type": "uint256"
        }
      ],
      "name": "shares",
      "outputs": [
        {
          "internalType": "contract ERC721Shares",
          "name": "",
          "type": "address"
        }
      ],
      "stateMutability": "view",
      "type": "function"
    },
    {
      "inputs": [
        {
          "internalType": "bytes4",
          "name": "interfaceId",
          "type": "bytes4"
        }
      ],
      "name": "supportsInterface",
      "outputs": [
        {
          "internalType": "bool",
          "name": "",
          "type": "bool"
        }
      ],
      "stateMutability": "view",
      "type": "function"
    },
    {
      "inputs": [],
      "name": "symbol",
      "outputs": [
        {
          "internalType": "string",
          "name": "",
          "type": "string"
        }
      ],
      "stateMutability": "view",
      "type": "function"
    },
    {
      "inputs": [],
      "name": "target",
      "outputs": [
        {
          "internalType": "contract IERC721",
          "name": "",
          "type": "address"
        }
      ],
      "stateMutability": "view",
      "type": "function"
    },
    {
      "inputs": [
        {
          "internalType": "uint256",
          "name": "index",
          "type": "uint256"
        }
      ],
      "name": "tokenByIndex",
      "outputs": [
        {
          "internalType": "uint256",
          "name": "",
          "type": "uint256"
        }
      ],
      "stateMutability": "view",
      "type": "function"
    },
    {
      "inputs": [
        {
          "internalType": "address",
          "name": "owner",
          "type": "address"
        },
        {
          "internalType": "uint256",
          "name": "index",
          "type": "uint256"
        }
      ],
      "name": "tokenOfOwnerByIndex",
      "outputs": [
        {
          "internalType": "uint256",
          "name": "",
          "type": "uint256"
        }
      ],
      "stateMutability": "view",
      "type": "function"
    },
    {
      "inputs": [
        {
          "internalType": "uint256",
          "name": "tokenId",
          "type": "uint256"
        }
      ],
      "name": "tokenURI",
      "outputs": [
        {
          "internalType": "string",
          "name": "",
          "type": "string"
        }
      ],
      "stateMutability": "view",
      "type": "function"
    },
    {
      "inputs": [],
      "name": "totalSupply",
      "outputs": [
        {
          "internalType": "uint256",
          "name": "",
          "type": "uint256"
        }
      ],
      "stateMutability": "view",
      "type": "function"
    },
    {
      "inputs": [
        {
          "internalType": "address",
          "name": "from",
          "type": "address"
        },
        {
          "internalType": "address",
          "name": "to",
          "type": "address"
        },
        {
          "internalType": "uint256",
          "name": "tokenId",
          "type": "uint256"
        }
      ],
      "name": "transferFrom",
      "outputs": [],
      "stateMutability": "nonpayable",
      "type": "function"
    },
    {
      "inputs": [
        {
          "internalType": "address",
          "name": "newOwner",
          "type": "address"
        }
      ],
      "name": "transferOwnership",
      "outputs": [],
      "stateMutability": "nonpayable",
      "type": "function"
    },
    {
      "inputs": [
        {
          "internalType": "uint256",
          "name": "_tokenId",
          "type": "uint256"
        }
      ],
      "name": "securitized",
      "outputs": [
        {
          "internalType": "bool",
          "name": "_securitized",
          "type": "bool"
        }
      ],
      "stateMutability": "view",
      "type": "function"
    },
    {
      "inputs": [],
      "name": "historyLength",
      "outputs": [
        {
          "internalType": "uint256",
          "name": "_length",
          "type": "uint256"
        }
      ],
      "stateMutability": "view",
      "type": "function"
    },
    {
      "inputs": [
        {
          "internalType": "uint256",
          "name": "_index",
          "type": "uint256"
        }
      ],
      "name": "historyAt",
      "outputs": [
        {
          "internalType": "contract ERC721Shares",
          "name": "_shares",
          "type": "address"
        }
      ],
      "stateMutability": "view",
      "type": "function"
    },
    {
      "inputs": [
        {
          "internalType": "address",
          "name": "_from",
          "type": "address"
        },
        {
          "internalType": "uint256",
          "name": "_tokenId",
          "type": "uint256"
        },
        {
          "internalType": "bool",
          "name": "_remnant",
          "type": "bool"
        },
        {
          "internalType": "contract ERC721Shares",
          "name": "_shares",
          "type": "address"
        }
      ],
      "name": "_insert",
      "outputs": [],
      "stateMutability": "nonpayable",
      "type": "function"
    },
    {
      "inputs": [
        {
          "internalType": "address",
          "name": "_from",
          "type": "address"
        },
        {
          "internalType": "uint256",
          "name": "_tokenId",
          "type": "uint256"
        },
        {
          "internalType": "bool",
          "name": "_remnant",
          "type": "bool"
        }
      ],
      "name": "_remove",
      "outputs": [],
      "stateMutability": "nonpayable",
      "type": "function"
    },
    {
      "inputs": [],
      "name": "_forget",
      "outputs": [],
      "stateMutability": "nonpayable",
      "type": "function"
    }
  ],
  "bytecode": "0x60a06040523480156200001157600080fd5b506040516200405c3803806200405c833981810160405260608110156200003757600080fd5b81019080805160405193929190846401000000008211156200005857600080fd5b838201915060208201858111156200006f57600080fd5b82518660018202830111640100000000821117156200008d57600080fd5b8083526020830192505050908051906020019080838360005b83811015620000c3578082015181840152602081019050620000a6565b50505050905090810190601f168015620000f15780820380516001836020036101000a031916815260200191505b50604052602001805160405193929190846401000000008211156200011557600080fd5b838201915060208201858111156200012c57600080fd5b82518660018202830111640100000000821117156200014a57600080fd5b8083526020830192505050908051906020019080838360005b838110156200018057808201518184015260208101905062000163565b50505050905090810190601f168015620001ae5780820380516001836020036101000a031916815260200191505b506040526020018051906020019092919050505082826000620001d66200034860201b60201c565b9050806000806101000a81548173ffffffffffffffffffffffffffffffffffffffff021916908373ffffffffffffffffffffffffffffffffffffffff1602179055508073ffffffffffffffffffffffffffffffffffffffff16600073ffffffffffffffffffffffffffffffffffffffff167f8be0079c531659141344cd1fd0a4f28419497f9722a3daafe3b4186f6b6457e060405160405180910390a3506200028c6301ffc9a760e01b6200035060201b60201c565b8160079080519060200190620002a492919062000459565b508060089080519060200190620002bd92919062000459565b50620002d66380ac58cd60e01b6200035060201b60201c565b620002ee635b5e139f60e01b6200035060201b60201c565b6200030663780e9d6360e01b6200035060201b60201c565b50508073ffffffffffffffffffffffffffffffffffffffff1660808173ffffffffffffffffffffffffffffffffffffffff1660601b81525050505050620004ff565b600033905090565b63ffffffff60e01b817bffffffffffffffffffffffffffffffffffffffffffffffffffffffff19161415620003ed576040517f08c379a000000000000000000000000000000000000000000000000000000000815260040180806020018281038252601c8152602001807f4552433136353a20696e76616c696420696e746572666163652069640000000081525060200191505060405180910390fd5b6001806000837bffffffffffffffffffffffffffffffffffffffffffffffffffffffff19167bffffffffffffffffffffffffffffffffffffffffffffffffffffffff1916815260200190815260200160002060006101000a81548160ff02191690831515021790555050565b828054600181600116156101000203166002900490600052602060002090601f016020900481019282601f106200049c57805160ff1916838001178555620004cd565b82800160010185558215620004cd579182015b82811115620004cc578251825591602001919060010190620004af565b5b509050620004dc9190620004e0565b5090565b5b80821115620004fb576000816000905550600101620004e1565b5090565b60805160601c613b3a62000522600039806113175280611dd05250613b3a6000f3fe608060405234801561001057600080fd5b50600436106101c45760003560e01c806370a08231116100f9578063c87b56dd11610097578063e985e9c511610071578063e985e9c514610a91578063efaa06d314610b0b578063f1279c8c14610b63578063f2fde38b14610b81576101c4565b8063c87b56dd14610972578063d4b8399214610a19578063d5e5afa614610a4d576101c4565b80638da5cb5b116100d35780638da5cb5b1461076657806395d89b411461079a578063a22cb4651461081d578063b88d4fde1461086d576101c4565b806370a08231146106fa578063715018a6146107525780638739a92d1461075c576101c4565b80632f745c591161016657806357a858fc1161014057806357a858fc1461054d5780636352211e146105a55780636b7ac257146105fd5780636c0360eb14610677576101c4565b80632f745c591461043b57806342842e0e1461049d5780634f6ccce71461050b576101c4565b8063095ea7b3116101a2578063095ea7b31461030757806318160ddd1461035557806323b872dd14610373578063290bfdc5146103e1576101c4565b806301ffc9a7146101c957806306fdde031461022c578063081812fc146102af575b600080fd5b610214600480360360208110156101df57600080fd5b8101908080357bffffffffffffffffffffffffffffffffffffffffffffffffffffffff19169060200190929190505050610bc5565b60405180821515815260200191505060405180910390f35b610234610c2d565b6040518080602001828103825283818151815260200191508051906020019080838360005b83811015610274578082015181840152602081019050610259565b50505050905090810190601f1680156102a15780820380516001836020036101000a031916815260200191505b509250505060405180910390f35b6102db600480360360208110156102c557600080fd5b8101908080359060200190929190505050610ccf565b604051808273ffffffffffffffffffffffffffffffffffffffff16815260200191505060405180910390f35b6103536004803603604081101561031d57600080fd5b81019080803573ffffffffffffffffffffffffffffffffffffffff16906020019092919080359060200190929190505050610d6a565b005b61035d610eae565b6040518082815260200191505060405180910390f35b6103df6004803603606081101561038957600080fd5b81019080803573ffffffffffffffffffffffffffffffffffffffff169060200190929190803573ffffffffffffffffffffffffffffffffffffffff16906020019092919080359060200190929190505050610ebf565b005b610439600480360360608110156103f757600080fd5b81019080803573ffffffffffffffffffffffffffffffffffffffff16906020019092919080359060200190929190803515159060200190929190505050610f35565b005b6104876004803603604081101561045157600080fd5b81019080803573ffffffffffffffffffffffffffffffffffffffff16906020019092919080359060200190929190505050611053565b6040518082815260200191505060405180910390f35b610509600480360360608110156104b357600080fd5b81019080803573ffffffffffffffffffffffffffffffffffffffff169060200190929190803573ffffffffffffffffffffffffffffffffffffffff169060200190929190803590602001909291905050506110ae565b005b6105376004803603602081101561052157600080fd5b81019080803590602001909291905050506110ce565b6040518082815260200191505060405180910390f35b6105796004803603602081101561056357600080fd5b81019080803590602001909291905050506110f1565b604051808273ffffffffffffffffffffffffffffffffffffffff16815260200191505060405180910390f35b6105d1600480360360208110156105bb57600080fd5b8101908080359060200190929190505050611124565b604051808273ffffffffffffffffffffffffffffffffffffffff16815260200191505060405180910390f35b6106756004803603608081101561061357600080fd5b81019080803573ffffffffffffffffffffffffffffffffffffffff16906020019092919080359060200190929190803515159060200190929190803573ffffffffffffffffffffffffffffffffffffffff16906020019092919050505061115b565b005b61067f6114cd565b6040518080602001828103825283818151815260200191508051906020019080838360005b838110156106bf5780820151818401526020810190506106a4565b50505050905090810190601f1680156106ec5780820380516001836020036101000a031916815260200191505b509250505060405180910390f35b61073c6004803603602081101561071057600080fd5b81019080803573ffffffffffffffffffffffffffffffffffffffff16906020019092919050505061156f565b6040518082815260200191505060405180910390f35b61075a611644565b005b6107646117ca565b005b61076e6117ec565b604051808273ffffffffffffffffffffffffffffffffffffffff16815260200191505060405180910390f35b6107a2611815565b6040518080602001828103825283818151815260200191508051906020019080838360005b838110156107e25780820151818401526020810190506107c7565b50505050905090810190601f16801561080f5780820380516001836020036101000a031916815260200191505b509250505060405180910390f35b61086b6004803603604081101561083357600080fd5b81019080803573ffffffffffffffffffffffffffffffffffffffff1690602001909291908035151590602001909291905050506118b7565b005b6109706004803603608081101561088357600080fd5b81019080803573ffffffffffffffffffffffffffffffffffffffff169060200190929190803573ffffffffffffffffffffffffffffffffffffffff16906020019092919080359060200190929190803590602001906401000000008111156108ea57600080fd5b8201836020820111156108fc57600080fd5b8035906020019184600183028401116401000000008311171561091e57600080fd5b91908080601f016020809104026020016040519081016040528093929190818152602001838380828437600081840152601f19601f820116905080830192505050505050509192919290505050611a6d565b005b61099e6004803603602081101561098857600080fd5b8101908080359060200190929190505050611ae5565b6040518080602001828103825283818151815260200191508051906020019080838360005b838110156109de5780820151818401526020810190506109c3565b50505050905090810190601f168015610a0b5780820380516001836020036101000a031916815260200191505b509250505060405180910390f35b610a21611dce565b604051808273ffffffffffffffffffffffffffffffffffffffff16815260200191505060405180910390f35b610a7960048036036020811015610a6357600080fd5b8101908080359060200190929190505050611df2565b60405180821515815260200191505060405180910390f35b610af360048036036040811015610aa757600080fd5b81019080803573ffffffffffffffffffffffffffffffffffffffff169060200190929190803573ffffffffffffffffffffffffffffffffffffffff169060200190929190505050611e5e565b60405180821515815260200191505060405180910390f35b610b3760048036036020811015610b2157600080fd5b8101908080359060200190929190505050611ef2565b604051808273ffffffffffffffffffffffffffffffffffffffff16815260200191505060405180910390f35b610b6b611f0f565b6040518082815260200191505060405180910390f35b610bc360048036036020811015610b9757600080fd5b81019080803573ffffffffffffffffffffffffffffffffffffffff169060200190929190505050611f20565b005b600060016000837bffffffffffffffffffffffffffffffffffffffffffffffffffffffff19167bffffffffffffffffffffffffffffffffffffffffffffffffffffffff1916815260200190815260200160002060009054906101000a900460ff169050919050565b606060078054600181600116156101000203166002900480601f016020809104026020016040519081016040528092919081815260200182805460018160011615610100020316600290048015610cc55780601f10610c9a57610100808354040283529160200191610cc5565b820191906000526020600020905b815481529060010190602001808311610ca857829003601f168201915b5050505050905090565b6000610cda8261212b565b610d2f576040517f08c379a000000000000000000000000000000000000000000000000000000000815260040180806020018281038252602c815260200180613a03602c913960400191505060405180910390fd5b6005600083815260200190815260200160002060009054906101000a900473ffffffffffffffffffffffffffffffffffffffff169050919050565b6000610d7582611124565b90508073ffffffffffffffffffffffffffffffffffffffff168373ffffffffffffffffffffffffffffffffffffffff161415610dfc576040517f08c379a0000000000000000000000000000000000000000000000000000000008152600401808060200182810382526021815260200180613ab36021913960400191505060405180910390fd5b8073ffffffffffffffffffffffffffffffffffffffff16610e1b612148565b73ffffffffffffffffffffffffffffffffffffffff161480610e4a5750610e4981610e44612148565b611e5e565b5b610e9f576040517f08c379a00000000000000000000000000000000000000000000000000000000081526004018080602001828103825260388152602001806139566038913960400191505060405180910390fd5b610ea98383612150565b505050565b6000610eba6003612209565b905090565b610ed0610eca612148565b8261221e565b610f25576040517f08c379a0000000000000000000000000000000000000000000000000000000008152600401808060200182810382526031815260200180613ad46031913960400191505060405180910390fd5b610f30838383612312565b505050565b60003390508073ffffffffffffffffffffffffffffffffffffffff16600b600085815260200190815260200160002060009054906101000a900473ffffffffffffffffffffffffffffffffffffffff1673ffffffffffffffffffffffffffffffffffffffff1614610fa257fe5b6000600b600085815260200190815260200160002060006101000a81548173ffffffffffffffffffffffffffffffffffffffff021916908373ffffffffffffffffffffffffffffffffffffffff1602179055506000826110025781611004565b845b905061100f84611124565b73ffffffffffffffffffffffffffffffffffffffff168173ffffffffffffffffffffffffffffffffffffffff161461104357fe5b61104c84612555565b5050505050565b60006110a682600260008673ffffffffffffffffffffffffffffffffffffffff1673ffffffffffffffffffffffffffffffffffffffff16815260200190815260200160002061268f90919063ffffffff16565b905092915050565b6110c983838360405180602001604052806000815250611a6d565b505050565b6000806110e58360036126a990919063ffffffff16565b50905080915050919050565b600b6020528060005260406000206000915054906101000a900473ffffffffffffffffffffffffffffffffffffffff1681565b6000611154826040518060600160405280602981526020016139b86029913960036126d59092919063ffffffff16565b9050919050565b611163612148565b73ffffffffffffffffffffffffffffffffffffffff1660008054906101000a900473ffffffffffffffffffffffffffffffffffffffff1673ffffffffffffffffffffffffffffffffffffffff1614611223576040517f08c379a00000000000000000000000000000000000000000000000000000000081526004018080602001828103825260208152602001807f4f776e61626c653a2063616c6c6572206973206e6f7420746865206f776e657281525060200191505060405180910390fd5b600073ffffffffffffffffffffffffffffffffffffffff16600b600085815260200190815260200160002060009054906101000a900473ffffffffffffffffffffffffffffffffffffffff1673ffffffffffffffffffffffffffffffffffffffff161461128c57fe5b80600b600085815260200190815260200160002060006101000a81548173ffffffffffffffffffffffffffffffffffffffff021916908373ffffffffffffffffffffffffffffffffffffffff1602179055506112f281600c6126f490919063ffffffff16565b6112f857fe5b6000826113055781611307565b845b90506113138185612724565b60007f0000000000000000000000000000000000000000000000000000000000000000905060608173ffffffffffffffffffffffffffffffffffffffff1673__SafeERC721Metadata____________________6335ce8e7f9091886040518363ffffffff1660e01b8152600401808373ffffffffffffffffffffffffffffffffffffffff1681526020018281526020019250505060006040518083038186803b1580156113bf57600080fd5b505af41580156113d3573d6000803e3d6000fd5b505050506040513d6000823e3d601f19601f8201168201806040525060208110156113fd57600080fd5b810190808051604051939291908464010000000082111561141d57600080fd5b8382019150602082018581111561143357600080fd5b825186600182028301116401000000008211171561145057600080fd5b8083526020830192505050908051906020019080838360005b83811015611484578082015181840152602081019050611469565b50505050905090810190601f1680156114b15780820380516001836020036101000a031916815260200191505b5060405250505090506114c48682612742565b50505050505050565b6060600a8054600181600116156101000203166002900480601f0160208091040260200160405190810160405280929190818152602001828054600181600116156101000203166002900480156115655780601f1061153a57610100808354040283529160200191611565565b820191906000526020600020905b81548152906001019060200180831161154857829003601f168201915b5050505050905090565b60008073ffffffffffffffffffffffffffffffffffffffff168273ffffffffffffffffffffffffffffffffffffffff1614156115f6576040517f08c379a000000000000000000000000000000000000000000000000000000000815260040180806020018281038252602a81526020018061398e602a913960400191505060405180910390fd5b61163d600260008473ffffffffffffffffffffffffffffffffffffffff1673ffffffffffffffffffffffffffffffffffffffff1681526020019081526020016000206127cc565b9050919050565b61164c612148565b73ffffffffffffffffffffffffffffffffffffffff1660008054906101000a900473ffffffffffffffffffffffffffffffffffffffff1673ffffffffffffffffffffffffffffffffffffffff161461170c576040517f08c379a00000000000000000000000000000000000000000000000000000000081526004018080602001828103825260208152602001807f4f776e61626c653a2063616c6c6572206973206e6f7420746865206f776e657281525060200191505060405180910390fd5b600073ffffffffffffffffffffffffffffffffffffffff1660008054906101000a900473ffffffffffffffffffffffffffffffffffffffff1673ffffffffffffffffffffffffffffffffffffffff167f8be0079c531659141344cd1fd0a4f28419497f9722a3daafe3b4186f6b6457e060405160405180910390a360008060006101000a81548173ffffffffffffffffffffffffffffffffffffffff021916908373ffffffffffffffffffffffffffffffffffffffff160217905550565b60003390506117e381600c6127e190919063ffffffff16565b6117e957fe5b50565b60008060009054906101000a900473ffffffffffffffffffffffffffffffffffffffff16905090565b606060088054600181600116156101000203166002900480601f0160208091040260200160405190810160405280929190818152602001828054600181600116156101000203166002900480156118ad5780601f10611882576101008083540402835291602001916118ad565b820191906000526020600020905b81548152906001019060200180831161189057829003601f168201915b5050505050905090565b6118bf612148565b73ffffffffffffffffffffffffffffffffffffffff168273ffffffffffffffffffffffffffffffffffffffff161415611960576040517f08c379a00000000000000000000000000000000000000000000000000000000081526004018080602001828103825260198152602001807f4552433732313a20617070726f766520746f2063616c6c65720000000000000081525060200191505060405180910390fd5b806006600061196d612148565b73ffffffffffffffffffffffffffffffffffffffff1673ffffffffffffffffffffffffffffffffffffffff16815260200190815260200160002060008473ffffffffffffffffffffffffffffffffffffffff1673ffffffffffffffffffffffffffffffffffffffff16815260200190815260200160002060006101000a81548160ff0219169083151502179055508173ffffffffffffffffffffffffffffffffffffffff16611a1a612148565b73ffffffffffffffffffffffffffffffffffffffff167f17307eab39ab6107e8899845ad3d59bd9653f200f220920489ca2b5937696c318360405180821515815260200191505060405180910390a35050565b611a7e611a78612148565b8361221e565b611ad3576040517f08c379a0000000000000000000000000000000000000000000000000000000008152600401808060200182810382526031815260200180613ad46031913960400191505060405180910390fd5b611adf84848484612811565b50505050565b6060611af08261212b565b611b45576040517f08c379a000000000000000000000000000000000000000000000000000000000815260040180806020018281038252602f815260200180613a84602f913960400191505060405180910390fd5b6060600960008481526020019081526020016000208054600181600116156101000203166002900480601f016020809104026020016040519081016040528092919081815260200182805460018160011615610100020316600290048015611bee5780601f10611bc357610100808354040283529160200191611bee565b820191906000526020600020905b815481529060010190602001808311611bd157829003601f168201915b505050505090506000600a8054600181600116156101000203166002900490501415611c1d5780915050611dc9565b600081511115611cf657600a816040516020018083805460018160011615610100020316600290048015611c885780601f10611c66576101008083540402835291820191611c88565b820191906000526020600020905b815481529060010190602001808311611c74575b505082805190602001908083835b60208310611cb95780518252602082019150602081019050602083039250611c96565b6001836020036101000a03801982511681845116808217855250505050505090500192505050604051602081830303815290604052915050611dc9565b600a611d0184612883565b6040516020018083805460018160011615610100020316600290048015611d5f5780601f10611d3d576101008083540402835291820191611d5f565b820191906000526020600020905b815481529060010190602001808311611d4b575b505082805190602001908083835b60208310611d905780518252602082019150602081019050602083039250611d6d565b6001836020036101000a038019825116818451168082178552505050505050905001925050506040516020818303038152906040529150505b919050565b7f000000000000000000000000000000000000000000000000000000000000000081565b60008073ffffffffffffffffffffffffffffffffffffffff16600b600084815260200190815260200160002060009054906101000a900473ffffffffffffffffffffffffffffffffffffffff1673ffffffffffffffffffffffffffffffffffffffff1614159050919050565b6000600660008473ffffffffffffffffffffffffffffffffffffffff1673ffffffffffffffffffffffffffffffffffffffff16815260200190815260200160002060008373ffffffffffffffffffffffffffffffffffffffff1673ffffffffffffffffffffffffffffffffffffffff16815260200190815260200160002060009054906101000a900460ff16905092915050565b6000611f0882600c6129ca90919063ffffffff16565b9050919050565b6000611f1b600c6129e4565b905090565b611f28612148565b73ffffffffffffffffffffffffffffffffffffffff1660008054906101000a900473ffffffffffffffffffffffffffffffffffffffff1673ffffffffffffffffffffffffffffffffffffffff1614611fe8576040517f08c379a00000000000000000000000000000000000000000000000000000000081526004018080602001828103825260208152602001807f4f776e61626c653a2063616c6c6572206973206e6f7420746865206f776e657281525060200191505060405180910390fd5b600073ffffffffffffffffffffffffffffffffffffffff168173ffffffffffffffffffffffffffffffffffffffff16141561206e576040517f08c379a00000000000000000000000000000000000000000000000000000000081526004018080602001828103825260268152602001806138ba6026913960400191505060405180910390fd5b8073ffffffffffffffffffffffffffffffffffffffff1660008054906101000a900473ffffffffffffffffffffffffffffffffffffffff1673ffffffffffffffffffffffffffffffffffffffff167f8be0079c531659141344cd1fd0a4f28419497f9722a3daafe3b4186f6b6457e060405160405180910390a3806000806101000a81548173ffffffffffffffffffffffffffffffffffffffff021916908373ffffffffffffffffffffffffffffffffffffffff16021790555050565b60006121418260036129f990919063ffffffff16565b9050919050565b600033905090565b816005600083815260200190815260200160002060006101000a81548173ffffffffffffffffffffffffffffffffffffffff021916908373ffffffffffffffffffffffffffffffffffffffff160217905550808273ffffffffffffffffffffffffffffffffffffffff166121c383611124565b73ffffffffffffffffffffffffffffffffffffffff167f8c5be1e5ebec7d5bd14f71427d1e84f3dd0314c0f7b2291e5b200ac8c7c3b92560405160405180910390a45050565b600061221782600001612a13565b9050919050565b60006122298261212b565b61227e576040517f08c379a000000000000000000000000000000000000000000000000000000000815260040180806020018281038252602c81526020018061392a602c913960400191505060405180910390fd5b600061228983611124565b90508073ffffffffffffffffffffffffffffffffffffffff168473ffffffffffffffffffffffffffffffffffffffff1614806122f857508373ffffffffffffffffffffffffffffffffffffffff166122e084610ccf565b73ffffffffffffffffffffffffffffffffffffffff16145b8061230957506123088185611e5e565b5b91505092915050565b8273ffffffffffffffffffffffffffffffffffffffff1661233282611124565b73ffffffffffffffffffffffffffffffffffffffff161461239e576040517f08c379a0000000000000000000000000000000000000000000000000000000008152600401808060200182810382526029815260200180613a5b6029913960400191505060405180910390fd5b600073ffffffffffffffffffffffffffffffffffffffff168273ffffffffffffffffffffffffffffffffffffffff161415612424576040517f08c379a00000000000000000000000000000000000000000000000000000000081526004018080602001828103825260248152602001806138e06024913960400191505060405180910390fd5b61242f838383612a24565b61243a600082612150565b61248b81600260008673ffffffffffffffffffffffffffffffffffffffff1673ffffffffffffffffffffffffffffffffffffffff168152602001908152602001600020612a2990919063ffffffff16565b506124dd81600260008573ffffffffffffffffffffffffffffffffffffffff1673ffffffffffffffffffffffffffffffffffffffff168152602001908152602001600020612a4390919063ffffffff16565b506124f481836003612a5d9092919063ffffffff16565b50808273ffffffffffffffffffffffffffffffffffffffff168473ffffffffffffffffffffffffffffffffffffffff167fddf252ad1be2c89b69c2b068fc378daa952ba7f163c4a11628f55a4df523b3ef60405160405180910390a4505050565b600061256082611124565b905061256e81600084612a24565b612579600083612150565b600060096000848152602001908152602001600020805460018160011615610100020316600290049050146125c8576009600083815260200190815260200160002060006125c79190613780565b5b61261982600260008473ffffffffffffffffffffffffffffffffffffffff1673ffffffffffffffffffffffffffffffffffffffff168152602001908152602001600020612a2990919063ffffffff16565b5061262e826003612a9290919063ffffffff16565b5081600073ffffffffffffffffffffffffffffffffffffffff168273ffffffffffffffffffffffffffffffffffffffff167fddf252ad1be2c89b69c2b068fc378daa952ba7f163c4a11628f55a4df523b3ef60405160405180910390a45050565b600061269e8360000183612aac565b60001c905092915050565b6000806000806126bc8660000186612b2f565b915091508160001c8160001c9350935050509250929050565b60006126e8846000018460001b84612bc8565b60001c90509392505050565b600061271c836000018373ffffffffffffffffffffffffffffffffffffffff1660001b612cbe565b905092915050565b61273e828260405180602001604052806000815250612d2e565b5050565b61274b8261212b565b6127a0576040517f08c379a000000000000000000000000000000000000000000000000000000000815260040180806020018281038252602c815260200180613a2f602c913960400191505060405180910390fd5b806009600084815260200190815260200160002090805190602001906127c79291906137c8565b505050565b60006127da82600001612d9f565b9050919050565b6000612809836000018373ffffffffffffffffffffffffffffffffffffffff1660001b612db0565b905092915050565b61281c848484612312565b61282884848484612e98565b61287d576040517f08c379a00000000000000000000000000000000000000000000000000000000081526004018080602001828103825260328152602001806138886032913960400191505060405180910390fd5b50505050565b606060008214156128cb576040518060400160405280600181526020017f300000000000000000000000000000000000000000000000000000000000000081525090506129c5565b600082905060005b600082146128f5578080600101915050600a82816128ed57fe5b0491506128d3565b60608167ffffffffffffffff8111801561290e57600080fd5b506040519080825280601f01601f1916602001820160405280156129415781602001600182028036833780820191505090505b50905060006001830390508593505b600084146129bd57600a848161296257fe5b0660300160f81b8282806001900393508151811061297c57fe5b60200101907effffffffffffffffffffffffffffffffffffffffffffffffffffffffffffff1916908160001a905350600a84816129b557fe5b049350612950565b819450505050505b919050565b60006129d98360000183612aac565b60001c905092915050565b60006129f282600001612d9f565b9050919050565b6000612a0b836000018360001b6130b1565b905092915050565b600081600001805490509050919050565b505050565b6000612a3b836000018360001b612db0565b905092915050565b6000612a55836000018360001b612cbe565b905092915050565b6000612a89846000018460001b8473ffffffffffffffffffffffffffffffffffffffff1660001b6130d4565b90509392505050565b6000612aa4836000018360001b6131b0565b905092915050565b600081836000018054905011612b0d576040517f08c379a00000000000000000000000000000000000000000000000000000000081526004018080602001828103825260228152602001806138666022913960400191505060405180910390fd5b826000018281548110612b1c57fe5b9060005260206000200154905092915050565b60008082846000018054905011612b91576040517f08c379a00000000000000000000000000000000000000000000000000000000081526004018080602001828103825260228152602001806139e16022913960400191505060405180910390fd5b6000846000018481548110612ba257fe5b906000526020600020906002020190508060000154816001015492509250509250929050565b60008084600101600085815260200190815260200160002054905060008114158390612c8f576040517f08c379a00000000000000000000000000000000000000000000000000000000081526004018080602001828103825283818151815260200191508051906020019080838360005b83811015612c54578082015181840152602081019050612c39565b50505050905090810190601f168015612c815780820380516001836020036101000a031916815260200191505b509250505060405180910390fd5b50846000016001820381548110612ca257fe5b9060005260206000209060020201600101549150509392505050565b6000612cca83836132c9565b612d23578260000182908060018154018082558091505060019003906000526020600020016000909190919091505582600001805490508360010160008481526020019081526020016000208190555060019050612d28565b600090505b92915050565b612d3883836132ec565b612d456000848484612e98565b612d9a576040517f08c379a00000000000000000000000000000000000000000000000000000000081526004018080602001828103825260328152602001806138886032913960400191505060405180910390fd5b505050565b600081600001805490509050919050565b60008083600101600084815260200190815260200160002054905060008114612e8c5760006001820390506000600186600001805490500390506000866000018281548110612dfb57fe5b9060005260206000200154905080876000018481548110612e1857fe5b9060005260206000200181905550600183018760010160008381526020019081526020016000208190555086600001805480612e5057fe5b60019003818190600052602060002001600090559055866001016000878152602001908152602001600020600090556001945050505050612e92565b60009150505b92915050565b6000612eb98473ffffffffffffffffffffffffffffffffffffffff166134e0565b612ec657600190506130a9565b606061303063150b7a0260e01b612edb612148565b888787604051602401808573ffffffffffffffffffffffffffffffffffffffff1681526020018473ffffffffffffffffffffffffffffffffffffffff16815260200183815260200180602001828103825283818151815260200191508051906020019080838360005b83811015612f5f578082015181840152602081019050612f44565b50505050905090810190601f168015612f8c5780820380516001836020036101000a031916815260200191505b5095505050505050604051602081830303815290604052907bffffffffffffffffffffffffffffffffffffffffffffffffffffffff19166020820180517bffffffffffffffffffffffffffffffffffffffffffffffffffffffff8381831617835250505050604051806060016040528060328152602001613888603291398773ffffffffffffffffffffffffffffffffffffffff166134f39092919063ffffffff16565b9050600081806020019051602081101561304957600080fd5b8101908080519060200190929190505050905063150b7a0260e01b7bffffffffffffffffffffffffffffffffffffffffffffffffffffffff1916817bffffffffffffffffffffffffffffffffffffffffffffffffffffffff191614925050505b949350505050565b600080836001016000848152602001908152602001600020541415905092915050565b600080846001016000858152602001908152602001600020549050600081141561317b578460000160405180604001604052808681526020018581525090806001815401808255809150506001900390600052602060002090600202016000909190919091506000820151816000015560208201518160010155505084600001805490508560010160008681526020019081526020016000208190555060019150506131a9565b8285600001600183038154811061318e57fe5b90600052602060002090600202016001018190555060009150505b9392505050565b600080836001016000848152602001908152602001600020549050600081146132bd57600060018203905060006001866000018054905003905060008660000182815481106131fb57fe5b906000526020600020906002020190508087600001848154811061321b57fe5b906000526020600020906002020160008201548160000155600182015481600101559050506001830187600101600083600001548152602001908152602001600020819055508660000180548061326e57fe5b60019003818190600052602060002090600202016000808201600090556001820160009055505090558660010160008781526020019081526020016000206000905560019450505050506132c3565b60009150505b92915050565b600080836001016000848152602001908152602001600020541415905092915050565b600073ffffffffffffffffffffffffffffffffffffffff168273ffffffffffffffffffffffffffffffffffffffff16141561338f576040517f08c379a00000000000000000000000000000000000000000000000000000000081526004018080602001828103825260208152602001807f4552433732313a206d696e7420746f20746865207a65726f206164647265737381525060200191505060405180910390fd5b6133988161212b565b1561340b576040517f08c379a000000000000000000000000000000000000000000000000000000000815260040180806020018281038252601c8152602001807f4552433732313a20746f6b656e20616c7265616479206d696e7465640000000081525060200191505060405180910390fd5b61341760008383612a24565b61346881600260008573ffffffffffffffffffffffffffffffffffffffff1673ffffffffffffffffffffffffffffffffffffffff168152602001908152602001600020612a4390919063ffffffff16565b5061347f81836003612a5d9092919063ffffffff16565b50808273ffffffffffffffffffffffffffffffffffffffff16600073ffffffffffffffffffffffffffffffffffffffff167fddf252ad1be2c89b69c2b068fc378daa952ba7f163c4a11628f55a4df523b3ef60405160405180910390a45050565b600080823b905060008111915050919050565b6060613502848460008561350b565b90509392505050565b606082471015613566576040517f08c379a00000000000000000000000000000000000000000000000000000000081526004018080602001828103825260268152602001806139046026913960400191505060405180910390fd5b61356f856134e0565b6135e1576040517f08c379a000000000000000000000000000000000000000000000000000000000815260040180806020018281038252601d8152602001807f416464726573733a2063616c6c20746f206e6f6e2d636f6e747261637400000081525060200191505060405180910390fd5b600060608673ffffffffffffffffffffffffffffffffffffffff1685876040518082805190602001908083835b60208310613631578051825260208201915060208101905060208303925061360e565b6001836020036101000a03801982511681845116808217855250505050505090500191505060006040518083038185875af1925050503d8060008114613693576040519150601f19603f3d011682016040523d82523d6000602084013e613698565b606091505b50915091506136a88282866136b4565b92505050949350505050565b606083156136c457829050613779565b6000835111156136d75782518084602001fd5b816040517f08c379a00000000000000000000000000000000000000000000000000000000081526004018080602001828103825283818151815260200191508051906020019080838360005b8381101561373e578082015181840152602081019050613723565b50505050905090810190601f16801561376b5780820380516001836020036101000a031916815260200191505b509250505060405180910390fd5b9392505050565b50805460018160011615610100020316600290046000825580601f106137a657506137c5565b601f0160209004906000526020600020908101906137c49190613848565b5b50565b828054600181600116156101000203166002900490600052602060002090601f016020900481019282601f1061380957805160ff1916838001178555613837565b82800160010185558215613837579182015b8281111561383657825182559160200191906001019061381b565b5b5090506138449190613848565b5090565b5b80821115613861576000816000905550600101613849565b509056fe456e756d657261626c655365743a20696e646578206f7574206f6620626f756e64734552433732313a207472616e7366657220746f206e6f6e20455243373231526563656976657220696d706c656d656e7465724f776e61626c653a206e6577206f776e657220697320746865207a65726f20616464726573734552433732313a207472616e7366657220746f20746865207a65726f2061646472657373416464726573733a20696e73756666696369656e742062616c616e636520666f722063616c6c4552433732313a206f70657261746f7220717565727920666f72206e6f6e6578697374656e7420746f6b656e4552433732313a20617070726f76652063616c6c6572206973206e6f74206f776e6572206e6f7220617070726f76656420666f7220616c6c4552433732313a2062616c616e636520717565727920666f7220746865207a65726f20616464726573734552433732313a206f776e657220717565727920666f72206e6f6e6578697374656e7420746f6b656e456e756d657261626c654d61703a20696e646578206f7574206f6620626f756e64734552433732313a20617070726f76656420717565727920666f72206e6f6e6578697374656e7420746f6b656e4552433732314d657461646174613a2055524920736574206f66206e6f6e6578697374656e7420746f6b656e4552433732313a207472616e73666572206f6620746f6b656e2074686174206973206e6f74206f776e4552433732314d657461646174613a2055524920717565727920666f72206e6f6e6578697374656e7420746f6b656e4552433732313a20617070726f76616c20746f2063757272656e74206f776e65724552433732313a207472616e736665722063616c6c6572206973206e6f74206f776e6572206e6f7220617070726f766564a2646970667358221220488ec1fa3cedae3a5d08e0e5551428d8dbb56f2289886925bf670823573026ae64736f6c634300060c0033",
  "immutableReferences": {
    "4585": [
      {
        "length": 32,
        "start": 4887
      },
      {
        "length": 32,
        "start": 7632
      }
    ]
  },
  "source": "// Wrapper / ERC721Wrapper\n// SPDX-License-Identifier: GPL-3.0-only\npragma solidity ^0.6.0;\n\nimport { Ownable } from \"@openzeppelin/contracts/access/Ownable.sol\";\nimport { ERC721 } from \"@openzeppelin/contracts/token/ERC721/ERC721.sol\";\nimport { IERC721 } from \"@openzeppelin/contracts/token/ERC721/IERC721.sol\";\nimport { IERC721Metadata } from \"@openzeppelin/contracts/token/ERC721/IERC721Metadata.sol\";\nimport { EnumerableSet } from \"@openzeppelin/contracts/utils/EnumerableSet.sol\";\n\nimport { SafeERC721Metadata } from \"./SafeERC721Metadata.sol\";\nimport { ERC721Shares } from \"./Shares.sol\";\n\nlibrary Wrapper\n{\n\tusing SafeERC721Metadata for IERC721Metadata;\n\n\tfunction create(IERC721 _target) public returns (ERC721Wrapper _wrapper)\n\t{\n\t\tIERC721Metadata _metadata = IERC721Metadata(address(_target));\n\t\tstring memory _name = string(abi.encodePacked(\"Wrapped \", _metadata.safeName()));\n\t\tstring memory _symbol = string(abi.encodePacked(\"w\", _metadata.safeSymbol()));\n\t\treturn new ERC721Wrapper(_name, _symbol, _target);\n\t}\n}\n\ncontract ERC721Wrapper is Ownable, ERC721\n{\n\tusing SafeERC721Metadata for IERC721Metadata;\n\tusing EnumerableSet for EnumerableSet.AddressSet;\n\n\tIERC721 public immutable target;\n\tmapping (uint256 => ERC721Shares) public shares;\n\tEnumerableSet.AddressSet private history;\n\n\tconstructor (string memory _name, string memory _symbol, IERC721 _target) ERC721(_name, _symbol) public\n\t{\n\t\ttarget = _target;\n\t}\n\n\tfunction securitized(uint256 _tokenId) external view returns (bool _securitized)\n\t{\n\t\treturn shares[_tokenId] != ERC721Shares(0);\n\t}\n\n\tfunction historyLength() external view returns (uint256 _length)\n\t{\n\t\treturn history.length();\n\t}\n\n\tfunction historyAt(uint256 _index) external view returns (ERC721Shares _shares)\n\t{\n\t\treturn ERC721Shares(history.at(_index));\n\t}\n\n\tfunction _insert(address _from, uint256 _tokenId, bool _remnant, ERC721Shares _shares) external onlyOwner\n\t{\n\t\tassert(shares[_tokenId] == ERC721Shares(0));\n\t\tshares[_tokenId] = _shares;\n\t\tassert(history.add(address(_shares)));\n\t\taddress _holder = _remnant ? _from : address(_shares);\n\t\t_safeMint(_holder, _tokenId);\n\t\tIERC721Metadata _metadata = IERC721Metadata(address(target));\n\t\tstring memory _tokenURI = _metadata.safeTokenURI(_tokenId);\n\t\t_setTokenURI(_tokenId, _tokenURI);\n\t}\n\n\tfunction _remove(address _from, uint256 _tokenId, bool _remnant) external\n\t{\n\t\tERC721Shares _shares = ERC721Shares(msg.sender);\n\t\tassert(shares[_tokenId] == _shares);\n\t\tshares[_tokenId] = ERC721Shares(0);\n\t\taddress _holder = _remnant ? _from : address(_shares);\n\t\tassert(_holder == ownerOf(_tokenId));\n\t\t_burn(_tokenId);\n\t}\n\n\tfunction _forget() external\n\t{\n\t\tERC721Shares _shares = ERC721Shares(msg.sender);\n\t\tassert(history.remove(address(_shares)));\n\t}\n}\n",
  "sourcePath": "/Users/LordeYeti/Downloads/NIFTY/nftfy-v1-core/contracts/v1.0/Wrapper.sol",
  "compiler": {
    "name": "solc",
    "version": "0.6.12+commit.27d51765.Emscripten.clang"
  },
  "schemaVersion": "3.4.3",
  "updatedAt": "2021-12-09T09:57:51.800Z",
  "devdoc": {
    "kind": "dev",
    "methods": {
      "approve(address,uint256)": {
        "details": "See {IERC721-approve}."
      },
      "balanceOf(address)": {
        "details": "See {IERC721-balanceOf}."
      },
      "baseURI()": {
        "details": "Returns the base URI set via {_setBaseURI}. This will be automatically added as a prefix in {tokenURI} to each token's URI, or to the token ID if no specific URI is set for that token ID."
      },
      "getApproved(uint256)": {
        "details": "See {IERC721-getApproved}."
      },
      "isApprovedForAll(address,address)": {
        "details": "See {IERC721-isApprovedForAll}."
      },
      "name()": {
        "details": "See {IERC721Metadata-name}."
      },
      "owner()": {
        "details": "Returns the address of the current owner."
      },
      "ownerOf(uint256)": {
        "details": "See {IERC721-ownerOf}."
      },
      "renounceOwnership()": {
        "details": "Leaves the contract without owner. It will not be possible to call `onlyOwner` functions anymore. Can only be called by the current owner. NOTE: Renouncing ownership will leave the contract without an owner, thereby removing any functionality that is only available to the owner."
      },
      "safeTransferFrom(address,address,uint256)": {
        "details": "See {IERC721-safeTransferFrom}."
      },
      "safeTransferFrom(address,address,uint256,bytes)": {
        "details": "See {IERC721-safeTransferFrom}."
      },
      "setApprovalForAll(address,bool)": {
        "details": "See {IERC721-setApprovalForAll}."
      },
      "supportsInterface(bytes4)": {
        "details": "See {IERC165-supportsInterface}. Time complexity O(1), guaranteed to always use less than 30 000 gas."
      },
      "symbol()": {
        "details": "See {IERC721Metadata-symbol}."
      },
      "tokenByIndex(uint256)": {
        "details": "See {IERC721Enumerable-tokenByIndex}."
      },
      "tokenOfOwnerByIndex(address,uint256)": {
        "details": "See {IERC721Enumerable-tokenOfOwnerByIndex}."
      },
      "tokenURI(uint256)": {
        "details": "See {IERC721Metadata-tokenURI}."
      },
      "totalSupply()": {
        "details": "See {IERC721Enumerable-totalSupply}."
      },
      "transferFrom(address,address,uint256)": {
        "details": "See {IERC721-transferFrom}."
      },
      "transferOwnership(address)": {
        "details": "Transfers ownership of the contract to a new account (`newOwner`). Can only be called by the current owner."
      }
    },
    "version": 1
  },
  "userdoc": {
    "kind": "user",
    "methods": {},
    "version": 1
  }
}