{
  "contractName": "FractionsImpl",
  "abi": [
    {
      "inputs": [],
      "stateMutability": "nonpayable",
      "type": "constructor"
    },
    {
      "anonymous": false,
      "inputs": [
        {
          "indexed": true,
          "internalType": "address",
          "name": "owner",
          "type": "address"
        },
        {
          "indexed": true,
          "internalType": "address",
          "name": "spender",
          "type": "address"
        },
        {
          "indexed": false,
          "internalType": "uint256",
          "name": "value",
          "type": "uint256"
        }
      ],
      "name": "Approval",
      "type": "event"
    },
    {
      "anonymous": false,
      "inputs": [
        {
          "indexed": true,
          "internalType": "address",
          "name": "_from",
          "type": "address"
        },
        {
          "indexed": false,
          "internalType": "uint256",
          "name": "_fractionsCount",
          "type": "uint256"
        },
        {
          "indexed": false,
          "internalType": "uint256",
          "name": "_claimAmount",
          "type": "uint256"
        }
      ],
      "name": "Claim",
      "type": "event"
    },
    {
      "anonymous": false,
      "inputs": [
        {
          "indexed": true,
          "internalType": "address",
          "name": "_from",
          "type": "address"
        },
        {
          "indexed": false,
          "internalType": "uint256",
          "name": "_fractionsCount",
          "type": "uint256"
        },
        {
          "indexed": false,
          "internalType": "uint256",
          "name": "_redeemAmount",
          "type": "uint256"
        }
      ],
      "name": "Redeem",
      "type": "event"
    },
    {
      "anonymous": false,
      "inputs": [
        {
          "indexed": true,
          "internalType": "address",
          "name": "from",
          "type": "address"
        },
        {
          "indexed": true,
          "internalType": "address",
          "name": "to",
          "type": "address"
        },
        {
          "indexed": false,
          "internalType": "uint256",
          "name": "value",
          "type": "uint256"
        }
      ],
      "name": "Transfer",
      "type": "event"
    },
    {
      "inputs": [
        {
          "internalType": "address",
          "name": "owner",
          "type": "address"
        },
        {
          "internalType": "address",
          "name": "spender",
          "type": "address"
        }
      ],
      "name": "allowance",
      "outputs": [
        {
          "internalType": "uint256",
          "name": "",
          "type": "uint256"
        }
      ],
      "stateMutability": "view",
      "type": "function"
    },
    {
      "inputs": [
        {
          "internalType": "address",
          "name": "spender",
          "type": "address"
        },
        {
          "internalType": "uint256",
          "name": "amount",
          "type": "uint256"
        }
      ],
      "name": "approve",
      "outputs": [
        {
          "internalType": "bool",
          "name": "",
          "type": "bool"
        }
      ],
      "stateMutability": "nonpayable",
      "type": "function"
    },
    {
      "inputs": [
        {
          "internalType": "address",
          "name": "account",
          "type": "address"
        }
      ],
      "name": "balanceOf",
      "outputs": [
        {
          "internalType": "uint256",
          "name": "",
          "type": "uint256"
        }
      ],
      "stateMutability": "view",
      "type": "function"
    },
    {
      "inputs": [],
      "name": "decimals",
      "outputs": [
        {
          "internalType": "uint8",
          "name": "",
          "type": "uint8"
        }
      ],
      "stateMutability": "view",
      "type": "function"
    },
    {
      "inputs": [
        {
          "internalType": "address",
          "name": "spender",
          "type": "address"
        },
        {
          "internalType": "uint256",
          "name": "subtractedValue",
          "type": "uint256"
        }
      ],
      "name": "decreaseAllowance",
      "outputs": [
        {
          "internalType": "bool",
          "name": "",
          "type": "bool"
        }
      ],
      "stateMutability": "nonpayable",
      "type": "function"
    },
    {
      "inputs": [],
      "name": "fractionPrice",
      "outputs": [
        {
          "internalType": "uint256",
          "name": "",
          "type": "uint256"
        }
      ],
      "stateMutability": "view",
      "type": "function"
    },
    {
      "inputs": [],
      "name": "fractionsCount",
      "outputs": [
        {
          "internalType": "uint256",
          "name": "",
          "type": "uint256"
        }
      ],
      "stateMutability": "view",
      "type": "function"
    },
    {
      "inputs": [
        {
          "internalType": "address",
          "name": "spender",
          "type": "address"
        },
        {
          "internalType": "uint256",
          "name": "addedValue",
          "type": "uint256"
        }
      ],
      "name": "increaseAllowance",
      "outputs": [
        {
          "internalType": "bool",
          "name": "",
          "type": "bool"
        }
      ],
      "stateMutability": "nonpayable",
      "type": "function"
    },
    {
      "inputs": [],
      "name": "name",
      "outputs": [
        {
          "internalType": "string",
          "name": "",
          "type": "string"
        }
      ],
      "stateMutability": "view",
      "type": "function"
    },
    {
      "inputs": [
        {
          "internalType": "address",
          "name": "",
          "type": "address"
        },
        {
          "internalType": "address",
          "name": "",
          "type": "address"
        },
        {
          "internalType": "uint256",
          "name": "",
          "type": "uint256"
        },
        {
          "internalType": "bytes",
          "name": "",
          "type": "bytes"
        }
      ],
      "name": "onERC721Received",
      "outputs": [
        {
          "internalType": "bytes4",
          "name": "",
          "type": "bytes4"
        }
      ],
      "stateMutability": "nonpayable",
      "type": "function"
    },
    {
      "inputs": [],
      "name": "paymentToken",
      "outputs": [
        {
          "internalType": "address",
          "name": "",
          "type": "address"
        }
      ],
      "stateMutability": "view",
      "type": "function"
    },
    {
      "inputs": [],
      "name": "released",
      "outputs": [
        {
          "internalType": "bool",
          "name": "",
          "type": "bool"
        }
      ],
      "stateMutability": "view",
      "type": "function"
    },
    {
      "inputs": [],
      "name": "symbol",
      "outputs": [
        {
          "internalType": "string",
          "name": "",
          "type": "string"
        }
      ],
      "stateMutability": "view",
      "type": "function"
    },
    {
      "inputs": [],
      "name": "target",
      "outputs": [
        {
          "internalType": "address",
          "name": "",
          "type": "address"
        }
      ],
      "stateMutability": "view",
      "type": "function"
    },
    {
      "inputs": [],
      "name": "tokenId",
      "outputs": [
        {
          "internalType": "uint256",
          "name": "",
          "type": "uint256"
        }
      ],
      "stateMutability": "view",
      "type": "function"
    },
    {
      "inputs": [],
      "name": "totalSupply",
      "outputs": [
        {
          "internalType": "uint256",
          "name": "",
          "type": "uint256"
        }
      ],
      "stateMutability": "view",
      "type": "function"
    },
    {
      "inputs": [
        {
          "internalType": "address",
          "name": "recipient",
          "type": "address"
        },
        {
          "internalType": "uint256",
          "name": "amount",
          "type": "uint256"
        }
      ],
      "name": "transfer",
      "outputs": [
        {
          "internalType": "bool",
          "name": "",
          "type": "bool"
        }
      ],
      "stateMutability": "nonpayable",
      "type": "function"
    },
    {
      "inputs": [
        {
          "internalType": "address",
          "name": "sender",
          "type": "address"
        },
        {
          "internalType": "address",
          "name": "recipient",
          "type": "address"
        },
        {
          "internalType": "uint256",
          "name": "amount",
          "type": "uint256"
        }
      ],
      "name": "transferFrom",
      "outputs": [
        {
          "internalType": "bool",
          "name": "",
          "type": "bool"
        }
      ],
      "stateMutability": "nonpayable",
      "type": "function"
    },
    {
      "inputs": [],
      "name": "__name",
      "outputs": [
        {
          "internalType": "string",
          "name": "_name",
          "type": "string"
        }
      ],
      "stateMutability": "view",
      "type": "function"
    },
    {
      "inputs": [],
      "name": "__symbol",
      "outputs": [
        {
          "internalType": "string",
          "name": "_symbol",
          "type": "string"
        }
      ],
      "stateMutability": "view",
      "type": "function"
    },
    {
      "inputs": [
        {
          "internalType": "address",
          "name": "_from",
          "type": "address"
        },
        {
          "internalType": "address",
          "name": "_target",
          "type": "address"
        },
        {
          "internalType": "uint256",
          "name": "_tokenId",
          "type": "uint256"
        },
        {
          "internalType": "string",
          "name": "_name",
          "type": "string"
        },
        {
          "internalType": "string",
          "name": "_symbol",
          "type": "string"
        },
        {
          "internalType": "uint8",
          "name": "_decimals",
          "type": "uint8"
        },
        {
          "internalType": "uint256",
          "name": "_fractionsCount",
          "type": "uint256"
        },
        {
          "internalType": "uint256",
          "name": "_fractionPrice",
          "type": "uint256"
        },
        {
          "internalType": "address",
          "name": "_paymentToken",
          "type": "address"
        }
      ],
      "name": "initialize",
      "outputs": [],
      "stateMutability": "nonpayable",
      "type": "function"
    },
    {
      "inputs": [],
      "name": "status",
      "outputs": [
        {
          "internalType": "string",
          "name": "_status",
          "type": "string"
        }
      ],
      "stateMutability": "view",
      "type": "function"
    },
    {
      "inputs": [],
      "name": "reservePrice",
      "outputs": [
        {
          "internalType": "uint256",
          "name": "_reservePrice",
          "type": "uint256"
        }
      ],
      "stateMutability": "view",
      "type": "function"
    },
    {
      "inputs": [
        {
          "internalType": "address",
          "name": "_from",
          "type": "address"
        }
      ],
      "name": "redeemAmountOf",
      "outputs": [
        {
          "internalType": "uint256",
          "name": "_redeemAmount",
          "type": "uint256"
        }
      ],
      "stateMutability": "view",
      "type": "function"
    },
    {
      "inputs": [],
      "name": "vaultBalance",
      "outputs": [
        {
          "internalType": "uint256",
          "name": "_vaultBalance",
          "type": "uint256"
        }
      ],
      "stateMutability": "view",
      "type": "function"
    },
    {
      "inputs": [
        {
          "internalType": "address",
          "name": "_from",
          "type": "address"
        }
      ],
      "name": "vaultBalanceOf",
      "outputs": [
        {
          "internalType": "uint256",
          "name": "_vaultBalanceOf",
          "type": "uint256"
        }
      ],
      "stateMutability": "view",
      "type": "function"
    },
    {
      "inputs": [],
      "name": "redeem",
      "outputs": [],
      "stateMutability": "payable",
      "type": "function"
    },
    {
      "inputs": [],
      "name": "claim",
      "outputs": [],
      "stateMutability": "nonpayable",
      "type": "function"
    }
  ],
  "bytecode": "0x60806040523480156200001157600080fd5b506040518060400160405280600981526020017f4672616374696f6e7300000000000000000000000000000000000000000000008152506040518060400160405280600481526020017f46524143000000000000000000000000000000000000000000000000000000008152508160039080519060200190620000969291906200013d565b508060049080519060200190620000af9291906200013d565b506012600560006101000a81548160ff021916908360ff160217905550505060016006819055507fffffffffffffffffffffffffffffffffffffffffffffffffffffffffffffffff600760006101000a81548173ffffffffffffffffffffffffffffffffffffffff021916908373ffffffffffffffffffffffffffffffffffffffff160217905550620001e3565b828054600181600116156101000203166002900490600052602060002090601f016020900481019282601f106200018057805160ff1916838001178555620001b1565b82800160010185558215620001b1579182015b82811115620001b057825182559160200191906001019062000193565b5b509050620001c09190620001c4565b5090565b5b80821115620001df576000816000905550600101620001c5565b5090565b613ba680620001f36000396000f3fe6080604052600436106101b75760003560e01c806356953bda116100ec578063a9059cbb1161008a578063be040fb011610064578063be040fb014610cca578063d4b8399214610cd4578063db2e1eed14610d15578063dd62ed3e14610d40576101b7565b8063a9059cbb14610a09578063b73b8c3914610a7a578063bc39349214610adf576101b7565b806382215cb1116100c657806382215cb11461084b57806395d89b41146108db578063961325211461096b578063a457c2d714610998576101b7565b806356953bda1461072b57806370a08231146107565780637269ada1146107bb576101b7565b806323b872dd11610159578063313f85e811610133578063313f85e814610613578063383d42011461067857806339509351146106a35780634e71d92d14610714576101b7565b806323b872dd146105135780633013ce29146105a4578063313ce567146105e5576101b7565b8063150b7a0211610195578063150b7a02146102e857806317d70f7c1461042d57806318160ddd14610458578063200d2ed214610483576101b7565b806306fdde03146101bc578063095ea7b31461024c5780630bf6cc08146102bd575b600080fd5b3480156101c857600080fd5b506101d1610dc5565b6040518080602001828103825283818151815260200191508051906020019080838360005b838110156102115780820151818401526020810190506101f6565b50505050905090810190601f16801561023e5780820380516001836020036101000a031916815260200191505b509250505060405180910390f35b34801561025857600080fd5b506102a56004803603604081101561026f57600080fd5b81019080803573ffffffffffffffffffffffffffffffffffffffff16906020019092919080359060200190929190505050610e67565b60405180821515815260200191505060405180910390f35b3480156102c957600080fd5b506102d2610e85565b6040518082815260200191505060405180910390f35b3480156102f457600080fd5b506103f86004803603608081101561030b57600080fd5b81019080803573ffffffffffffffffffffffffffffffffffffffff169060200190929190803573ffffffffffffffffffffffffffffffffffffffff169060200190929190803590602001909291908035906020019064010000000081111561037257600080fd5b82018360208201111561038457600080fd5b803590602001918460018302840111640100000000831117156103a657600080fd5b91908080601f016020809104026020016040519081016040528093929190818152602001838380828437600081840152601f19601f820116905080830192505050505050509192919290505050610ebc565b60405180827bffffffffffffffffffffffffffffffffffffffffffffffffffffffff1916815260200191505060405180910390f35b34801561043957600080fd5b50610442610ed0565b6040518082815260200191505060405180910390f35b34801561046457600080fd5b5061046d610ed6565b6040518082815260200191505060405180910390f35b34801561048f57600080fd5b50610498610ee0565b6040518080602001828103825283818151815260200191508051906020019080838360005b838110156104d85780820151818401526020810190506104bd565b50505050905090810190601f1680156105055780820380516001836020036101000a031916815260200191505b509250505060405180910390f35b34801561051f57600080fd5b5061058c6004803603606081101561053657600080fd5b81019080803573ffffffffffffffffffffffffffffffffffffffff169060200190929190803573ffffffffffffffffffffffffffffffffffffffff16906020019092919080359060200190929190505050610f6d565b60405180821515815260200191505060405180910390f35b3480156105b057600080fd5b506105b9611046565b604051808273ffffffffffffffffffffffffffffffffffffffff16815260200191505060405180910390f35b3480156105f157600080fd5b506105fa61106c565b604051808260ff16815260200191505060405180910390f35b34801561061f57600080fd5b506106626004803603602081101561063657600080fd5b81019080803573ffffffffffffffffffffffffffffffffffffffff169060200190929190505050611083565b6040518082815260200191505060405180910390f35b34801561068457600080fd5b5061068d6110bd565b6040518082815260200191505060405180910390f35b3480156106af57600080fd5b506106fc600480360360408110156106c657600080fd5b81019080803573ffffffffffffffffffffffffffffffffffffffff169060200190929190803590602001909291905050506110c3565b60405180821515815260200191505060405180910390f35b34801561072057600080fd5b50610729611176565b005b34801561073757600080fd5b506107406113b0565b6040518082815260200191505060405180910390f35b34801561076257600080fd5b506107a56004803603602081101561077957600080fd5b81019080803573ffffffffffffffffffffffffffffffffffffffff1690602001909291905050506113b6565b6040518082815260200191505060405180910390f35b3480156107c757600080fd5b506107d06113fe565b6040518080602001828103825283818151815260200191508051906020019080838360005b838110156108105780820151818401526020810190506107f5565b50505050905090810190601f16801561083d5780820380516001836020036101000a031916815260200191505b509250505060405180910390f35b34801561085757600080fd5b5061086061161e565b6040518080602001828103825283818151815260200191508051906020019080838360005b838110156108a0578082015181840152602081019050610885565b50505050905090810190601f1680156108cd5780820380516001836020036101000a031916815260200191505b509250505060405180910390f35b3480156108e757600080fd5b506108f06117ee565b6040518080602001828103825283818151815260200191508051906020019080838360005b83811015610930578082015181840152602081019050610915565b50505050905090810190601f16801561095d5780820380516001836020036101000a031916815260200191505b509250505060405180910390f35b34801561097757600080fd5b50610980611890565b60405180821515815260200191505060405180910390f35b3480156109a457600080fd5b506109f1600480360360408110156109bb57600080fd5b81019080803573ffffffffffffffffffffffffffffffffffffffff169060200190929190803590602001909291905050506118a3565b60405180821515815260200191505060405180910390f35b348015610a1557600080fd5b50610a6260048036036040811015610a2c57600080fd5b81019080803573ffffffffffffffffffffffffffffffffffffffff16906020019092919080359060200190929190505050611970565b60405180821515815260200191505060405180910390f35b348015610a8657600080fd5b50610ac960048036036020811015610a9d57600080fd5b81019080803573ffffffffffffffffffffffffffffffffffffffff16906020019092919050505061198e565b6040518082815260200191505060405180910390f35b348015610aeb57600080fd5b50610cc86004803603610120811015610b0357600080fd5b81019080803573ffffffffffffffffffffffffffffffffffffffff169060200190929190803573ffffffffffffffffffffffffffffffffffffffff1690602001909291908035906020019092919080359060200190640100000000811115610b6a57600080fd5b820183602082011115610b7c57600080fd5b80359060200191846001830284011164010000000083111715610b9e57600080fd5b91908080601f016020809104026020016040519081016040528093929190818152602001838380828437600081840152601f19601f82011690508083019250505050505050919291929080359060200190640100000000811115610c0157600080fd5b820183602082011115610c1357600080fd5b80359060200191846001830284011164010000000083111715610c3557600080fd5b91908080601f016020809104026020016040519081016040528093929190818152602001838380828437600081840152601f19601f820116905080830192505050505050509192919290803560ff1690602001909291908035906020019092919080359060200190929190803573ffffffffffffffffffffffffffffffffffffffff169060200190929190505050611a3c565b005b610cd2611ec2565b005b348015610ce057600080fd5b50610ce9612103565b604051808273ffffffffffffffffffffffffffffffffffffffff16815260200191505060405180910390f35b348015610d2157600080fd5b50610d2a612129565b6040518082815260200191505060405180910390f35b348015610d4c57600080fd5b50610daf60048036036040811015610d6357600080fd5b81019080803573ffffffffffffffffffffffffffffffffffffffff169060200190929190803573ffffffffffffffffffffffffffffffffffffffff169060200190929190505050612137565b6040518082815260200191505060405180910390f35b606060038054600181600116156101000203166002900480601f016020809104026020016040519081016040528092919081815260200182805460018160011615610100020316600290048015610e5d5780601f10610e3257610100808354040283529160200191610e5d565b820191906000526020600020905b815481529060010190602001808311610e4057829003601f168201915b5050505050905090565b6000610e7b610e746121be565b84846121c6565b6001905092915050565b6000600b60149054906101000a900460ff16610ea45760009050610eb9565b6000610eae610ed6565b9050600a5481029150505b90565b600063150b7a0260e01b9050949350505050565b60085481565b6000600254905090565b6060600b60149054906101000a900460ff16610f31576040518060400160405280600581526020017f4f46464552000000000000000000000000000000000000000000000000000000815250610f68565b6040518060400160405280600481526020017f534f4c44000000000000000000000000000000000000000000000000000000008152505b905090565b6000610f7a8484846123bd565b61103b84610f866121be565b61103685604051806060016040528060288152602001613a9060289139600160008b73ffffffffffffffffffffffffffffffffffffffff1673ffffffffffffffffffffffffffffffffffffffff1681526020019081526020016000206000610fec6121be565b73ffffffffffffffffffffffffffffffffffffffff1673ffffffffffffffffffffffffffffffffffffffff1681526020019081526020016000205461267e9092919063ffffffff16565b6121c6565b600190509392505050565b600b60009054906101000a900473ffffffffffffffffffffffffffffffffffffffff1681565b6000600560009054906101000a900460ff16905090565b6000600b60149054906101000a900460ff166110a257600090506110b8565b60006110ad836113b6565b9050600a5481029150505b919050565b60095481565b600061116c6110d06121be565b8461116785600160006110e16121be565b73ffffffffffffffffffffffffffffffffffffffff1673ffffffffffffffffffffffffffffffffffffffff16815260200190815260200160002060008973ffffffffffffffffffffffffffffffffffffffff1673ffffffffffffffffffffffffffffffffffffffff1681526020019081526020016000205461273e90919063ffffffff16565b6121c6565b6001905092915050565b600260065414156111ef576040517f08c379a000000000000000000000000000000000000000000000000000000000815260040180806020018281038252601f8152602001807f5265656e7472616e637947756172643a207265656e7472616e742063616c6c0081525060200191505060405180910390fd5b60026006819055506000339050600b60149054906101000a900460ff1661127e576040517f08c379a00000000000000000000000000000000000000000000000000000000081526004018080602001828103825260128152602001807f746f6b656e206e6f742072656465656d6564000000000000000000000000000081525060200191505060405180910390fd5b6000611289826113b6565b905060008111611301576040517f08c379a00000000000000000000000000000000000000000000000000000000081526004018080602001828103825260108152602001807f6e6f7468696e6720746f20636c61696d0000000000000000000000000000000081525060200191505060405180910390fd5b600061130c83611083565b905061131883836127c6565b611345600b60009054906101000a900473ffffffffffffffffffffffffffffffffffffffff16848361298a565b8273ffffffffffffffffffffffffffffffffffffffff167f34fcbac0073d7c3d388e51312faf357774904998eeb8fca628b9e6f65ee1cbf78383604051808381526020018281526020019250505060405180910390a26113a3612a3c565b5050506001600681905550565b600a5481565b60008060008373ffffffffffffffffffffffffffffffffffffffff1673ffffffffffffffffffffffffffffffffffffffff168152602001908152602001600020549050919050565b60606000600c805460018160011615610100020316600290049050146114c057600c8054600181600116156101000203166002900480601f0160208091040260200160405190810160405280929190818152602001828054600181600116156101000203166002900480156114b45780601f10611489576101008083540402835291602001916114b4565b820191906000526020600020905b81548152906001019060200180831161149757829003601f168201915b5050505050905061161b565b611501600760009054906101000a900473ffffffffffffffffffffffffffffffffffffffff1673ffffffffffffffffffffffffffffffffffffffff16612a6e565b61150c600854612bc0565b6040516020018083805190602001908083835b60208310611542578051825260208201915060208101905060208303925061151f565b6001836020036101000a038019825116818451168082178552505050505050905001807f202300000000000000000000000000000000000000000000000000000000000081525060020182805190602001908083835b602083106115bb5780518252602082019150602081019050602083039250611598565b6001836020036101000a038019825116818451168082178552505050505050905001807f204672616374696f6e7300000000000000000000000000000000000000000000815250600a019250505060405160208183030381529060405290505b90565b60606000600d805460018160011615610100020316600290049050146116e057600d8054600181600116156101000203166002900480601f0160208091040260200160405190810160405280929190818152602001828054600181600116156101000203166002900480156116d45780601f106116a9576101008083540402835291602001916116d4565b820191906000526020600020905b8154815290600101906020018083116116b757829003601f168201915b505050505090506117eb565b611721600760009054906101000a900473ffffffffffffffffffffffffffffffffffffffff1673ffffffffffffffffffffffffffffffffffffffff16612d07565b61172c600854612bc0565b6040516020018083805190602001908083835b60208310611762578051825260208201915060208101905060208303925061173f565b6001836020036101000a03801982511681845116808217855250505050505090500182805190602001908083835b602083106117b35780518252602082019150602081019050602083039250611790565b6001836020036101000a0380198251168184511680821785525050505050509050019250505060405160208183030381529060405290505b90565b606060048054600181600116156101000203166002900480601f0160208091040260200160405190810160405280929190818152602001828054600181600116156101000203166002900480156118865780601f1061185b57610100808354040283529160200191611886565b820191906000526020600020905b81548152906001019060200180831161186957829003601f168201915b5050505050905090565b600b60149054906101000a900460ff1681565b60006119666118b06121be565b8461196185604051806060016040528060258152602001613b4c60259139600160006118da6121be565b73ffffffffffffffffffffffffffffffffffffffff1673ffffffffffffffffffffffffffffffffffffffff16815260200190815260200160002060008a73ffffffffffffffffffffffffffffffffffffffff1673ffffffffffffffffffffffffffffffffffffffff1681526020019081526020016000205461267e9092919063ffffffff16565b6121c6565b6001905092915050565b600061198461197d6121be565b84846123bd565b6001905092915050565b6000600b60149054906101000a900460ff1615611a13576040517f08c379a00000000000000000000000000000000000000000000000000000000081526004018080602001828103825260168152602001807f746f6b656e20616c72656164792072656465656d65640000000000000000000081525060200191505060405180910390fd5b6000611a1e836113b6565b90506000611a2a612129565b9050600a548202810392505050919050565b600073ffffffffffffffffffffffffffffffffffffffff16600760009054906101000a900473ffffffffffffffffffffffffffffffffffffffff1673ffffffffffffffffffffffffffffffffffffffff1614611b00576040517f08c379a00000000000000000000000000000000000000000000000000000000081526004018080602001828103825260138152602001807f616c726561647920696e697469616c697a65640000000000000000000000000081525060200191505060405180910390fd5b3073ffffffffffffffffffffffffffffffffffffffff168873ffffffffffffffffffffffffffffffffffffffff16636352211e896040518263ffffffff1660e01b81526004018082815260200191505060206040518083038186803b158015611b6857600080fd5b505afa158015611b7c573d6000803e3d6000fd5b505050506040513d6020811015611b9257600080fd5b810190808051906020019092919050505073ffffffffffffffffffffffffffffffffffffffff1614611c2c576040517f08c379a00000000000000000000000000000000000000000000000000000000081526004018080602001828103825260108152602001807f746f6b656e206e6f74207374616b65640000000000000000000000000000000081525060200191505060405180910390fd5b60008311611ca2576040517f08c379a00000000000000000000000000000000000000000000000000000000081526004018080602001828103825260168152602001807f696e76616c6964206672616374696f6e20636f756e740000000000000000000081525060200191505060405180910390fd5b818383850281611cae57fe5b0414611d22576040517f08c379a00000000000000000000000000000000000000000000000000000000081526004018080602001828103825260168152602001807f696e76616c6964206672616374696f6e2070726963650000000000000000000081525060200191505060405180910390fd5b3073ffffffffffffffffffffffffffffffffffffffff168173ffffffffffffffffffffffffffffffffffffffff161415611dc4576040517f08c379a000000000000000000000000000000000000000000000000000000000815260040180806020018281038252600d8152602001807f696e76616c696420746f6b656e0000000000000000000000000000000000000081525060200191505060405180910390fd5b87600760006101000a81548173ffffffffffffffffffffffffffffffffffffffff021916908373ffffffffffffffffffffffffffffffffffffffff160217905550866008819055508260098190555081600a8190555080600b60006101000a81548173ffffffffffffffffffffffffffffffffffffffff021916908373ffffffffffffffffffffffffffffffffffffffff1602179055506000600b60146101000a81548160ff02191690831515021790555085600c9080519060200190611e8c92919061393f565b5084600d9080519060200190611ea392919061393f565b50611ead84612e59565b611eb78984612e77565b505050505050505050565b60026006541415611f3b576040517f08c379a000000000000000000000000000000000000000000000000000000000815260040180806020018281038252601f8152602001807f5265656e7472616e637947756172643a207265656e7472616e742063616c6c0081525060200191505060405180910390fd5b600260068190555060003390506000349050600b60149054906101000a900460ff1615611fd0576040517f08c379a00000000000000000000000000000000000000000000000000000000081526004018080602001828103825260168152602001807f746f6b656e20616c72656164792072656465656d65640000000000000000000081525060200191505060405180910390fd5b6000611fdb836113b6565b90506000611fe88461198e565b90506001600b60146101000a81548160ff02191690831515021790555060008211156120195761201884836127c6565b5b612048600b60009054906101000a900473ffffffffffffffffffffffffffffffffffffffff168585308561303e565b61209784600854600760009054906101000a900473ffffffffffffffffffffffffffffffffffffffff1673ffffffffffffffffffffffffffffffffffffffff166132139092919063ffffffff16565b8373ffffffffffffffffffffffffffffffffffffffff167fe5b754fb1abb7f01b499791d0b820ae3b6af3424ac1c59768edb53f4ec31a9298383604051808381526020018281526020019250505060405180910390a26120f5612a3c565b505050506001600681905550565b600760009054906101000a900473ffffffffffffffffffffffffffffffffffffffff1681565b6000600a5460095402905090565b6000600160008473ffffffffffffffffffffffffffffffffffffffff1673ffffffffffffffffffffffffffffffffffffffff16815260200190815260200160002060008373ffffffffffffffffffffffffffffffffffffffff1673ffffffffffffffffffffffffffffffffffffffff16815260200190815260200160002054905092915050565b600033905090565b600073ffffffffffffffffffffffffffffffffffffffff168373ffffffffffffffffffffffffffffffffffffffff16141561224c576040517f08c379a0000000000000000000000000000000000000000000000000000000008152600401808060200182810382526024815260200180613afe6024913960400191505060405180910390fd5b600073ffffffffffffffffffffffffffffffffffffffff168273ffffffffffffffffffffffffffffffffffffffff1614156122d2576040517f08c379a0000000000000000000000000000000000000000000000000000000008152600401808060200182810382526022815260200180613a226022913960400191505060405180910390fd5b80600160008573ffffffffffffffffffffffffffffffffffffffff1673ffffffffffffffffffffffffffffffffffffffff16815260200190815260200160002060008473ffffffffffffffffffffffffffffffffffffffff1673ffffffffffffffffffffffffffffffffffffffff168152602001908152602001600020819055508173ffffffffffffffffffffffffffffffffffffffff168373ffffffffffffffffffffffffffffffffffffffff167f8c5be1e5ebec7d5bd14f71427d1e84f3dd0314c0f7b2291e5b200ac8c7c3b925836040518082815260200191505060405180910390a3505050565b600073ffffffffffffffffffffffffffffffffffffffff168373ffffffffffffffffffffffffffffffffffffffff161415612443576040517f08c379a0000000000000000000000000000000000000000000000000000000008152600401808060200182810382526025815260200180613ad96025913960400191505060405180910390fd5b600073ffffffffffffffffffffffffffffffffffffffff168273ffffffffffffffffffffffffffffffffffffffff1614156124c9576040517f08c379a00000000000000000000000000000000000000000000000000000000081526004018080602001828103825260238152602001806139dd6023913960400191505060405180910390fd5b6124d48383836133fe565b61253f81604051806060016040528060268152602001613a44602691396000808773ffffffffffffffffffffffffffffffffffffffff1673ffffffffffffffffffffffffffffffffffffffff1681526020019081526020016000205461267e9092919063ffffffff16565b6000808573ffffffffffffffffffffffffffffffffffffffff1673ffffffffffffffffffffffffffffffffffffffff168152602001908152602001600020819055506125d2816000808573ffffffffffffffffffffffffffffffffffffffff1673ffffffffffffffffffffffffffffffffffffffff1681526020019081526020016000205461273e90919063ffffffff16565b6000808473ffffffffffffffffffffffffffffffffffffffff1673ffffffffffffffffffffffffffffffffffffffff168152602001908152602001600020819055508173ffffffffffffffffffffffffffffffffffffffff168373ffffffffffffffffffffffffffffffffffffffff167fddf252ad1be2c89b69c2b068fc378daa952ba7f163c4a11628f55a4df523b3ef836040518082815260200191505060405180910390a3505050565b600083831115829061272b576040517f08c379a00000000000000000000000000000000000000000000000000000000081526004018080602001828103825283818151815260200191508051906020019080838360005b838110156126f05780820151818401526020810190506126d5565b50505050905090810190601f16801561271d5780820380516001836020036101000a031916815260200191505b509250505060405180910390fd5b5060008385039050809150509392505050565b6000808284019050838110156127bc576040517f08c379a000000000000000000000000000000000000000000000000000000000815260040180806020018281038252601b8152602001807f536166654d6174683a206164646974696f6e206f766572666c6f77000000000081525060200191505060405180910390fd5b8091505092915050565b600073ffffffffffffffffffffffffffffffffffffffff168273ffffffffffffffffffffffffffffffffffffffff16141561284c576040517f08c379a0000000000000000000000000000000000000000000000000000000008152600401808060200182810382526021815260200180613ab86021913960400191505060405180910390fd5b612858826000836133fe565b6128c381604051806060016040528060228152602001613a00602291396000808673ffffffffffffffffffffffffffffffffffffffff1673ffffffffffffffffffffffffffffffffffffffff1681526020019081526020016000205461267e9092919063ffffffff16565b6000808473ffffffffffffffffffffffffffffffffffffffff1673ffffffffffffffffffffffffffffffffffffffff1681526020019081526020016000208190555061291a8160025461340390919063ffffffff16565b600281905550600073ffffffffffffffffffffffffffffffffffffffff168273ffffffffffffffffffffffffffffffffffffffff167fddf252ad1be2c89b69c2b068fc378daa952ba7f163c4a11628f55a4df523b3ef836040518082815260200191505060405180910390a35050565b600073ffffffffffffffffffffffffffffffffffffffff168373ffffffffffffffffffffffffffffffffffffffff161415612a0b578173ffffffffffffffffffffffffffffffffffffffff166108fc829081150290604051600060405180830381858888f19350505050158015612a05573d6000803e3d6000fd5b50612a37565b612a3682828573ffffffffffffffffffffffffffffffffffffffff1661344d9092919063ffffffff16565b5b505050565b6000612a46610ed6565b90506000811415612a6b57600073ffffffffffffffffffffffffffffffffffffffff16ff5b50565b60608173ffffffffffffffffffffffffffffffffffffffff166306fdde036040518163ffffffff1660e01b815260040160006040518083038186803b158015612ab657600080fd5b505afa925050508015612ba857506040513d6000823e3d601f19601f820116820180604052506020811015612aea57600080fd5b8101908080516040519392919084640100000000821115612b0a57600080fd5b83820191506020820185811115612b2057600080fd5b8251866001820283011164010000000082111715612b3d57600080fd5b8083526020830192505050908051906020019080838360005b83811015612b71578082015181840152602081019050612b56565b50505050905090810190601f168015612b9e5780820380516001836020036101000a031916815260200191505b5060405250505060015b612bb157612bba565b80915050612bbb565b5b919050565b60606000821415612c08576040518060400160405280600181526020017f30000000000000000000000000000000000000000000000000000000000000008152509050612d02565b600082905060005b60008214612c32578080600101915050600a8281612c2a57fe5b049150612c10565b60608167ffffffffffffffff81118015612c4b57600080fd5b506040519080825280601f01601f191660200182016040528015612c7e5781602001600182028036833780820191505090505b50905060006001830390508593505b60008414612cfa57600a8481612c9f57fe5b0660300160f81b82828060019003935081518110612cb957fe5b60200101907effffffffffffffffffffffffffffffffffffffffffffffffffffffffffffff1916908160001a905350600a8481612cf257fe5b049350612c8d565b819450505050505b919050565b60608173ffffffffffffffffffffffffffffffffffffffff166395d89b416040518163ffffffff1660e01b815260040160006040518083038186803b158015612d4f57600080fd5b505afa925050508015612e4157506040513d6000823e3d601f19601f820116820180604052506020811015612d8357600080fd5b8101908080516040519392919084640100000000821115612da357600080fd5b83820191506020820185811115612db957600080fd5b8251866001820283011164010000000082111715612dd657600080fd5b8083526020830192505050908051906020019080838360005b83811015612e0a578082015181840152602081019050612def565b50505050905090810190601f168015612e375780820380516001836020036101000a031916815260200191505b5060405250505060015b612e4a57612e53565b80915050612e54565b5b919050565b80600560006101000a81548160ff021916908360ff16021790555050565b600073ffffffffffffffffffffffffffffffffffffffff168273ffffffffffffffffffffffffffffffffffffffff161415612f1a576040517f08c379a000000000000000000000000000000000000000000000000000000000815260040180806020018281038252601f8152602001807f45524332303a206d696e7420746f20746865207a65726f20616464726573730081525060200191505060405180910390fd5b612f26600083836133fe565b612f3b8160025461273e90919063ffffffff16565b600281905550612f92816000808573ffffffffffffffffffffffffffffffffffffffff1673ffffffffffffffffffffffffffffffffffffffff1681526020019081526020016000205461273e90919063ffffffff16565b6000808473ffffffffffffffffffffffffffffffffffffffff1673ffffffffffffffffffffffffffffffffffffffff168152602001908152602001600020819055508173ffffffffffffffffffffffffffffffffffffffff16600073ffffffffffffffffffffffffffffffffffffffff167fddf252ad1be2c89b69c2b068fc378daa952ba7f163c4a11628f55a4df523b3ef836040518082815260200191505060405180910390a35050565b600073ffffffffffffffffffffffffffffffffffffffff168573ffffffffffffffffffffffffffffffffffffffff161415613168578083146130e8576040517f08c379a000000000000000000000000000000000000000000000000000000000815260040180806020018281038252600d8152602001807f696e76616c69642076616c75650000000000000000000000000000000000000081525060200191505060405180910390fd5b3073ffffffffffffffffffffffffffffffffffffffff168273ffffffffffffffffffffffffffffffffffffffff1614613163578173ffffffffffffffffffffffffffffffffffffffff166108fc829081150290604051600060405180830381858888f19350505050158015613161573d6000803e3d6000fd5b505b61320c565b600083146131de576040517f08c379a000000000000000000000000000000000000000000000000000000000815260040180806020018281038252600d8152602001807f696e76616c69642076616c75650000000000000000000000000000000000000081525060200191505060405180910390fd5b61320b8483838873ffffffffffffffffffffffffffffffffffffffff166134ef909392919063ffffffff16565b5b5050505050565b60003090508373ffffffffffffffffffffffffffffffffffffffff166323b872dd8285856040518463ffffffff1660e01b8152600401808473ffffffffffffffffffffffffffffffffffffffff1681526020018373ffffffffffffffffffffffffffffffffffffffff1681526020018281526020019350505050600060405180830381600087803b1580156132a757600080fd5b505af19250505080156132b8575060015b6132c1576132c7565b506133f9565b8373ffffffffffffffffffffffffffffffffffffffff1663095ea7b382846040518363ffffffff1660e01b8152600401808373ffffffffffffffffffffffffffffffffffffffff16815260200182815260200192505050600060405180830381600087803b15801561333857600080fd5b505af115801561334c573d6000803e3d6000fd5b505050508373ffffffffffffffffffffffffffffffffffffffff166323b872dd8285856040518463ffffffff1660e01b8152600401808473ffffffffffffffffffffffffffffffffffffffff1681526020018373ffffffffffffffffffffffffffffffffffffffff1681526020018281526020019350505050600060405180830381600087803b1580156133df57600080fd5b505af11580156133f3573d6000803e3d6000fd5b50505050505b505050565b505050565b600061344583836040518060400160405280601e81526020017f536166654d6174683a207375627472616374696f6e206f766572666c6f77000081525061267e565b905092915050565b6134ea8363a9059cbb60e01b8484604051602401808373ffffffffffffffffffffffffffffffffffffffff16815260200182815260200192505050604051602081830303815290604052907bffffffffffffffffffffffffffffffffffffffffffffffffffffffff19166020820180517bffffffffffffffffffffffffffffffffffffffffffffffffffffffff83818316178352505050506135b0565b505050565b6135aa846323b872dd60e01b858585604051602401808473ffffffffffffffffffffffffffffffffffffffff1681526020018373ffffffffffffffffffffffffffffffffffffffff1681526020018281526020019350505050604051602081830303815290604052907bffffffffffffffffffffffffffffffffffffffffffffffffffffffff19166020820180517bffffffffffffffffffffffffffffffffffffffffffffffffffffffff83818316178352505050506135b0565b50505050565b6060613612826040518060400160405280602081526020017f5361666545524332303a206c6f772d6c6576656c2063616c6c206661696c65648152508573ffffffffffffffffffffffffffffffffffffffff1661369f9092919063ffffffff16565b905060008151111561369a5780806020019051602081101561363357600080fd5b8101908080519060200190929190505050613699576040517f08c379a000000000000000000000000000000000000000000000000000000000815260040180806020018281038252602a815260200180613b22602a913960400191505060405180910390fd5b5b505050565b60606136ae84846000856136b7565b90509392505050565b606082471015613712576040517f08c379a0000000000000000000000000000000000000000000000000000000008152600401808060200182810382526026815260200180613a6a6026913960400191505060405180910390fd5b61371b85613860565b61378d576040517f08c379a000000000000000000000000000000000000000000000000000000000815260040180806020018281038252601d8152602001807f416464726573733a2063616c6c20746f206e6f6e2d636f6e747261637400000081525060200191505060405180910390fd5b600060608673ffffffffffffffffffffffffffffffffffffffff1685876040518082805190602001908083835b602083106137dd57805182526020820191506020810190506020830392506137ba565b6001836020036101000a03801982511681845116808217855250505050505090500191505060006040518083038185875af1925050503d806000811461383f576040519150601f19603f3d011682016040523d82523d6000602084013e613844565b606091505b5091509150613854828286613873565b92505050949350505050565b600080823b905060008111915050919050565b6060831561388357829050613938565b6000835111156138965782518084602001fd5b816040517f08c379a00000000000000000000000000000000000000000000000000000000081526004018080602001828103825283818151815260200191508051906020019080838360005b838110156138fd5780820151818401526020810190506138e2565b50505050905090810190601f16801561392a5780820380516001836020036101000a031916815260200191505b509250505060405180910390fd5b9392505050565b828054600181600116156101000203166002900490600052602060002090601f016020900481019282601f1061398057805160ff19168380011785556139ae565b828001600101855582156139ae579182015b828111156139ad578251825591602001919060010190613992565b5b5090506139bb91906139bf565b5090565b5b808211156139d85760008160009055506001016139c0565b509056fe45524332303a207472616e7366657220746f20746865207a65726f206164647265737345524332303a206275726e20616d6f756e7420657863656564732062616c616e636545524332303a20617070726f766520746f20746865207a65726f206164647265737345524332303a207472616e7366657220616d6f756e7420657863656564732062616c616e6365416464726573733a20696e73756666696369656e742062616c616e636520666f722063616c6c45524332303a207472616e7366657220616d6f756e74206578636565647320616c6c6f77616e636545524332303a206275726e2066726f6d20746865207a65726f206164647265737345524332303a207472616e736665722066726f6d20746865207a65726f206164647265737345524332303a20617070726f76652066726f6d20746865207a65726f20616464726573735361666545524332303a204552433230206f7065726174696f6e20646964206e6f74207375636365656445524332303a2064656372656173656420616c6c6f77616e63652062656c6f77207a65726fa26469706673582212204e59b26d3348d1a09ad8d219a6c3f30f09110d05cd9aec7773afa971be6e947564736f6c634300060c0033",
  "immutableReferences": {},
  "source": "// SPDX-License-Identifier: GPL-3.0-only\npragma solidity ^0.6.0;\n\nimport { ERC20 } from \"@openzeppelin/contracts/token/ERC20/ERC20.sol\";\nimport { IERC20 } from \"@openzeppelin/contracts/token/ERC20/IERC20.sol\";\nimport { SafeERC20 } from \"@openzeppelin/contracts/token/ERC20/SafeERC20.sol\";\nimport { ERC721Holder } from \"@openzeppelin/contracts/token/ERC721/ERC721Holder.sol\";\nimport { IERC721 } from \"@openzeppelin/contracts/token/ERC721/IERC721.sol\";\nimport { IERC721Metadata } from \"@openzeppelin/contracts/token/ERC721/IERC721Metadata.sol\";\nimport { ReentrancyGuard } from \"@openzeppelin/contracts/utils/ReentrancyGuard.sol\";\nimport { Strings } from \"@openzeppelin/contracts/utils/Strings.sol\";\n\nimport { SafeERC721 } from \"./SafeERC721.sol\";\n\ncontract FractionsImpl is ERC721Holder, ERC20, ReentrancyGuard\n{\n\tusing SafeERC20 for IERC20;\n\tusing SafeERC721 for IERC721;\n\tusing SafeERC721 for IERC721Metadata;\n\tusing Strings for uint256;\n\n\taddress public target;\n\tuint256 public tokenId;\n\tuint256 public fractionsCount;\n\tuint256 public fractionPrice;\n\taddress public paymentToken;\n\n\tbool public released;\n\n\tstring private name_;\n\tstring private symbol_;\n\n\tconstructor () ERC20(\"Fractions\", \"FRAC\") public\n\t{\n\t\ttarget = address(-1); // prevents proxy code from misuse\n\t}\n\n\tfunction __name() public view /*override*/ returns (string memory _name) // rename to name() and change name() on ERC20 to virtual to be able to override on deploy\n\t{\n\t\tif (bytes(name_).length != 0) return name_;\n\t\treturn string(abi.encodePacked(IERC721Metadata(target).safeName(), \" #\", tokenId.toString(), \" Fractions\"));\n\t}\n\n\tfunction __symbol() public view /*override*/ returns (string memory _symbol) // rename to name() and change name() on ERC20 to virtual to be able to override on deploy\n\t{\n\t\tif (bytes(symbol_).length != 0) return symbol_;\n\t\treturn string(abi.encodePacked(IERC721Metadata(target).safeSymbol(), tokenId.toString()));\n\t}\n\n\tfunction initialize(address _from, address _target, uint256 _tokenId, string memory _name, string memory _symbol, uint8 _decimals, uint256 _fractionsCount, uint256 _fractionPrice, address _paymentToken) external\n\t{\n\t\trequire(target == address(0), \"already initialized\");\n\t\trequire(IERC721(_target).ownerOf(_tokenId) == address(this), \"token not staked\");\n\t\trequire(_fractionsCount > 0, \"invalid fraction count\");\n\t\trequire(_fractionsCount * _fractionPrice / _fractionsCount == _fractionPrice, \"invalid fraction price\");\n\t\trequire(_paymentToken != address(this), \"invalid token\");\n\t\ttarget = _target;\n\t\ttokenId = _tokenId;\n\t\tfractionsCount = _fractionsCount;\n\t\tfractionPrice = _fractionPrice;\n\t\tpaymentToken = _paymentToken;\n\t\treleased = false;\n\t\tname_ = _name;\n\t\tsymbol_ = _symbol;\n\t\t_setupDecimals(_decimals);\n\t\t_mint(_from, _fractionsCount);\n\t}\n\n\tfunction status() external view returns (string memory _status)\n\t{\n\t\treturn released ? \"SOLD\" : \"OFFER\";\n\t}\n\n\tfunction reservePrice() public view returns (uint256 _reservePrice)\n\t{\n\t\treturn fractionsCount * fractionPrice;\n\t}\n\n\tfunction redeemAmountOf(address _from) public view returns (uint256 _redeemAmount)\n\t{\n\t\trequire(!released, \"token already redeemed\");\n\t\tuint256 _fractionsCount = balanceOf(_from);\n\t\tuint256 _reservePrice = reservePrice();\n\t\treturn _reservePrice - _fractionsCount * fractionPrice;\n\t}\n\n\tfunction vaultBalance() external view returns (uint256 _vaultBalance)\n\t{\n\t\tif (!released) return 0;\n\t\tuint256 _fractionsCount = totalSupply();\n\t\treturn _fractionsCount * fractionPrice;\n\t}\n\n\tfunction vaultBalanceOf(address _from) public view returns (uint256 _vaultBalanceOf)\n\t{\n\t\tif (!released) return 0;\n\t\tuint256 _fractionsCount = balanceOf(_from);\n\t\treturn _fractionsCount * fractionPrice;\n\t}\n\n\tfunction redeem() external payable nonReentrant\n\t{\n\t\taddress payable _from = msg.sender;\n\t\tuint256 _value = msg.value;\n\t\trequire(!released, \"token already redeemed\");\n\t\tuint256 _fractionsCount = balanceOf(_from);\n\t\tuint256 _redeemAmount = redeemAmountOf(_from);\n\t\treleased = true;\n\t\tif (_fractionsCount > 0) _burn(_from, _fractionsCount);\n\t\t_safeTransferFrom(paymentToken, _from, _value, payable(address(this)), _redeemAmount);\n\t\tIERC721(target).safeTransfer(_from, tokenId);\n\t\temit Redeem(_from, _fractionsCount, _redeemAmount);\n\t\t_cleanup();\n\t}\n\n\tfunction claim() external nonReentrant\n\t{\n\t\taddress payable _from = msg.sender;\n\t\trequire(released, \"token not redeemed\");\n\t\tuint256 _fractionsCount = balanceOf(_from);\n\t\trequire(_fractionsCount > 0, \"nothing to claim\");\n\t\tuint256 _claimAmount = vaultBalanceOf(_from);\n\t\t_burn(_from, _fractionsCount);\n\t\t_safeTransfer(paymentToken, _from, _claimAmount);\n\t\temit Claim(_from, _fractionsCount, _claimAmount);\n\t\t_cleanup();\n\t}\n\n\tfunction _cleanup() internal\n\t{\n\t\tuint256 _fractionsCount = totalSupply();\n\t\tif (_fractionsCount == 0) {\n\t\t\tselfdestruct(address(0));\n\t\t}\n\t}\n\n\tfunction _safeTransfer(address _token, address payable _to, uint256 _amount) internal\n\t{\n\t\tif (_token == address(0)) {\n\t\t\t_to.transfer(_amount);\n\t\t} else {\n\t\t\tIERC20(_token).safeTransfer(_to, _amount);\n\t\t}\n\t}\n\n\tfunction _safeTransferFrom(address _token, address payable _from, uint256 _value, address payable _to, uint256 _amount) internal\n\t{\n\t\tif (_token == address(0)) {\n\t\t\trequire(_value == _amount, \"invalid value\");\n\t\t\tif (_to != address(this)) _to.transfer(_amount);\n\t\t} else {\n\t\t\trequire(_value == 0, \"invalid value\");\n\t\t\tIERC20(_token).safeTransferFrom(_from, _to, _amount);\n\t\t}\n\t}\n\n\tevent Redeem(address indexed _from, uint256 _fractionsCount, uint256 _redeemAmount);\n\tevent Claim(address indexed _from, uint256 _fractionsCount, uint256 _claimAmount);\n}\n",
  "sourcePath": "/Users/LordeYeti/Downloads/NIFTY/nftfy-v1-core/contracts/v1.5/FractionsImpl.sol",
  "compiler": {
    "name": "solc",
    "version": "0.6.12+commit.27d51765.Emscripten.clang"
  },
  "schemaVersion": "3.4.3",
  "updatedAt": "2021-12-09T09:57:51.909Z",
  "devdoc": {
    "kind": "dev",
    "methods": {
      "allowance(address,address)": {
        "details": "See {IERC20-allowance}."
      },
      "approve(address,uint256)": {
        "details": "See {IERC20-approve}. Requirements: - `spender` cannot be the zero address."
      },
      "balanceOf(address)": {
        "details": "See {IERC20-balanceOf}."
      },
      "decimals()": {
        "details": "Returns the number of decimals used to get its user representation. For example, if `decimals` equals `2`, a balance of `505` tokens should be displayed to a user as `5,05` (`505 / 10 ** 2`). Tokens usually opt for a value of 18, imitating the relationship between Ether and Wei. This is the value {ERC20} uses, unless {_setupDecimals} is called. NOTE: This information is only used for _display_ purposes: it in no way affects any of the arithmetic of the contract, including {IERC20-balanceOf} and {IERC20-transfer}."
      },
      "decreaseAllowance(address,uint256)": {
        "details": "Atomically decreases the allowance granted to `spender` by the caller. This is an alternative to {approve} that can be used as a mitigation for problems described in {IERC20-approve}. Emits an {Approval} event indicating the updated allowance. Requirements: - `spender` cannot be the zero address. - `spender` must have allowance for the caller of at least `subtractedValue`."
      },
      "increaseAllowance(address,uint256)": {
        "details": "Atomically increases the allowance granted to `spender` by the caller. This is an alternative to {approve} that can be used as a mitigation for problems described in {IERC20-approve}. Emits an {Approval} event indicating the updated allowance. Requirements: - `spender` cannot be the zero address."
      },
      "name()": {
        "details": "Returns the name of the token."
      },
      "onERC721Received(address,address,uint256,bytes)": {
        "details": "See {IERC721Receiver-onERC721Received}. Always returns `IERC721Receiver.onERC721Received.selector`."
      },
      "symbol()": {
        "details": "Returns the symbol of the token, usually a shorter version of the name."
      },
      "totalSupply()": {
        "details": "See {IERC20-totalSupply}."
      },
      "transfer(address,uint256)": {
        "details": "See {IERC20-transfer}. Requirements: - `recipient` cannot be the zero address. - the caller must have a balance of at least `amount`."
      },
      "transferFrom(address,address,uint256)": {
        "details": "See {IERC20-transferFrom}. Emits an {Approval} event indicating the updated allowance. This is not required by the EIP. See the note at the beginning of {ERC20}. Requirements: - `sender` and `recipient` cannot be the zero address. - `sender` must have a balance of at least `amount`. - the caller must have allowance for ``sender``'s tokens of at least `amount`."
      }
    },
    "version": 1
  },
  "userdoc": {
    "kind": "user",
    "methods": {},
    "version": 1
  }
}