{
  "contractName": "Fractionalizer",
  "abi": [
    {
      "anonymous": false,
      "inputs": [
        {
          "indexed": true,
          "internalType": "address",
          "name": "_from",
          "type": "address"
        },
        {
          "indexed": true,
          "internalType": "address",
          "name": "_target",
          "type": "address"
        },
        {
          "indexed": true,
          "internalType": "uint256",
          "name": "_tokenId",
          "type": "uint256"
        },
        {
          "indexed": false,
          "internalType": "address",
          "name": "_fractions",
          "type": "address"
        }
      ],
      "name": "Fractionalize",
      "type": "event"
    },
    {
      "inputs": [
        {
          "internalType": "address",
          "name": "_target",
          "type": "address"
        },
        {
          "internalType": "uint256",
          "name": "_tokenId",
          "type": "uint256"
        },
        {
          "internalType": "string",
          "name": "_name",
          "type": "string"
        },
        {
          "internalType": "string",
          "name": "_symbol",
          "type": "string"
        },
        {
          "internalType": "uint8",
          "name": "_decimals",
          "type": "uint8"
        },
        {
          "internalType": "uint256",
          "name": "_fractionsCount",
          "type": "uint256"
        },
        {
          "internalType": "uint256",
          "name": "_fractionPrice",
          "type": "uint256"
        },
        {
          "internalType": "address",
          "name": "_paymentToken",
          "type": "address"
        }
      ],
      "name": "fractionalize",
      "outputs": [
        {
          "internalType": "address",
          "name": "_fractions",
          "type": "address"
        }
      ],
      "stateMutability": "nonpayable",
      "type": "function"
    }
  ],
  "bytecode": "0x608060405234801561001057600080fd5b506001600081905550610690806100286000396000f3fe608060405234801561001057600080fd5b506004361061002b5760003560e01c80636c2e3d2114610030575b600080fd5b6101ec600480360361010081101561004757600080fd5b81019080803573ffffffffffffffffffffffffffffffffffffffff169060200190929190803590602001909291908035906020019064010000000081111561008e57600080fd5b8201836020820111156100a057600080fd5b803590602001918460018302840111640100000000831117156100c257600080fd5b91908080601f016020809104026020016040519081016040528093929190818152602001838380828437600081840152601f19601f8201169050808301925050505050505091929192908035906020019064010000000081111561012557600080fd5b82018360208201111561013757600080fd5b8035906020019184600183028401116401000000008311171561015957600080fd5b91908080601f016020809104026020016040519081016040528093929190818152602001838380828437600081840152601f19601f820116905080830192505050505050509192919290803560ff1690602001909291908035906020019092919080359060200190929190803573ffffffffffffffffffffffffffffffffffffffff169060200190929190505050610218565b604051808273ffffffffffffffffffffffffffffffffffffffff16815260200191505060405180910390f35b600060026000541415610293576040517f08c379a000000000000000000000000000000000000000000000000000000000815260040180806020018281038252601f8152602001807f5265656e7472616e637947756172643a207265656e7472616e742063616c6c0081525060200191505060405180910390fd5b600260008190555060003390506040516102ac906105bd565b604051809103906000f0801580156102c8573d6000803e3d6000fd5b5091508973ffffffffffffffffffffffffffffffffffffffff166323b872dd82848c6040518463ffffffff1660e01b8152600401808473ffffffffffffffffffffffffffffffffffffffff1681526020018373ffffffffffffffffffffffffffffffffffffffff1681526020018281526020019350505050600060405180830381600087803b15801561035a57600080fd5b505af115801561036e573d6000803e3d6000fd5b505050508173ffffffffffffffffffffffffffffffffffffffff1663bc393492828c8c8c8c8c8c8c8c6040518a63ffffffff1660e01b8152600401808a73ffffffffffffffffffffffffffffffffffffffff1681526020018973ffffffffffffffffffffffffffffffffffffffff16815260200188815260200180602001806020018760ff1681526020018681526020018581526020018473ffffffffffffffffffffffffffffffffffffffff168152602001838103835289818151815260200191508051906020019080838360005b8381101561045957808201518184015260208101905061043e565b50505050905090810190601f1680156104865780820380516001836020036101000a031916815260200191505b50838103825288818151815260200191508051906020019080838360005b838110156104bf5780820151818401526020810190506104a4565b50505050905090810190601f1680156104ec5780820380516001836020036101000a031916815260200191505b509b505050505050505050505050600060405180830381600087803b15801561051457600080fd5b505af1158015610528573d6000803e3d6000fd5b50505050888a73ffffffffffffffffffffffffffffffffffffffff168273ffffffffffffffffffffffffffffffffffffffff167fd029fddb4b49d10f81313f01d8f764f0aa3906c322cbe3efed5f70723f6cb02e85604051808273ffffffffffffffffffffffffffffffffffffffff16815260200191505060405180910390a450600160008190555098975050505050505050565b6091806105ca8339019056fe6080604052348015600f57600080fd5b5060738061001e6000396000f3fe608060405236600080376000803660007304859e76a961e8b2530afc4829605013bebd01a45af43d6000803e80600081146038573d6000f35b3d6000fdfea2646970667358221220e98e8f5ca88dcb5a68c0b125dc460afd5e7db0829b2a9ec9e3ac7ca14cac21c764736f6c634300060c0033a2646970667358221220f63b4b74979c20e9f6c92687f16b5764be827ce01ade2717816c575b470b8b2564736f6c634300060c0033",
  "immutableReferences": {},
  "source": "// SPDX-License-Identifier: GPL-3.0-only\npragma solidity ^0.6.0;\n\nimport { IERC721 } from \"@openzeppelin/contracts/token/ERC721/IERC721.sol\";\nimport { ReentrancyGuard } from \"@openzeppelin/contracts/utils/ReentrancyGuard.sol\";\n\nimport { Fractions } from \"./Fractions.sol\";\nimport { FractionsImpl } from \"./FractionsImpl.sol\";\n\ncontract Fractionalizer is ReentrancyGuard\n{\n\tfunction fractionalize(address _target, uint256 _tokenId, string memory _name, string memory _symbol, uint8 _decimals, uint256 _fractionsCount, uint256 _fractionPrice, address _paymentToken) external nonReentrant returns (address _fractions)\n\t{\n\t\taddress _from = msg.sender;\n\t\t_fractions = address(new Fractions());\n\t\tIERC721(_target).transferFrom(_from, _fractions, _tokenId);\n\t\tFractionsImpl(_fractions).initialize(_from, _target, _tokenId, _name, _symbol, _decimals, _fractionsCount, _fractionPrice, _paymentToken);\n\t\temit Fractionalize(_from, _target, _tokenId, _fractions);\n\t\treturn _fractions;\n\t}\n\n\tevent Fractionalize(address indexed _from, address indexed _target, uint256 indexed _tokenId, address _fractions);\n}\n",
  "sourcePath": "/Users/LordeYeti/Downloads/NIFTY/nftfy-v1-core/contracts/v1.5/Fractionalizer.sol",
  "compiler": {
    "name": "solc",
    "version": "0.6.12+commit.27d51765.Emscripten.clang"
  },
  "schemaVersion": "3.4.3",
  "updatedAt": "2021-12-09T09:57:51.903Z",
  "devdoc": {
    "kind": "dev",
    "methods": {},
    "version": 1
  },
  "userdoc": {
    "kind": "user",
    "methods": {},
    "version": 1
  }
}