{
  "contractName": "GSNRecipientMock",
  "abi": [
    {
      "anonymous": false,
      "inputs": [
        {
          "indexed": false,
          "internalType": "bytes",
          "name": "data",
          "type": "bytes"
        },
        {
          "indexed": false,
          "internalType": "uint256",
          "name": "integerValue",
          "type": "uint256"
        },
        {
          "indexed": false,
          "internalType": "string",
          "name": "stringValue",
          "type": "string"
        }
      ],
      "name": "Data",
      "type": "event"
    },
    {
      "anonymous": false,
      "inputs": [
        {
          "indexed": true,
          "internalType": "address",
          "name": "oldRelayHub",
          "type": "address"
        },
        {
          "indexed": true,
          "internalType": "address",
          "name": "newRelayHub",
          "type": "address"
        }
      ],
      "name": "RelayHubChanged",
      "type": "event"
    },
    {
      "anonymous": false,
      "inputs": [
        {
          "indexed": false,
          "internalType": "address",
          "name": "sender",
          "type": "address"
        }
      ],
      "name": "Sender",
      "type": "event"
    },
    {
      "inputs": [],
      "name": "getHubAddr",
      "outputs": [
        {
          "internalType": "address",
          "name": "",
          "type": "address"
        }
      ],
      "stateMutability": "view",
      "type": "function"
    },
    {
      "inputs": [
        {
          "internalType": "uint256",
          "name": "integerValue",
          "type": "uint256"
        },
        {
          "internalType": "string",
          "name": "stringValue",
          "type": "string"
        }
      ],
      "name": "msgData",
      "outputs": [],
      "stateMutability": "nonpayable",
      "type": "function"
    },
    {
      "inputs": [],
      "name": "msgSender",
      "outputs": [],
      "stateMutability": "nonpayable",
      "type": "function"
    },
    {
      "inputs": [
        {
          "internalType": "bytes",
          "name": "context",
          "type": "bytes"
        },
        {
          "internalType": "bool",
          "name": "success",
          "type": "bool"
        },
        {
          "internalType": "uint256",
          "name": "actualCharge",
          "type": "uint256"
        },
        {
          "internalType": "bytes32",
          "name": "preRetVal",
          "type": "bytes32"
        }
      ],
      "name": "postRelayedCall",
      "outputs": [],
      "stateMutability": "nonpayable",
      "type": "function"
    },
    {
      "inputs": [
        {
          "internalType": "bytes",
          "name": "context",
          "type": "bytes"
        }
      ],
      "name": "preRelayedCall",
      "outputs": [
        {
          "internalType": "bytes32",
          "name": "",
          "type": "bytes32"
        }
      ],
      "stateMutability": "nonpayable",
      "type": "function"
    },
    {
      "inputs": [],
      "name": "relayHubVersion",
      "outputs": [
        {
          "internalType": "string",
          "name": "",
          "type": "string"
        }
      ],
      "stateMutability": "view",
      "type": "function"
    },
    {
      "inputs": [
        {
          "internalType": "uint256",
          "name": "amount",
          "type": "uint256"
        },
        {
          "internalType": "address payable",
          "name": "payee",
          "type": "address"
        }
      ],
      "name": "withdrawDeposits",
      "outputs": [],
      "stateMutability": "nonpayable",
      "type": "function"
    },
    {
      "inputs": [
        {
          "internalType": "address",
          "name": "",
          "type": "address"
        },
        {
          "internalType": "address",
          "name": "",
          "type": "address"
        },
        {
          "internalType": "bytes",
          "name": "",
          "type": "bytes"
        },
        {
          "internalType": "uint256",
          "name": "",
          "type": "uint256"
        },
        {
          "internalType": "uint256",
          "name": "",
          "type": "uint256"
        },
        {
          "internalType": "uint256",
          "name": "",
          "type": "uint256"
        },
        {
          "internalType": "uint256",
          "name": "",
          "type": "uint256"
        },
        {
          "internalType": "bytes",
          "name": "",
          "type": "bytes"
        },
        {
          "internalType": "uint256",
          "name": "",
          "type": "uint256"
        }
      ],
      "name": "acceptRelayedCall",
      "outputs": [
        {
          "internalType": "uint256",
          "name": "",
          "type": "uint256"
        },
        {
          "internalType": "bytes",
          "name": "",
          "type": "bytes"
        }
      ],
      "stateMutability": "view",
      "type": "function"
    },
    {
      "inputs": [
        {
          "internalType": "address",
          "name": "newRelayHub",
          "type": "address"
        }
      ],
      "name": "upgradeRelayHub",
      "outputs": [],
      "stateMutability": "nonpayable",
      "type": "function"
    }
  ],
  "bytecode": "0x608060405273d216153c06e857cd7f72665e0af1d7d82172f4946000806101000a81548173ffffffffffffffffffffffffffffffffffffffff021916908373ffffffffffffffffffffffffffffffffffffffff16021790555034801561006457600080fd5b50610f2b806100746000396000f3fe608060405234801561001057600080fd5b50600436106100935760003560e01c80639e30a590116100665780639e30a59014610421578063ad61ccd514610465578063c2db1abe146104e8578063d737d0c714610536578063e06e0e221461054057610093565b8063376bf2621461009857806374e861d61461015d57806380274db71461019157806383947ea014610260575b600080fd5b61015b600480360360408110156100ae57600080fd5b8101908080359060200190929190803590602001906401000000008111156100d557600080fd5b8201836020820111156100e757600080fd5b8035906020019184600183028401116401000000008311171561010957600080fd5b91908080601f016020809104026020016040519081016040528093929190818152602001838380828437600081840152601f19601f82011690508083019250505050505050919291929050505061061b565b005b610165610737565b604051808273ffffffffffffffffffffffffffffffffffffffff16815260200191505060405180910390f35b61024a600480360360208110156101a757600080fd5b81019080803590602001906401000000008111156101c457600080fd5b8201836020820111156101d657600080fd5b803590602001918460018302840111640100000000831117156101f857600080fd5b91908080601f016020809104026020016040519081016040528093929190818152602001838380828437600081840152601f19601f820116905080830192505050505050509192919290505050610760565b6040518082815260200191505060405180910390f35b61039f600480360361012081101561027757600080fd5b81019080803573ffffffffffffffffffffffffffffffffffffffff169060200190929190803573ffffffffffffffffffffffffffffffffffffffff169060200190929190803590602001906401000000008111156102d457600080fd5b8201836020820111156102e657600080fd5b8035906020019184600183028401116401000000008311171561030857600080fd5b9091929391929390803590602001909291908035906020019092919080359060200190929190803590602001909291908035906020019064010000000081111561035157600080fd5b82018360208201111561036357600080fd5b8035906020019184600183028401116401000000008311171561038557600080fd5b9091929391929390803590602001909291905050506107fd565b6040518083815260200180602001828103825283818151815260200191508051906020019080838360005b838110156103e55780820151818401526020810190506103ca565b50505050905090810190601f1680156104125780820380516001836020036101000a031916815260200191505b50935050505060405180910390f35b6104636004803603602081101561043757600080fd5b81019080803573ffffffffffffffffffffffffffffffffffffffff169060200190929190505050610827565b005b61046d610833565b6040518080602001828103825283818151815260200191508051906020019080838360005b838110156104ad578082015181840152602081019050610492565b50505050905090810190601f1680156104da5780820380516001836020036101000a031916815260200191505b509250505060405180910390f35b610534600480360360408110156104fe57600080fd5b8101908080359060200190929190803573ffffffffffffffffffffffffffffffffffffffff169060200190929190505050610870565b005b61053e61087e565b005b6106196004803603608081101561055657600080fd5b810190808035906020019064010000000081111561057357600080fd5b82018360208201111561058557600080fd5b803590602001918460018302840111640100000000831117156105a757600080fd5b91908080601f016020809104026020016040519081016040528093929190818152602001838380828437600081840152601f19601f82011690508083019250505050505050919291929080351515906020019092919080359060200190929190803590602001909291905050506108d4565b005b7faf235354a0a47c91ee171961326335cb2d1a8e55b8a89859b0e61eb049e50ea0610644610971565b8383604051808060200184815260200180602001838103835286818151815260200191508051906020019080838360005b83811015610690578082015181840152602081019050610675565b50505050905090810190601f1680156106bd5780820380516001836020036101000a031916815260200191505b50838103825284818151815260200191508051906020019080838360005b838110156106f65780820151818401526020810190506106db565b50505050905090810190601f1680156107235780820380516001836020036101000a031916815260200191505b509550505050505060405180910390a15050565b60008060009054906101000a900473ffffffffffffffffffffffffffffffffffffffff16905090565b600061076a610737565b73ffffffffffffffffffffffffffffffffffffffff163373ffffffffffffffffffffffffffffffffffffffff16146107ed576040517f08c379a0000000000000000000000000000000000000000000000000000000008152600401808060200182810382526024815260200180610ed26024913960400191505060405180910390fd5b6107f682610980565b9050919050565b60006060600060405180602001604052806000815250915091509b509b9950505050505050505050565b61083081610987565b50565b60606040518060400160405280600581526020017f312e302e30000000000000000000000000000000000000000000000000000000815250905090565b61087a8282610b56565b5050565b7fd6558c3ed910d959271054471fd1c326679d9fece99c5091b00ed89627cf2bfc6108a7610c02565b604051808273ffffffffffffffffffffffffffffffffffffffff16815260200191505060405180910390a1565b6108dc610737565b73ffffffffffffffffffffffffffffffffffffffff163373ffffffffffffffffffffffffffffffffffffffff161461095f576040517f08c379a0000000000000000000000000000000000000000000000000000000008152600401808060200182810382526024815260200180610ed26024913960400191505060405180910390fd5b61096b84848484610c11565b50505050565b606061097b610c17565b905090565b6000919050565b60008060009054906101000a900473ffffffffffffffffffffffffffffffffffffffff169050600073ffffffffffffffffffffffffffffffffffffffff168273ffffffffffffffffffffffffffffffffffffffff161415610a33576040517f08c379a000000000000000000000000000000000000000000000000000000000815260040180806020018281038252602e815260200180610e77602e913960400191505060405180910390fd5b8073ffffffffffffffffffffffffffffffffffffffff168273ffffffffffffffffffffffffffffffffffffffff161415610ab8576040517f08c379a000000000000000000000000000000000000000000000000000000000815260040180806020018281038252602d815260200180610ea5602d913960400191505060405180910390fd5b8173ffffffffffffffffffffffffffffffffffffffff168173ffffffffffffffffffffffffffffffffffffffff167fb9f84b8e65164b14439ae3620df0a4d8786d896996c0282b683f9d8c08f046e860405160405180910390a3816000806101000a81548173ffffffffffffffffffffffffffffffffffffffff021916908373ffffffffffffffffffffffffffffffffffffffff1602179055505050565b60008054906101000a900473ffffffffffffffffffffffffffffffffffffffff1673ffffffffffffffffffffffffffffffffffffffff1662f714ce83836040518363ffffffff1660e01b8152600401808381526020018273ffffffffffffffffffffffffffffffffffffffff16815260200192505050600060405180830381600087803b158015610be657600080fd5b505af1158015610bfa573d6000803e3d6000fd5b505050505050565b6000610c0c610cc7565b905090565b50505050565b606060008054906101000a900473ffffffffffffffffffffffffffffffffffffffff1673ffffffffffffffffffffffffffffffffffffffff163373ffffffffffffffffffffffffffffffffffffffff1614610cb9576000368080601f016020809104026020016040519081016040528093929190818152602001838380828437600081840152601f19601f820116905080830192505050505050509050610cc4565b610cc1610d33565b90505b90565b60008060009054906101000a900473ffffffffffffffffffffffffffffffffffffffff1673ffffffffffffffffffffffffffffffffffffffff163373ffffffffffffffffffffffffffffffffffffffff1614610d2557339050610d30565b610d2d610e01565b90505b90565b606060006014600036905003905060608167ffffffffffffffff81118015610d5a57600080fd5b506040519080825280601f01601f191660200182016040528015610d8d5781602001600182028036833780820191505090505b50905060005b82811015610df85760003682818110610da857fe5b9050013560f81c60f81b828281518110610dbe57fe5b60200101907effffffffffffffffffffffffffffffffffffffffffffffffffffffffffffff1916908160001a905350806001019050610d93565b50809250505090565b600060606000368080601f016020809104026020016040519081016040528093929190818152602001838380828437600081840152601f19601f820116905080830192505050505050509050600080369050905073ffffffffffffffffffffffffffffffffffffffff8183015116925050509056fe47534e526563697069656e743a206e65772052656c617948756220697320746865207a65726f206164647265737347534e526563697069656e743a206e65772052656c6179487562206973207468652063757272656e74206f6e6547534e526563697069656e743a2063616c6c6572206973206e6f742052656c6179487562a26469706673582212205de554370f6bb7d9e1d8fbc6518d1e0e218836152ee3167015eb3a146faeef3464736f6c634300060c0033",
  "immutableReferences": {},
  "source": "// SPDX-License-Identifier: MIT\n\npragma solidity >=0.6.0 <0.8.0;\n\nimport \"./ContextMock.sol\";\nimport \"../GSN/GSNRecipient.sol\";\n\n// By inheriting from GSNRecipient, Context's internal functions are overridden automatically\ncontract GSNRecipientMock is ContextMock, GSNRecipient {\n    function withdrawDeposits(uint256 amount, address payable payee) public {\n        _withdrawDeposits(amount, payee);\n    }\n\n    function acceptRelayedCall(address, address, bytes calldata, uint256, uint256, uint256, uint256, bytes calldata, uint256)\n        external\n        view\n        override\n        returns (uint256, bytes memory)\n    {\n        return (0, \"\");\n    }\n\n    function _preRelayedCall(bytes memory) internal override returns (bytes32) { }\n\n    function _postRelayedCall(bytes memory, bool, uint256, bytes32) internal override { }\n\n    function upgradeRelayHub(address newRelayHub) public {\n        return _upgradeRelayHub(newRelayHub);\n    }\n\n    function _msgSender() internal override(Context, GSNRecipient) view virtual returns (address payable) {\n        return GSNRecipient._msgSender();\n    }\n\n    function _msgData() internal override(Context, GSNRecipient) view virtual returns (bytes memory) {\n        return GSNRecipient._msgData();\n    }\n}\n",
  "sourcePath": "/Users/LordeYeti/Downloads/NIFTY/nftfy-v1-core/contracts/contracts/mocks/GSNRecipientMock.sol",
  "compiler": {
    "name": "solc",
    "version": "0.6.12+commit.27d51765.Emscripten.clang"
  },
  "schemaVersion": "3.4.3",
  "updatedAt": "2021-12-09T09:51:18.745Z",
  "devdoc": {
    "kind": "dev",
    "methods": {
      "getHubAddr()": {
        "details": "Returns the address of the {IRelayHub} contract for this recipient."
      },
      "postRelayedCall(bytes,bool,uint256,bytes32)": {
        "details": "See `IRelayRecipient.postRelayedCall`. This function should not be overridden directly, use `_postRelayedCall` instead. * Requirements: - the caller must be the `RelayHub` contract."
      },
      "preRelayedCall(bytes)": {
        "details": "See `IRelayRecipient.preRelayedCall`. This function should not be overridden directly, use `_preRelayedCall` instead. * Requirements: - the caller must be the `RelayHub` contract."
      },
      "relayHubVersion()": {
        "details": "Returns the version string of the {IRelayHub} for which this recipient implementation was built. If {_upgradeRelayHub} is used, the new {IRelayHub} instance should be compatible with this version."
      }
    },
    "version": 1
  },
  "userdoc": {
    "kind": "user",
    "methods": {},
    "version": 1
  }
}