{
  "contractName": "Nftfy",
  "abi": [
    {
      "inputs": [
        {
          "internalType": "contract IERC721",
          "name": "",
          "type": "address"
        }
      ],
      "name": "wrappers",
      "outputs": [
        {
          "internalType": "contract ERC721Wrapper",
          "name": "",
          "type": "address"
        }
      ],
      "stateMutability": "view",
      "type": "function",
      "constant": true
    },
    {
      "inputs": [
        {
          "internalType": "contract IERC721",
          "name": "_target",
          "type": "address"
        },
        {
          "internalType": "uint256",
          "name": "_tokenId",
          "type": "uint256"
        },
        {
          "internalType": "uint256",
          "name": "_sharesCount",
          "type": "uint256"
        },
        {
          "internalType": "uint8",
          "name": "_decimals",
          "type": "uint8"
        },
        {
          "internalType": "uint256",
          "name": "_exitPrice",
          "type": "uint256"
        },
        {
          "internalType": "contract IERC20",
          "name": "_paymentToken",
          "type": "address"
        },
        {
          "internalType": "bool",
          "name": "_remnant",
          "type": "bool"
        }
      ],
      "name": "securitize",
      "outputs": [],
      "stateMutability": "nonpayable",
      "type": "function"
    }
  ],
  "bytecode": "0x608060405234801561001057600080fd5b506001600081905550610909806100286000396000f3fe608060405234801561001057600080fd5b50600436106100365760003560e01c80639cbfdf1d1461003b578063b41e991a146100d6575b600080fd5b6100d4600480360360e081101561005157600080fd5b81019080803573ffffffffffffffffffffffffffffffffffffffff1690602001909291908035906020019092919080359060200190929190803560ff16906020019092919080359060200190929190803573ffffffffffffffffffffffffffffffffffffffff169060200190929190803515159060200190929190505050610144565b005b610118600480360360208110156100ec57600080fd5b81019080803573ffffffffffffffffffffffffffffffffffffffff1690602001909291905050506105ca565b604051808273ffffffffffffffffffffffffffffffffffffffff16815260200191505060405180910390f35b600260005414156101bd576040517f08c379a000000000000000000000000000000000000000000000000000000000815260040180806020018281038252601f8152602001807f5265656e7472616e637947756172643a207265656e7472616e742063616c6c0081525060200191505060405180910390fd5b6002600081905550600033905060006101d5896105fd565b90506000851161024d576040517f08c379a00000000000000000000000000000000000000000000000000000000081526004018080602001828103825260128152602001807f696e76616c69642065786974207072696365000000000000000000000000000081525060200191505060405180910390fd5b600087116102c3576040517f08c379a00000000000000000000000000000000000000000000000000000000081526004018080602001828103825260148152602001807f696e76616c69642073686172657320636f756e7400000000000000000000000081525060200191505060405180910390fd5b60008786816102ce57fe5b0614610342576040517f08c379a000000000000000000000000000000000000000000000000000000000815260040180806020018281038252601a8152602001807f6672616374696f6e616c2070726963652070657220736861726500000000000081525060200191505060405180910390fd5b600087868161034d57fe5b049050600073__Shares________________________________6345f5673f848c878d8d888d8d6040518963ffffffff1660e01b8152600401808973ffffffffffffffffffffffffffffffffffffffff1681526020018881526020018773ffffffffffffffffffffffffffffffffffffffff1681526020018681526020018560ff1681526020018481526020018373ffffffffffffffffffffffffffffffffffffffff16815260200182151581526020019850505050505050505060206040518083038186803b15801561042057600080fd5b505af4158015610434573d6000803e3d6000fd5b505050506040513d602081101561044a57600080fd5b810190808051906020019092919050505090508a73ffffffffffffffffffffffffffffffffffffffff166323b872dd85838d6040518463ffffffff1660e01b8152600401808473ffffffffffffffffffffffffffffffffffffffff1681526020018373ffffffffffffffffffffffffffffffffffffffff1681526020018281526020019350505050600060405180830381600087803b1580156104ec57600080fd5b505af1158015610500573d6000803e3d6000fd5b505050508273ffffffffffffffffffffffffffffffffffffffff16636b7ac257858c88856040518563ffffffff1660e01b8152600401808573ffffffffffffffffffffffffffffffffffffffff16815260200184815260200183151581526020018273ffffffffffffffffffffffffffffffffffffffff168152602001945050505050600060405180830381600087803b15801561059d57600080fd5b505af11580156105b1573d6000803e3d6000fd5b5050505050505050600160008190555050505050505050565b60026020528060005260406000206000915054906101000a900473ffffffffffffffffffffffffffffffffffffffff1681565b6000600160008373ffffffffffffffffffffffffffffffffffffffff1673ffffffffffffffffffffffffffffffffffffffff16815260200190815260200160002060009054906101000a900460ff16156106bf576040517f08c379a00000000000000000000000000000000000000000000000000000000081526004018080602001828103825260158152602001807f63616e6e6f74207772617020612077726170706572000000000000000000000081525060200191505060405180910390fd5b600260008373ffffffffffffffffffffffffffffffffffffffff1673ffffffffffffffffffffffffffffffffffffffff16815260200190815260200160002060009054906101000a900473ffffffffffffffffffffffffffffffffffffffff169050600073ffffffffffffffffffffffffffffffffffffffff168173ffffffffffffffffffffffffffffffffffffffff1614156108ce5773__Wrapper_______________________________6390b09fe8836040518263ffffffff1660e01b8152600401808273ffffffffffffffffffffffffffffffffffffffff16815260200191505060206040518083038186803b1580156107bb57600080fd5b505af41580156107cf573d6000803e3d6000fd5b505050506040513d60208110156107e557600080fd5b8101908080519060200190929190505050905080600260008473ffffffffffffffffffffffffffffffffffffffff1673ffffffffffffffffffffffffffffffffffffffff16815260200190815260200160002060006101000a81548173ffffffffffffffffffffffffffffffffffffffff021916908373ffffffffffffffffffffffffffffffffffffffff16021790555060018060008373ffffffffffffffffffffffffffffffffffffffff1673ffffffffffffffffffffffffffffffffffffffff16815260200190815260200160002060006101000a81548160ff0219169083151502179055505b91905056fea2646970667358221220754adfa1f6b0d284c6e35ce642d46b5712017c4757cf30a1f45050196cef65e064736f6c634300060c0033",
  "immutableReferences": {},
  "source": "// Nftfy\n// SPDX-License-Identifier: GPL-3.0-only\npragma solidity ^0.6.0;\n\nimport { IERC20 } from \"@openzeppelin/contracts/token/ERC20/IERC20.sol\";\nimport { IERC721 } from \"@openzeppelin/contracts/token/ERC721/IERC721.sol\";\nimport { ReentrancyGuard } from \"@openzeppelin/contracts/utils/ReentrancyGuard.sol\";\n\nimport { Wrapper, ERC721Wrapper } from \"./Wrapper.sol\";\nimport { Shares, ERC721Shares } from \"./Shares.sol\";\n\ncontract Nftfy is ReentrancyGuard\n{\n\tmapping (IERC721 => bool) private wraps;\n\tmapping (IERC721 => ERC721Wrapper) public wrappers;\n\n\tfunction ensureWrapper(IERC721 _target) internal returns (ERC721Wrapper _wrapper)\n\t{\n\t\trequire(!wraps[_target], \"cannot wrap a wrapper\");\n\t\t_wrapper = wrappers[_target];\n\t\tif (_wrapper == ERC721Wrapper(0)) {\n\t\t\t_wrapper = Wrapper.create(_target);\n\t\t\twrappers[_target] = _wrapper;\n\t\t\twraps[_wrapper] = true;\n\t\t}\n\t\treturn _wrapper;\n\t}\n\n\tfunction securitize(IERC721 _target, uint256 _tokenId, uint256 _sharesCount, uint8 _decimals, uint256 _exitPrice, IERC20 _paymentToken, bool _remnant) external nonReentrant\n\t{\n\t\taddress _from = msg.sender;\n\t\tERC721Wrapper _wrapper = ensureWrapper(_target);\n\t\trequire(_exitPrice > 0, \"invalid exit price\");\n\t\trequire(_sharesCount > 0, \"invalid shares count\");\n\t\trequire(_exitPrice % _sharesCount == 0, \"fractional price per share\");\n\t\tuint256 _sharePrice = _exitPrice / _sharesCount;\n\t\tERC721Shares _shares = Shares.create(_wrapper, _tokenId, _from, _sharesCount, _decimals, _sharePrice, _paymentToken, _remnant);\n\t\t_target.transferFrom(_from, address(_shares), _tokenId);\n\t\t_wrapper._insert(_from, _tokenId, _remnant, _shares);\n\t}\n}\n",
  "sourcePath": "/Users/LordeYeti/Downloads/NIFTY/nftfy-v1-core/contracts/v1.0/Nftfy.sol",
  "compiler": {
    "name": "solc",
    "version": "0.6.12+commit.27d51765.Emscripten.clang"
  },
  "schemaVersion": "3.4.3",
  "updatedAt": "2021-12-09T10:16:24.624Z",
  "networkType": "ethereum",
  "devdoc": {
    "kind": "dev",
    "methods": {},
    "version": 1
  },
  "userdoc": {
    "kind": "user",
    "methods": {},
    "version": 1
  }
}