{
  "contractName": "SafeERC721Metadata",
  "abi": [
    {
      "inputs": [
        {
          "internalType": "contract IERC721Metadata",
          "name": "_metadata",
          "type": "IERC721Metadata"
        }
      ],
      "name": "safeName",
      "outputs": [
        {
          "internalType": "string",
          "name": "_name",
          "type": "string"
        }
      ],
      "stateMutability": "view",
      "type": "function",
      "constant": true
    },
    {
      "inputs": [
        {
          "internalType": "contract IERC721Metadata",
          "name": "_metadata",
          "type": "IERC721Metadata"
        }
      ],
      "name": "safeSymbol",
      "outputs": [
        {
          "internalType": "string",
          "name": "_symbol",
          "type": "string"
        }
      ],
      "stateMutability": "view",
      "type": "function",
      "constant": true
    },
    {
      "inputs": [
        {
          "internalType": "contract IERC721Metadata",
          "name": "_metadata",
          "type": "IERC721Metadata"
        },
        {
          "internalType": "uint256",
          "name": "_tokenId",
          "type": "uint256"
        }
      ],
      "name": "safeTokenURI",
      "outputs": [
        {
          "internalType": "string",
          "name": "_tokenURI",
          "type": "string"
        }
      ],
      "stateMutability": "view",
      "type": "function",
      "constant": true
    }
  ],
  "bytecode": "0x610789610026600b82828239805160001a60731461001957fe5b30600052607381538281f3fe730000000000000000000000000000000000000000301460806040526004361061004b5760003560e01c806335ce8e7f14610050578063639fb21e14610117578063a52a2a2f146101d4575b600080fd5b61009c6004803603604081101561006657600080fd5b81019080803573ffffffffffffffffffffffffffffffffffffffff16906020019092919080359060200190929190505050610291565b6040518080602001828103825283818151815260200191508051906020019080838360005b838110156100dc5780820151818401526020810190506100c1565b50505050905090810190601f1680156101095780820380516001836020036101000a031916815260200191505b509250505060405180910390f35b6101596004803603602081101561012d57600080fd5b81019080803573ffffffffffffffffffffffffffffffffffffffff16906020019092919050505061042f565b6040518080602001828103825283818151815260200191508051906020019080838360005b8381101561019957808201518184015260208101905061017e565b50505050905090810190601f1680156101c65780820380516001836020036101000a031916815260200191505b509250505060405180910390f35b610216600480360360208110156101ea57600080fd5b81019080803573ffffffffffffffffffffffffffffffffffffffff1690602001909291905050506105c1565b6040518080602001828103825283818151815260200191508051906020019080838360005b8381101561025657808201518184015260208101905061023b565b50505050905090810190601f1680156102835780820380516001836020036101000a031916815260200191505b509250505060405180910390f35b60608273ffffffffffffffffffffffffffffffffffffffff1663c87b56dd836040518263ffffffff1660e01b81526004018082815260200191505060006040518083038186803b1580156102e457600080fd5b505afa9250505080156103d657506040513d6000823e3d601f19601f82011682018060405250602081101561031857600080fd5b810190808051604051939291908464010000000082111561033857600080fd5b8382019150602082018581111561034e57600080fd5b825186600182028301116401000000008211171561036b57600080fd5b8083526020830192505050908051906020019080838360005b8381101561039f578082015181840152602081019050610384565b50505050905090810190601f1680156103cc5780820380516001836020036101000a031916815260200191505b5060405250505060015b610424573d8060008114610406576040519150601f19603f3d011682016040523d82523d6000602084013e61040b565b606091505b5060405180602001604052806000815250915050610429565b809150505b92915050565b60608173ffffffffffffffffffffffffffffffffffffffff166395d89b416040518163ffffffff1660e01b815260040160006040518083038186803b15801561047757600080fd5b505afa92505050801561056957506040513d6000823e3d601f19601f8201168201806040525060208110156104ab57600080fd5b81019080805160405193929190846401000000008211156104cb57600080fd5b838201915060208201858111156104e157600080fd5b82518660018202830111640100000000821117156104fe57600080fd5b8083526020830192505050908051906020019080838360005b83811015610532578082015181840152602081019050610517565b50505050905090810190601f16801561055f5780820380516001836020036101000a031916815260200191505b5060405250505060015b6105b7573d8060008114610599576040519150601f19603f3d011682016040523d82523d6000602084013e61059e565b606091505b50604051806020016040528060008152509150506105bc565b809150505b919050565b60608173ffffffffffffffffffffffffffffffffffffffff166306fdde036040518163ffffffff1660e01b815260040160006040518083038186803b15801561060957600080fd5b505afa9250505080156106fb57506040513d6000823e3d601f19601f82011682018060405250602081101561063d57600080fd5b810190808051604051939291908464010000000082111561065d57600080fd5b8382019150602082018581111561067357600080fd5b825186600182028301116401000000008211171561069057600080fd5b8083526020830192505050908051906020019080838360005b838110156106c45780820151818401526020810190506106a9565b50505050905090810190601f1680156106f15780820380516001836020036101000a031916815260200191505b5060405250505060015b610749573d806000811461072b576040519150601f19603f3d011682016040523d82523d6000602084013e610730565b606091505b506040518060200160405280600081525091505061074e565b809150505b91905056fea26469706673582212208b8f7cd87233def7ef489840e81e28c6c81b68218f15946620fd08c9d14ec25464736f6c634300060c0033",
  "immutableReferences": {},
  "source": "// SafeERC721Metadata\n// SPDX-License-Identifier: GPL-3.0-only\npragma solidity ^0.6.0;\n\nimport { IERC721Metadata } from \"@openzeppelin/contracts/token/ERC721/IERC721Metadata.sol\";\n\nlibrary SafeERC721Metadata\n{\n\tfunction safeName(IERC721Metadata _metadata) public view returns (string memory _name)\n\t{\n\t\ttry _metadata.name() returns (string memory _n) {\n\t\t\treturn _n;\n\t\t} catch (bytes memory /* _data */) {\n\t\t\treturn \"\";\n\t\t}\n\t}\n\n\tfunction safeSymbol(IERC721Metadata _metadata) public view returns (string memory _symbol)\n\t{\n\t\ttry _metadata.symbol() returns (string memory _s) {\n\t\t\treturn _s;\n\t\t} catch (bytes memory /* _data */) {\n\t\t\treturn \"\";\n\t\t}\n\t}\n\n\tfunction safeTokenURI(IERC721Metadata _metadata, uint256 _tokenId) public view returns (string memory _tokenURI)\n\t{\n\t\ttry _metadata.tokenURI(_tokenId) returns (string memory _t) {\n\t\t\treturn _t;\n\t\t} catch (bytes memory /* _data */) {\n\t\t\treturn \"\";\n\t\t}\n\t}\n}\n",
  "sourcePath": "/Users/LordeYeti/Downloads/NIFTY/nftfy-v1-core/contracts/v1.0/SafeERC721Metadata.sol",
  "compiler": {
    "name": "solc",
    "version": "0.6.12+commit.27d51765.Emscripten.clang"
  },
  "schemaVersion": "3.4.3",
  "updatedAt": "2021-12-09T10:16:24.663Z",
  "networkType": "ethereum",
  "devdoc": {
    "kind": "dev",
    "methods": {},
    "version": 1
  },
  "userdoc": {
    "kind": "user",
    "methods": {},
    "version": 1
  }
}